Component: ARM Compiler 5.06 update 7 (build 960) Tool: armlink [4d3601]

==============================================================================

Section Cross References

    system_stm32f10x.o(i.SetSysClock) refers to system_stm32f10x.o(i.SetSysClockTo72) for SetSysClockTo72
    system_stm32f10x.o(i.SystemCoreClockUpdate) refers to system_stm32f10x.o(.data) for SystemCoreClock
    system_stm32f10x.o(i.SystemInit) refers to system_stm32f10x.o(i.SetSysClock) for SetSysClock
    main.o(i.E_A) refers to stm32f10x_gpio.o(i.GPIO_ReadInputDataBit) for GPIO_ReadInputDataBit
    main.o(i.E_A) refers to delay.o(i.delay_ms) for delay_ms
    main.o(i.E_B) refers to stm32f10x_gpio.o(i.GPIO_ReadInputDataBit) for GPIO_ReadInputDataBit
    main.o(i.E_B) refers to delay.o(i.delay_ms) for delay_ms
    main.o(i.Encoder_Init) refers to stm32f10x_rcc.o(i.RCC_APB2PeriphClockCmd) for RCC_APB2PeriphClockCmd
    main.o(i.Encoder_Init) refers to stm32f10x_rcc.o(i.RCC_APB1PeriphClockCmd) for RCC_APB1PeriphClockCmd
    main.o(i.Encoder_Init) refers to stm32f10x_gpio.o(i.GPIO_Init) for GPIO_Init
    main.o(i.Encoder_Init) refers to stm32f10x_tim.o(i.TIM_TimeBaseInit) for TIM_TimeBaseInit
    main.o(i.Encoder_Init) refers to stm32f10x_tim.o(i.TIM_EncoderInterfaceConfig) for TIM_EncoderInterfaceConfig
    main.o(i.Encoder_Init) refers to stm32f10x_tim.o(i.TIM_ICStructInit) for TIM_ICStructInit
    main.o(i.Encoder_Init) refers to stm32f10x_tim.o(i.TIM_ICInit) for TIM_ICInit
    main.o(i.Encoder_Init) refers to stm32f10x_tim.o(i.TIM_ClearFlag) for TIM_ClearFlag
    main.o(i.Encoder_Init) refers to stm32f10x_tim.o(i.TIM_ITConfig) for TIM_ITConfig
    main.o(i.Encoder_Init) refers to stm32f10x_tim.o(i.TIM_SetCounter) for TIM_SetCounter
    main.o(i.Encoder_Init) refers to stm32f10x_tim.o(i.TIM_Cmd) for TIM_Cmd
==============================================================================

Removing Unused input sections from the image.

    Removing system_stm32f10x.o(i.SystemCoreClockUpdate), (164 bytes).
    Removing main.o(i.E_A), (44 bytes).
    Removing main.o(i.E_B), (44 bytes).
    Removing main.o(i.KEY), (44 bytes).
    Removing main.o(i.Show_file), (188 bytes).
    Removing main.o(i.Show_picture), (116 bytes).
    Removing main.o(.constdata), (4352 bytes).
    Removing main.o(.data), (4 bytes).
    Removing lcd_init.o(i.delay), (12 bytes).
    Removing lcd.o(i.Draw_Circle), (158 bytes).
    Removing lcd.o(i.LCD_DrawLine), (172 bytes).
    Removing lcd.o(i.LCD_DrawRectangle), (74 bytes).
    Removing lcd.o(i.LCD_Fill), (116 bytes).
    Removing lcd.o(i.LCD_ShowBMP), (132 bytes).
    Removing lcd.o(i.LCD_ShowChar), (344 bytes).
    Removing lcd.o(i.LCD_ShowChinese), (140 bytes).
    Removing lcd.o(i.LCD_ShowChinese12x12), (328 bytes).
    Removing lcd.o(i.LCD_ShowChinese16x16), (312 bytes).
==============================================================================

Image Symbol Table

    Local Symbols

    Symbol Name                              Value     Ov Type        Size  Object(Section)

    ../clib/microlib/errno.c                 0x00000000   Number         0  errno.o ABSOLUTE
    ../clib/microlib/init/entry.s            0x00000000   Number         0  entry5.o ABSOLUTE
    ../clib/microlib/init/entry.s            0x00000000   Number         0  entry7a.o ABSOLUTE
    ../clib/microlib/init/entry.s            0x00000000   Number         0  entry7b.o ABSOLUTE
    ../clib/microlib/init/entry.s            0x00000000   Number         0  entry8b.o ABSOLUTE
    ../clib/microlib/init/entry.s            0x00000000   Number         0  entry8a.o ABSOLUTE
    ../clib/microlib/init/entry.s            0x00000000   Number         0  entry.o ABSOLUTE
    ../clib/microlib/init/entry.s            0x00000000   Number         0  entry12b.o ABSOLUTE
    ../clib/microlib/init/entry.s            0x00000000   Number         0  entry12a.o ABSOLUTE
    ../clib/microlib/init/entry.s            0x00000000   Number         0  entry11b.o ABSOLUTE
    ../clib/microlib/init/entry.s            0x00000000   Number         0  entry11a.o ABSOLUTE
    ../clib/microlib/init/entry.s            0x00000000   Number         0  entry10b.o ABSOLUTE
    ../clib/microlib/init/entry.s            0x00000000   Number         0  entry10a.o ABSOLUTE
    ../clib/microlib/init/entry.s            0x00000000   Number         0  entry9b.o ABSOLUTE
    ../clib/microlib/init/entry.s            0x00000000   Number         0  entry9a.o ABSOLUTE
    ../clib/microlib/init/entry.s            0x00000000   Number         0  entry2.o ABSOLUTE
    ../clib/microlib/longlong.c              0x00000000   Number         0  llshl.o ABSOLUTE
    ../clib/microlib/longlong.c              0x00000000   Number         0  llushr.o ABSOLUTE
    ../clib/microlib/longlong.c              0x00000000   Number         0  llsshr.o ABSOLUTE
    ../clib/microlib/string/memcpy.c         0x00000000   Number         0  memcpya.o ABSOLUTE
    ../clib/microlib/string/memcpy.c         0x00000000   Number         0  memcpyb.o ABSOLUTE
    ../clib/microlib/string/memset.c         0x00000000   Number         0  memseta.o ABSOLUTE
    ../clib/microlib/string/strlen.c         0x00000000   Number         0  strlen.o ABSOLUTE
    ../clib/microlib/stubs.s                 0x00000000   Number         0  iusefp.o ABSOLUTE
    ../clib/microlib/stubs.s                 0x00000000   Number         0  useno.o ABSOLUTE
    ../fplib/microlib/d2f.c                  0x00000000   Number         0  d2f.o ABSOLUTE
    ../fplib/microlib/f2d.c                  0x00000000   Number         0  f2d.o ABSOLUTE
    ../fplib/microlib/fpadd.c                0x00000000   Number         0  fadd.o ABSOLUTE
    ../fplib/microlib/fpadd.c                0x00000000   Number         0  dadd.o ABSOLUTE
    ../fplib/microlib/fpdiv.c                0x00000000   Number         0  ddiv.o ABSOLUTE
    ../fplib/microlib/fpepilogue.c           0x00000000   Number         0  fepilogue.o ABSOLUTE
    ../fplib/microlib/fpepilogue.c           0x00000000   Number         0  depilogue.o ABSOLUTE
    ../fplib/microlib/fpfix.c                0x00000000   Number         0  dfixi.o ABSOLUTE
    ../fplib/microlib/fpfix.c                0x00000000   Number         0  ffixui.o ABSOLUTE
    ../fplib/microlib/fpflt.c                0x00000000   Number         0  dfltui.o ABSOLUTE
    ../fplib/microlib/fpflt.c                0x00000000   Number         0  dflti.o ABSOLUTE
    ../fplib/microlib/fpflt.c                0x00000000   Number         0  fflti.o ABSOLUTE
    ../fplib/microlib/fpmul.c                0x00000000   Number         0  fmul.o ABSOLUTE
    ../fplib/microlib/fpmul.c                0x00000000   Number         0  dmul.o ABSOLUTE
    ../fplib/microlib/fpscalb.c              0x00000000   Number         0  dscalb.o ABSOLUTE
    ../mathlib/cos.c                         0x00000000   Number         0  cos.o ABSOLUTE
    ../mathlib/cos.c                         0x00000000   Number         0  cos_x.o ABSOLUTE
    ../mathlib/cos_i.c                       0x00000000   Number         0  cos_i.o ABSOLUTE
    ../mathlib/dunder.c                      0x00000000   Number         0  dunder.o ABSOLUTE
    ../mathlib/fpclassify.c                  0x00000000   Number         0  fpclassify.o ABSOLUTE
    ../mathlib/poly.c                        0x00000000   Number         0  poly.o ABSOLUTE
    ../mathlib/rred.c                        0x00000000   Number         0  rred.o ABSOLUTE
    ../mathlib/sin.c                         0x00000000   Number         0  sin.o ABSOLUTE
    ../mathlib/sin.c                         0x00000000   Number         0  sin_x.o ABSOLUTE
    ../mathlib/sin_i.c                       0x00000000   Number         0  sin_i.o ABSOLUTE
    ../mathlib/sin_i.c                       0x00000000   Number         0  sin_i_x.o ABSOLUTE
    ..\3D\3D.c                               0x00000000   Number         0  3d.o ABSOLUTE
    ..\CORE\core_cm3.c                       0x00000000   Number         0  core_cm3.o ABSOLUTE
    ..\CORE\startup_stm32f10x_hd.s           0x00000000   Number         0  startup_stm32f10x_hd.o ABSOLUTE
    ..\FATFS\diskio.c                        0x00000000   Number         0  diskio.o ABSOLUTE
    ..\FATFS\ff.c                            0x00000000   Number         0  ff.o ABSOLUTE
    ..\HARDWARE\DMA\dma.c                    0x00000000   Number         0  dma.o ABSOLUTE
    ..\HARDWARE\LCD\lcd.c                    0x00000000   Number         0  lcd.o ABSOLUTE
    ..\HARDWARE\LCD\lcd_init.c               0x00000000   Number         0  lcd_init.o ABSOLUTE
    ..\HARDWARE\LED\led.c                    0x00000000   Number         0  led.o ABSOLUTE
    ..\HARDWARE\SPI\spi.c                    0x00000000   Number         0  spi.o ABSOLUTE
    ..\MALLOC\malloc.c                       0x00000000   Number         0  malloc.o ABSOLUTE
    ..\SCGUI\lv_font_14.c                    0x00000000   Number         0  lv_font_14.o ABSOLUTE
    ..\SCGUI\sc_arc.c                        0x00000000   Number         0  sc_arc.o ABSOLUTE
    ..\SCGUI\sc_event_task.c                 0x00000000   Number         0  sc_event_task.o ABSOLUTE
    ..\SCGUI\sc_gui.c                        0x00000000   Number         0  sc_gui.o ABSOLUTE
    ..\SCGUI\sc_gui_demo.c                   0x00000000   Number         0  sc_gui_demo.o ABSOLUTE
    ..\SCGUI\sc_lcd.c                        0x00000000   Number         0  sc_lcd.o ABSOLUTE
    ..\SCGUI\sc_transform.c                  0x00000000   Number         0  sc_transform.o ABSOLUTE
    ..\SD\sd.c                               0x00000000   Number         0  sd.o ABSOLUTE
    ..\STM32F10x_FWLib\src\misc.c            0x00000000   Number         0  misc.o ABSOLUTE
    ..\STM32F10x_FWLib\src\stm32f10x_adc.c   0x00000000   Number         0  stm32f10x_adc.o ABSOLUTE
    ..\STM32F10x_FWLib\src\stm32f10x_bkp.c   0x00000000   Number         0  stm32f10x_bkp.o ABSOLUTE
    ..\STM32F10x_FWLib\src\stm32f10x_can.c   0x00000000   Number         0  stm32f10x_can.o ABSOLUTE
    ..\STM32F10x_FWLib\src\stm32f10x_cec.c   0x00000000   Number         0  stm32f10x_cec.o ABSOLUTE
    ..\STM32F10x_FWLib\src\stm32f10x_crc.c   0x00000000   Number         0  stm32f10x_crc.o ABSOLUTE
    ..\STM32F10x_FWLib\src\stm32f10x_dac.c   0x00000000   Number         0  stm32f10x_dac.o ABSOLUTE
    ..\STM32F10x_FWLib\src\stm32f10x_dbgmcu.c 0x00000000   Number         0  stm32f10x_dbgmcu.o ABSOLUTE
    ..\STM32F10x_FWLib\src\stm32f10x_dma.c   0x00000000   Number         0  stm32f10x_dma.o ABSOLUTE
    ..\STM32F10x_FWLib\src\stm32f10x_exti.c  0x00000000   Number         0  stm32f10x_exti.o ABSOLUTE
    ..\STM32F10x_FWLib\src\stm32f10x_flash.c 0x00000000   Number         0  stm32f10x_flash.o ABSOLUTE
    ..\STM32F10x_FWLib\src\stm32f10x_fsmc.c  0x00000000   Number         0  stm32f10x_fsmc.o ABSOLUTE
    ..\STM32F10x_FWLib\src\stm32f10x_gpio.c  0x00000000   Number         0  stm32f10x_gpio.o ABSOLUTE
    ..\STM32F10x_FWLib\src\stm32f10x_i2c.c   0x00000000   Number         0  stm32f10x_i2c.o ABSOLUTE
    ..\STM32F10x_FWLib\src\stm32f10x_iwdg.c  0x00000000   Number         0  stm32f10x_iwdg.o ABSOLUTE
    ..\STM32F10x_FWLib\src\stm32f10x_pwr.c   0x00000000   Number         0  stm32f10x_pwr.o ABSOLUTE
    ..\STM32F10x_FWLib\src\stm32f10x_rcc.c   0x00000000   Number         0  stm32f10x_rcc.o ABSOLUTE
    ..\STM32F10x_FWLib\src\stm32f10x_rtc.c   0x00000000   Number         0  stm32f10x_rtc.o ABSOLUTE
    ..\STM32F10x_FWLib\src\stm32f10x_sdio.c  0x00000000   Number         0  stm32f10x_sdio.o ABSOLUTE
    ..\STM32F10x_FWLib\src\stm32f10x_spi.c   0x00000000   Number         0  stm32f10x_spi.o ABSOLUTE
    ..\STM32F10x_FWLib\src\stm32f10x_tim.c   0x00000000   Number         0  stm32f10x_tim.o ABSOLUTE
    ..\STM32F10x_FWLib\src\stm32f10x_usart.c 0x00000000   Number         0  stm32f10x_usart.o ABSOLUTE
    ..\STM32F10x_FWLib\src\stm32f10x_wwdg.c  0x00000000   Number         0  stm32f10x_wwdg.o ABSOLUTE
    ..\SYSTEM\delay\delay.c                  0x00000000   Number         0  delay.o ABSOLUTE
    ..\SYSTEM\sys\sys.c                      0x00000000   Number         0  sys.o ABSOLUTE
    ..\SYSTEM\usart\usart.c                  0x00000000   Number         0  usart.o ABSOLUTE
    ..\\CORE\\core_cm3.c                     0x00000000   Number         0  core_cm3.o ABSOLUTE
    dc.s                                     0x00000000   Number         0  dc.o ABSOLUTE
    handlers.s                               0x00000000   Number         0  handlers.o ABSOLUTE
    init.s                                   0x00000000   Number         0  init.o ABSOLUTE
    main.c                                   0x00000000   Number         0  main.o ABSOLUTE
    stm32f10x_it.c                           0x00000000   Number         0  stm32f10x_it.o ABSOLUTE
    system_stm32f10x.c                       0x00000000   Number         0  system_stm32f10x.o ABSOLUTE
    RESET                                    0x08000000   Section      304  startup_stm32f10x_hd.o(RESET)
    .ARM.Collect$$$$00000000                 0x08000130   Section        0  entry.o(.ARM.Collect$$$$00000000)
    .ARM.Collect$$$$00000001                 0x08000130   Section        4  entry2.o(.ARM.Collect$$$$00000001)
    .ARM.Collect$$$$00000004                 0x08000134   Section        4  entry5.o(.ARM.Collect$$$$00000004)
    .ARM.Collect$$$$00000008                 0x08000138   Section        0  entry7b.o(.ARM.Collect$$$$00000008)
    .ARM.Collect$$$$0000000A                 0x08000138   Section        0  entry8b.o(.ARM.Collect$$$$0000000A)
    .ARM.Collect$$$$0000000B                 0x08000138   Section        8  entry9a.o(.ARM.Collect$$$$0000000B)
    .ARM.Collect$$$$0000000E                 0x08000140   Section        4  entry12b.o(.ARM.Collect$$$$0000000E)
    .ARM.Collect$$$$0000000F                 0x08000144   Section        0  entry10a.o(.ARM.Collect$$$$0000000F)
    .ARM.Collect$$$$00000011                 0x08000144   Section        0  entry11a.o(.ARM.Collect$$$$00000011)
    .ARM.Collect$$$$00002712                 0x08000144   Section        4  entry2.o(.ARM.Collect$$$$00002712)
    __lit__00000000                          0x08000144   Data           4  entry2.o(.ARM.Collect$$$$00002712)
    .text                                    0x08000148   Section       36  startup_stm32f10x_hd.o(.text)
    .text                                    0x0800016c   Section        0  memseta.o(.text)
    .text                                    0x08000190   Section       36  init.o(.text)
    i.Bilinear_Interpolate                   0x080001b4   Section        0  sc_transform.o(i.Bilinear_Interpolate)
    Bilinear_Interpolate                     0x080001b5   Thumb Code   314  sc_transform.o(i.Bilinear_Interpolate)
    i.BusFault_Handler                       0x080002ee   Section        0  stm32f10x_it.o(i.BusFault_Handler)
    i.DMA1_Channel5_IRQHandler               0x080002f4   Section        0  spi.o(i.DMA1_Channel5_IRQHandler)
    i.DMA_ClearFlag                          0x08000314   Section        0  stm32f10x_dma.o(i.DMA_ClearFlag)
    i.DMA_ClearITPendingBit                  0x08000330   Section        0  stm32f10x_dma.o(i.DMA_ClearITPendingBit)
    i.DMA_Cmd                                0x0800034c   Section        0  stm32f10x_dma.o(i.DMA_Cmd)
    i.DMA_GetFlagStatus                      0x08000364   Section        0  stm32f10x_dma.o(i.DMA_GetFlagStatus)
    i.DMA_GetITStatus                        0x08000390   Section        0  stm32f10x_dma.o(i.DMA_GetITStatus)
    i.DMA_ITConfig                           0x080003bc   Section        0  stm32f10x_dma.o(i.DMA_ITConfig)
    i.DMA_Init                               0x080003ce   Section        0  stm32f10x_dma.o(i.DMA_Init)
    i.DebugMon_Handler                       0x0800040a   Section        0  stm32f10x_it.o(i.DebugMon_Handler)
    i.Encoder_Init                           0x0800040c   Section        0  main.o(i.Encoder_Init)
    i.GPIO_Init                              0x080004a8   Section        0  stm32f10x_gpio.o(i.GPIO_Init)
    i.GPIO_PinRemapConfig                    0x080005c0   Section        0  stm32f10x_gpio.o(i.GPIO_PinRemapConfig)
    i.GPIO_ResetBits                         0x08000650   Section        0  stm32f10x_gpio.o(i.GPIO_ResetBits)
    i.GPIO_SetBits                           0x08000654   Section        0  stm32f10x_gpio.o(i.GPIO_SetBits)
    i.HardFault_Handler                      0x08000658   Section        0  stm32f10x_it.o(i.HardFault_Handler)
    i.KEY_Init                               0x0800065c   Section        0  main.o(i.KEY_Init)
    i.LCD_Address_Set                        0x08000680   Section        0  lcd_init.o(i.LCD_Address_Set)
    i.LCD_DMA_Fill_COLOR                     0x080006c4   Section        0  lcd.o(i.LCD_DMA_Fill_COLOR)
    i.LCD_DMA_color                          0x08000750   Section        0  sc_lcd.o(i.LCD_DMA_color)
    i.LCD_DrawPoint                          0x08000774   Section        0  lcd.o(i.LCD_DrawPoint)
    i.LCD_GPIO_Init                          0x08000790   Section        0  lcd_init.o(i.LCD_GPIO_Init)
    i.LCD_Init                               0x080007bc   Section        0  lcd_init.o(i.LCD_Init)
    i.LCD_WR_DATA                            0x0800095c   Section        0  lcd_init.o(i.LCD_WR_DATA)
    i.LCD_WR_DATA8                           0x08000990   Section        0  lcd_init.o(i.LCD_WR_DATA8)
    i.LCD_WR_REG                             0x080009bc   Section        0  lcd_init.o(i.LCD_WR_REG)
    i.LED_Init                               0x080009e8   Section        0  led.o(i.LED_Init)
    i.MemManage_Handler                      0x08000a2c   Section        0  stm32f10x_it.o(i.MemManage_Handler)
    i.NMI_Handler                            0x08000a30   Section        0  stm32f10x_it.o(i.NMI_Handler)
    i.NVIC_Init                              0x08000a34   Section        0  misc.o(i.NVIC_Init)
    i.PendSV_Handler                         0x08000aa4   Section        0  stm32f10x_it.o(i.PendSV_Handler)
    i.RCC_AHBPeriphClockCmd                  0x08000aa8   Section        0  stm32f10x_rcc.o(i.RCC_AHBPeriphClockCmd)
    i.RCC_APB1PeriphClockCmd                 0x08000ac8   Section        0  stm32f10x_rcc.o(i.RCC_APB1PeriphClockCmd)
    i.RCC_APB1PeriphResetCmd                 0x08000ae8   Section        0  stm32f10x_rcc.o(i.RCC_APB1PeriphResetCmd)
    i.RCC_APB2PeriphClockCmd                 0x08000b08   Section        0  stm32f10x_rcc.o(i.RCC_APB2PeriphClockCmd)
    i.SC_Clear                               0x08000b28   Section        0  sc_gui.o(i.SC_Clear)
    i.SC_DMA_Send                            0x08000b54   Section        0  spi.o(i.SC_DMA_Send)
    i.SC_GUI_Init                            0x08000b94   Section        0  sc_gui.o(i.SC_GUI_Init)
    i.SC_GUI_test                            0x08000c14   Section        0  sc_gui_demo.o(i.SC_GUI_test)
    i.SC_Refresh                             0x08000f18   Section        0  sc_lcd.o(i.SC_Refresh)
    i.SC_arc_sin_cos                         0x08000f84   Section        0  sc_arc.o(i.SC_arc_sin_cos)
    i.SC_bilinear_bmp1                       0x0800104e   Section        0  sc_gui.o(i.SC_bilinear_bmp1)
    i.SC_chart_put_dat1                      0x080010b0   Section        0  sc_gui.o(i.SC_chart_put_dat1)
    i.SC_get_dma_Status                      0x080010dc   Section        0  spi.o(i.SC_get_dma_Status)
    i.SC_pfb_DrawArc                         0x0800110c   Section        0  sc_arc.o(i.SC_pfb_DrawArc)
    i.SC_pfb_DrawFill                        0x080011d0   Section        0  sc_gui.o(i.SC_pfb_DrawFill)
    i.SC_pfb_DrawFrame                       0x080012a4   Section        0  sc_gui.o(i.SC_pfb_DrawFrame)
    i.SC_pfb_DrawRound                       0x080012fc   Section        0  sc_arc.o(i.SC_pfb_DrawRound)
    i.SC_pfb_Image                           0x08001538   Section        0  sc_gui.o(i.SC_pfb_Image)
    i.SC_pfb_Refresh                         0x08001608   Section        0  sc_lcd.o(i.SC_pfb_Refresh)
    i.SC_pfb_RoundBar                        0x080016e8   Section        0  sc_arc.o(i.SC_pfb_RoundBar)
    i.SC_pfb_RoundFrame                      0x080017b0   Section        0  sc_arc.o(i.SC_pfb_RoundFrame)
    i.SC_pfb_chart                           0x08001ab0   Section        0  sc_gui.o(i.SC_pfb_chart)
    i.SC_pfb_clip                            0x08001cb4   Section        0  sc_lcd.o(i.SC_pfb_clip)
    i.SC_pfb_intersection                    0x08001d88   Section        0  sc_lcd.o(i.SC_pfb_intersection)
    i.SC_pfb_label                           0x08001dfc   Section        0  sc_gui.o(i.SC_pfb_label)
    i.SC_pfb_lv_letter                       0x08001f74   Section        0  sc_gui.o(i.SC_pfb_lv_letter)
    i.SC_pfb_printf                          0x08002130   Section        0  sc_gui.o(i.SC_pfb_printf)
    i.SC_set_label                           0x08002200   Section        0  sc_gui.o(i.SC_set_label)
    i.SC_set_label_border                    0x0800221c   Section        0  sc_gui.o(i.SC_set_label_border)
    SC_set_label_border                      0x0800221d   Thumb Code    84  sc_gui.o(i.SC_set_label_border)
    i.SC_transform                           0x08002270   Section        0  sc_transform.o(i.SC_transform)
    i.SPI2_Init                              0x08002544   Section        0  spi.o(i.SPI2_Init)
    i.SPI2_ReadWriteByte                     0x08002674   Section        0  spi.o(i.SPI2_ReadWriteByte)
    i.SPI_Cmd                                0x080026b8   Section        0  stm32f10x_spi.o(i.SPI_Cmd)
    i.SPI_I2S_DMACmd                         0x080026d0   Section        0  stm32f10x_spi.o(i.SPI_I2S_DMACmd)
    i.SPI_I2S_GetFlagStatus                  0x080026e2   Section        0  stm32f10x_spi.o(i.SPI_I2S_GetFlagStatus)
    i.SPI_I2S_ReceiveData                    0x080026f4   Section        0  stm32f10x_spi.o(i.SPI_I2S_ReceiveData)
    i.SPI_I2S_SendData                       0x080026fa   Section        0  stm32f10x_spi.o(i.SPI_I2S_SendData)
    i.SPI_Init                               0x080026fe   Section        0  stm32f10x_spi.o(i.SPI_Init)
    i.SVC_Handler                            0x0800273a   Section        0  stm32f10x_it.o(i.SVC_Handler)
    i.SetSysClock                            0x0800273c   Section        0  system_stm32f10x.o(i.SetSysClock)
    SetSysClock                              0x0800273d   Thumb Code     8  system_stm32f10x.o(i.SetSysClock)
    i.SetSysClockTo72                        0x08002744   Section        0  system_stm32f10x.o(i.SetSysClockTo72)
    SetSysClockTo72                          0x08002745   Thumb Code   216  system_stm32f10x.o(i.SetSysClockTo72)
    i.SysTick_CLKSourceConfig                0x08002824   Section        0  misc.o(i.SysTick_CLKSourceConfig)
    i.SysTick_Handler                        0x0800284c   Section        0  stm32f10x_it.o(i.SysTick_Handler)
    i.SystemInit                             0x08002850   Section        0  system_stm32f10x.o(i.SystemInit)
    i.TI1_Config                             0x080028b0   Section        0  stm32f10x_tim.o(i.TI1_Config)
    TI1_Config                               0x080028b1   Thumb Code   108  stm32f10x_tim.o(i.TI1_Config)
    i.TI2_Config                             0x08002930   Section        0  stm32f10x_tim.o(i.TI2_Config)
    TI2_Config                               0x08002931   Thumb Code   130  stm32f10x_tim.o(i.TI2_Config)
    i.TI3_Config                             0x080029c8   Section        0  stm32f10x_tim.o(i.TI3_Config)
    TI3_Config                               0x080029c9   Thumb Code   122  stm32f10x_tim.o(i.TI3_Config)
    i.TI4_Config                             0x08002a58   Section        0  stm32f10x_tim.o(i.TI4_Config)
    TI4_Config                               0x08002a59   Thumb Code   130  stm32f10x_tim.o(i.TI4_Config)
    i.TIM_ClearFlag                          0x08002af0   Section        0  stm32f10x_tim.o(i.TIM_ClearFlag)
    i.TIM_Cmd                                0x08002af6   Section        0  stm32f10x_tim.o(i.TIM_Cmd)
    i.TIM_EncoderInterfaceConfig             0x08002b0e   Section        0  stm32f10x_tim.o(i.TIM_EncoderInterfaceConfig)
    i.TIM_ICInit                             0x08002b50   Section        0  stm32f10x_tim.o(i.TIM_ICInit)
    i.TIM_ICStructInit                       0x08002bfc   Section        0  stm32f10x_tim.o(i.TIM_ICStructInit)
    i.TIM_ITConfig                           0x08002c0e   Section        0  stm32f10x_tim.o(i.TIM_ITConfig)
    i.TIM_SetCounter                         0x08002c20   Section        0  stm32f10x_tim.o(i.TIM_SetCounter)
    i.TIM_SetIC1Prescaler                    0x08002c24   Section        0  stm32f10x_tim.o(i.TIM_SetIC1Prescaler)
    i.TIM_SetIC2Prescaler                    0x08002c36   Section        0  stm32f10x_tim.o(i.TIM_SetIC2Prescaler)
    i.TIM_SetIC3Prescaler                    0x08002c50   Section        0  stm32f10x_tim.o(i.TIM_SetIC3Prescaler)
    i.TIM_SetIC4Prescaler                    0x08002c62   Section        0  stm32f10x_tim.o(i.TIM_SetIC4Prescaler)
    i.TIM_TimeBaseInit                       0x08002c7c   Section        0  stm32f10x_tim.o(i.TIM_TimeBaseInit)
    i.USART1_IRQHandler                      0x08002d20   Section        0  usart.o(i.USART1_IRQHandler)
    i.USART_GetITStatus                      0x08002da8   Section        0  stm32f10x_usart.o(i.USART_GetITStatus)
    i.USART_ReceiveData                      0x08002dfc   Section        0  stm32f10x_usart.o(i.USART_ReceiveData)
    i.UsageFault_Handler                     0x08002e06   Section        0  stm32f10x_it.o(i.UsageFault_Handler)
    i.__scatterload_copy                     0x08002e0a   Section       14  handlers.o(i.__scatterload_copy)
    i.__scatterload_null                     0x08002e18   Section        2  handlers.o(i.__scatterload_null)
    i.__scatterload_zeroinit                 0x08002e1a   Section       14  handlers.o(i.__scatterload_zeroinit)
    i.__user_font_get_bitmap                 0x08002e28   Section        0  lv_font_14.o(i.__user_font_get_bitmap)
    __user_font_get_bitmap                   0x08002e29   Thumb Code    86  lv_font_14.o(i.__user_font_get_bitmap)
    i.__user_font_get_glyph_dsc              0x08002e7e   Section        0  lv_font_14.o(i.__user_font_get_glyph_dsc)
    __user_font_get_glyph_dsc                0x08002e7f   Thumb Code   118  lv_font_14.o(i.__user_font_get_glyph_dsc)
    i.alphaBlend                             0x08002ef4   Section        0  sc_gui.o(i.alphaBlend)
    i.binsearch                              0x08002f3c   Section        0  lv_font_14.o(i.binsearch)
    binsearch                                0x08002f3d   Thumb Code    54  lv_font_14.o(i.binsearch)
    i.delay_init                             0x08002f74   Section        0  delay.o(i.delay_init)
    i.delay_ms                               0x08002fb8   Section        0  delay.o(i.delay_ms)
    i.get_bpp_value                          0x08003004   Section        0  sc_gui.o(i.get_bpp_value)
    get_bpp_value                            0x08003005   Thumb Code   168  sc_gui.o(i.get_bpp_value)
    i.lv_get_glyph_dsc                       0x080030ac   Section        0  sc_gui.o(i.lv_get_glyph_dsc)
    lv_get_glyph_dsc                         0x080030ad   Thumb Code    60  sc_gui.o(i.lv_get_glyph_dsc)
    i.lv_txt_utf8_next                       0x080030e8   Section        0  sc_gui.o(i.lv_txt_utf8_next)
    i.main                                   0x08003230   Section        0  main.o(i.main)
    i.sc_atan2_slope                         0x08003278   Section        0  sc_arc.o(i.sc_atan2_slope)
    sc_atan2_slope                           0x08003279   Thumb Code    52  sc_arc.o(i.sc_atan2_slope)
    i.sc_cos                                 0x080032b0   Section        0  sc_arc.o(i.sc_cos)
    i.sc_sin                                 0x080032c4   Section        0  sc_arc.o(i.sc_sin)
    i.sc_sqrt                                0x08003334   Section        0  sc_arc.o(i.sc_sqrt)
    .constdata                               0x08003370   Section     5596  lv_font_14.o(.constdata)
    glyph_bitmap                             0x08003370   Data        4570  lv_font_14.o(.constdata)
    glyph_dsc                                0x0800454c   Data         800  lv_font_14.o(.constdata)
    unicode_list_1                           0x0800486c   Data         202  lv_font_14.o(.constdata)
    cmaps                                    0x08004938   Data          20  lv_font_14.o(.constdata)
    .constdata                               0x0800494c   Section      182  sc_arc.o(.constdata)
    sin0_90_table                            0x0800494c   Data         182  sc_arc.o(.constdata)
    .constdata                               0x08004a04   Section     2068  sc_gui_demo.o(.constdata)
    .data                                    0x20000000   Section       20  system_stm32f10x.o(.data)
    .data                                    0x20000014   Section       10  spi.o(.data)
    .data                                    0x2000001e   Section        4  delay.o(.data)
    fac_us                                   0x2000001e   Data           1  delay.o(.data)
    fac_ms                                   0x20000020   Data           2  delay.o(.data)
    .data                                    0x20000024   Section        6  usart.o(.data)
    .data                                    0x2000002c   Section        4  sc_gui.o(.data)
    .data                                    0x20000030   Section        2  sc_lcd.o(.data)
    addr                                     0x20000030   Data           2  sc_lcd.o(.data)
    .data                                    0x20000034   Section       52  lv_font_14.o(.data)
    font_dsc                                 0x20000034   Data          32  lv_font_14.o(.data)
    .data                                    0x20000068   Section       12  sc_gui_demo.o(.data)
    task                                     0x20000070   Data           1  sc_gui_demo.o(.data)
    xi                                       0x20000072   Data           2  sc_gui_demo.o(.data)
    .bss                                     0x20000074   Section      200  usart.o(.bss)
    .bss                                     0x2000013c   Section     4704  sc_gui.o(.bss)
    tft                                      0x2000136c   Data          48  sc_gui.o(.bss)
    STACK                                    0x200013a0   Section     1024  startup_stm32f10x_hd.o(STACK)

    Global Symbols

    Symbol Name                              Value     Ov Type        Size  Object(Section)

    BuildAttributes$$THM_ISAv4$P$D$K$B$S$PE$A:L22UL41UL21$X:L11$S22US41US21$IEEE1$IW$USESV6$~STKCKD$USESV7$~SHL$OTIME$ROPI$IEEEX$EBA8$MICROLIB$REQ8$PRES8$EABIv2 0x00000000   Number         0  anon$$obj.o ABSOLUTE
    __ARM_use_no_argv                        0x00000000   Number         0  main.o ABSOLUTE
    __use_no_errno                           0x00000000   Number         0  useno.o ABSOLUTE
    __use_no_exception_handling              0x00000000   Number         0  useno.o ABSOLUTE
    __use_no_fp                              0x00000000   Number         0  useno.o ABSOLUTE
    __use_no_heap                            0x00000000   Number         0  useno.o ABSOLUTE
    __use_no_heap_region                     0x00000000   Number         0  useno.o ABSOLUTE
    __use_no_semihosting                     0x00000000   Number         0  useno.o ABSOLUTE
    __use_no_semihosting_swi                 0x00000000   Number         0  useno.o ABSOLUTE
    __use_no_signal_handling                 0x00000000   Number         0  useno.o ABSOLUTE
    __arm_fini_                               - Undefined Weak Reference
    __cpp_initialize__aeabi_                  - Undefined Weak Reference
    __cxa_finalize                            - Undefined Weak Reference
    __decompress                              - Undefined Weak Reference
    _clock_init                               - Undefined Weak Reference
    _microlib_exit                            - Undefined Weak Reference
    __Vectors_Size                           0x00000130   Number         0  startup_stm32f10x_hd.o ABSOLUTE
    __Vectors                                0x08000000   Data           4  startup_stm32f10x_hd.o(RESET)
    __Vectors_End                            0x08000130   Data           0  startup_stm32f10x_hd.o(RESET)
    __main                                   0x08000131   Thumb Code     0  entry.o(.ARM.Collect$$$$00000000)
    _main_stk                                0x08000131   Thumb Code     0  entry2.o(.ARM.Collect$$$$00000001)
    _main_scatterload                        0x08000135   Thumb Code     0  entry5.o(.ARM.Collect$$$$00000004)
    __main_after_scatterload                 0x08000139   Thumb Code     0  entry5.o(.ARM.Collect$$$$00000004)
    _main_clock                              0x08000139   Thumb Code     0  entry7b.o(.ARM.Collect$$$$00000008)
    _main_cpp_init                           0x08000139   Thumb Code     0  entry8b.o(.ARM.Collect$$$$0000000A)
    _main_init                               0x08000139   Thumb Code     0  entry9a.o(.ARM.Collect$$$$0000000B)
    __rt_lib_shutdown_fini                   0x08000141   Thumb Code     0  entry12b.o(.ARM.Collect$$$$0000000E)
    __rt_final_cpp                           0x08000145   Thumb Code     0  entry10a.o(.ARM.Collect$$$$0000000F)
    __rt_final_exit                          0x08000145   Thumb Code     0  entry11a.o(.ARM.Collect$$$$00000011)
    Reset_Handler                            0x08000149   Thumb Code     8  startup_stm32f10x_hd.o(.text)
    ADC1_2_IRQHandler                        0x08000163   Thumb Code     0  startup_stm32f10x_hd.o(.text)
    ADC3_IRQHandler                          0x08000163   Thumb Code     0  startup_stm32f10x_hd.o(.text)
    CAN1_RX1_IRQHandler                      0x08000163   Thumb Code     0  startup_stm32f10x_hd.o(.text)
    CAN1_SCE_IRQHandler                      0x08000163   Thumb Code     0  startup_stm32f10x_hd.o(.text)
    DMA1_Channel1_IRQHandler                 0x08000163   Thumb Code     0  startup_stm32f10x_hd.o(.text)
    DMA1_Channel2_IRQHandler                 0x08000163   Thumb Code     0  startup_stm32f10x_hd.o(.text)
    DMA1_Channel3_IRQHandler                 0x08000163   Thumb Code     0  startup_stm32f10x_hd.o(.text)
    DMA1_Channel4_IRQHandler                 0x08000163   Thumb Code     0  startup_stm32f10x_hd.o(.text)
    DMA1_Channel6_IRQHandler                 0x08000163   Thumb Code     0  startup_stm32f10x_hd.o(.text)
    DMA1_Channel7_IRQHandler                 0x08000163   Thumb Code     0  startup_stm32f10x_hd.o(.text)
    DMA2_Channel1_IRQHandler                 0x08000163   Thumb Code     0  startup_stm32f10x_hd.o(.text)
    DMA2_Channel2_IRQHandler                 0x08000163   Thumb Code     0  startup_stm32f10x_hd.o(.text)
    DMA2_Channel3_IRQHandler                 0x08000163   Thumb Code     0  startup_stm32f10x_hd.o(.text)
    DMA2_Channel4_5_IRQHandler               0x08000163   Thumb Code     0  startup_stm32f10x_hd.o(.text)
    EXTI0_IRQHandler                         0x08000163   Thumb Code     0  startup_stm32f10x_hd.o(.text)
    EXTI15_10_IRQHandler                     0x08000163   Thumb Code     0  startup_stm32f10x_hd.o(.text)
    EXTI1_IRQHandler                         0x08000163   Thumb Code     0  startup_stm32f10x_hd.o(.text)
    EXTI2_IRQHandler                         0x08000163   Thumb Code     0  startup_stm32f10x_hd.o(.text)
    EXTI3_IRQHandler                         0x08000163   Thumb Code     0  startup_stm32f10x_hd.o(.text)
    EXTI4_IRQHandler                         0x08000163   Thumb Code     0  startup_stm32f10x_hd.o(.text)
    EXTI9_5_IRQHandler                       0x08000163   Thumb Code     0  startup_stm32f10x_hd.o(.text)
    FLASH_IRQHandler                         0x08000163   Thumb Code     0  startup_stm32f10x_hd.o(.text)
    FSMC_IRQHandler                          0x08000163   Thumb Code     0  startup_stm32f10x_hd.o(.text)
    I2C1_ER_IRQHandler                       0x08000163   Thumb Code     0  startup_stm32f10x_hd.o(.text)
    I2C1_EV_IRQHandler                       0x08000163   Thumb Code     0  startup_stm32f10x_hd.o(.text)
    I2C2_ER_IRQHandler                       0x08000163   Thumb Code     0  startup_stm32f10x_hd.o(.text)
    I2C2_EV_IRQHandler                       0x08000163   Thumb Code     0  startup_stm32f10x_hd.o(.text)
    PVD_IRQHandler                           0x08000163   Thumb Code     0  startup_stm32f10x_hd.o(.text)
    RCC_IRQHandler                           0x08000163   Thumb Code     0  startup_stm32f10x_hd.o(.text)
    RTCAlarm_IRQHandler                      0x08000163   Thumb Code     0  startup_stm32f10x_hd.o(.text)
    RTC_IRQHandler                           0x08000163   Thumb Code     0  startup_stm32f10x_hd.o(.text)
    SDIO_IRQHandler                          0x08000163   Thumb Code     0  startup_stm32f10x_hd.o(.text)
    SPI1_IRQHandler                          0x08000163   Thumb Code     0  startup_stm32f10x_hd.o(.text)
    SPI2_IRQHandler                          0x08000163   Thumb Code     0  startup_stm32f10x_hd.o(.text)
    SPI3_IRQHandler                          0x08000163   Thumb Code     0  startup_stm32f10x_hd.o(.text)
    TAMPER_IRQHandler                        0x08000163   Thumb Code     0  startup_stm32f10x_hd.o(.text)
    TIM1_BRK_IRQHandler                      0x08000163   Thumb Code     0  startup_stm32f10x_hd.o(.text)
    TIM1_CC_IRQHandler                       0x08000163   Thumb Code     0  startup_stm32f10x_hd.o(.text)
    TIM1_TRG_COM_IRQHandler                  0x08000163   Thumb Code     0  startup_stm32f10x_hd.o(.text)
    TIM1_UP_IRQHandler                       0x08000163   Thumb Code     0  startup_stm32f10x_hd.o(.text)
    TIM2_IRQHandler                          0x08000163   Thumb Code     0  startup_stm32f10x_hd.o(.text)
    TIM3_IRQHandler                          0x08000163   Thumb Code     0  startup_stm32f10x_hd.o(.text)
    TIM4_IRQHandler                          0x08000163   Thumb Code     0  startup_stm32f10x_hd.o(.text)
    TIM5_IRQHandler                          0x08000163   Thumb Code     0  startup_stm32f10x_hd.o(.text)
    TIM6_IRQHandler                          0x08000163   Thumb Code     0  startup_stm32f10x_hd.o(.text)
    TIM7_IRQHandler                          0x08000163   Thumb Code     0  startup_stm32f10x_hd.o(.text)
    TIM8_BRK_IRQHandler                      0x08000163   Thumb Code     0  startup_stm32f10x_hd.o(.text)
    TIM8_CC_IRQHandler                       0x08000163   Thumb Code     0  startup_stm32f10x_hd.o(.text)
    TIM8_TRG_COM_IRQHandler                  0x08000163   Thumb Code     0  startup_stm32f10x_hd.o(.text)
    TIM8_UP_IRQHandler                       0x08000163   Thumb Code     0  startup_stm32f10x_hd.o(.text)
    UART4_IRQHandler                         0x08000163   Thumb Code     0  startup_stm32f10x_hd.o(.text)
    UART5_IRQHandler                         0x08000163   Thumb Code     0  startup_stm32f10x_hd.o(.text)
    USART2_IRQHandler                        0x08000163   Thumb Code     0  startup_stm32f10x_hd.o(.text)
    USART3_IRQHandler                        0x08000163   Thumb Code     0  startup_stm32f10x_hd.o(.text)
    USBWakeUp_IRQHandler                     0x08000163   Thumb Code     0  startup_stm32f10x_hd.o(.text)
    USB_HP_CAN1_TX_IRQHandler                0x08000163   Thumb Code     0  startup_stm32f10x_hd.o(.text)
    USB_LP_CAN1_RX0_IRQHandler               0x08000163   Thumb Code     0  startup_stm32f10x_hd.o(.text)
    WWDG_IRQHandler                          0x08000163   Thumb Code     0  startup_stm32f10x_hd.o(.text)
    __aeabi_memset                           0x0800016d   Thumb Code    14  memseta.o(.text)
    __aeabi_memset4                          0x0800016d   Thumb Code     0  memseta.o(.text)
    __aeabi_memset8                          0x0800016d   Thumb Code     0  memseta.o(.text)
    __aeabi_memclr                           0x0800017b   Thumb Code     4  memseta.o(.text)
    __aeabi_memclr4                          0x0800017b   Thumb Code     0  memseta.o(.text)
    __aeabi_memclr8                          0x0800017b   Thumb Code     0  memseta.o(.text)
    _memset$wrapper                          0x0800017f   Thumb Code    18  memseta.o(.text)
    __scatterload                            0x08000191   Thumb Code    28  init.o(.text)
    __scatterload_rt2                        0x08000191   Thumb Code     0  init.o(.text)
    BusFault_Handler                         0x080002ef   Thumb Code     4  stm32f10x_it.o(i.BusFault_Handler)
    DMA1_Channel5_IRQHandler                 0x080002f5   Thumb Code    28  spi.o(i.DMA1_Channel5_IRQHandler)
    DMA_ClearFlag                            0x08000315   Thumb Code    18  stm32f10x_dma.o(i.DMA_ClearFlag)
    DMA_ClearITPendingBit                    0x08000331   Thumb Code    18  stm32f10x_dma.o(i.DMA_ClearITPendingBit)
    DMA_Cmd                                  0x0800034d   Thumb Code    24  stm32f10x_dma.o(i.DMA_Cmd)
    DMA_GetFlagStatus                        0x08000365   Thumb Code    36  stm32f10x_dma.o(i.DMA_GetFlagStatus)
    DMA_GetITStatus                          0x08000391   Thumb Code    36  stm32f10x_dma.o(i.DMA_GetITStatus)
    DMA_ITConfig                             0x080003bd   Thumb Code    18  stm32f10x_dma.o(i.DMA_ITConfig)
    DMA_Init                                 0x080003cf   Thumb Code    60  stm32f10x_dma.o(i.DMA_Init)
    DebugMon_Handler                         0x0800040b   Thumb Code     2  stm32f10x_it.o(i.DebugMon_Handler)
    Encoder_Init                             0x0800040d   Thumb Code   152  main.o(i.Encoder_Init)
    GPIO_Init                                0x080004a9   Thumb Code   278  stm32f10x_gpio.o(i.GPIO_Init)
    GPIO_PinRemapConfig                      0x080005c1   Thumb Code   138  stm32f10x_gpio.o(i.GPIO_PinRemapConfig)
    GPIO_ResetBits                           0x08000651   Thumb Code     4  stm32f10x_gpio.o(i.GPIO_ResetBits)
    GPIO_SetBits                             0x08000655   Thumb Code     4  stm32f10x_gpio.o(i.GPIO_SetBits)
    HardFault_Handler                        0x08000659   Thumb Code     4  stm32f10x_it.o(i.HardFault_Handler)
    KEY_Init                                 0x0800065d   Thumb Code    32  main.o(i.KEY_Init)
    LCD_Address_Set                          0x08000681   Thumb Code    66  lcd_init.o(i.LCD_Address_Set)
    LCD_DMA_Fill_COLOR                       0x080006c5   Thumb Code   132  lcd.o(i.LCD_DMA_Fill_COLOR)
    LCD_DMA_color                            0x08000751   Thumb Code    36  sc_lcd.o(i.LCD_DMA_color)
    LCD_DrawPoint                            0x08000775   Thumb Code    28  lcd.o(i.LCD_DrawPoint)
    LCD_GPIO_Init                            0x08000791   Thumb Code    40  lcd_init.o(i.LCD_GPIO_Init)
    LCD_Init                                 0x080007bd   Thumb Code   408  lcd_init.o(i.LCD_Init)
    LCD_WR_DATA                              0x0800095d   Thumb Code    46  lcd_init.o(i.LCD_WR_DATA)
    LCD_WR_DATA8                             0x08000991   Thumb Code    40  lcd_init.o(i.LCD_WR_DATA8)
    LCD_WR_REG                               0x080009bd   Thumb Code    40  lcd_init.o(i.LCD_WR_REG)
    LED_Init                                 0x080009e9   Thumb Code    58  led.o(i.LED_Init)
    MemManage_Handler                        0x08000a2d   Thumb Code     4  stm32f10x_it.o(i.MemManage_Handler)
    NMI_Handler                              0x08000a31   Thumb Code     2  stm32f10x_it.o(i.NMI_Handler)
    NVIC_Init                                0x08000a35   Thumb Code   100  misc.o(i.NVIC_Init)
    PendSV_Handler                           0x08000aa5   Thumb Code     2  stm32f10x_it.o(i.PendSV_Handler)
    RCC_AHBPeriphClockCmd                    0x08000aa9   Thumb Code    26  stm32f10x_rcc.o(i.RCC_AHBPeriphClockCmd)
    RCC_APB1PeriphClockCmd                   0x08000ac9   Thumb Code    26  stm32f10x_rcc.o(i.RCC_APB1PeriphClockCmd)
    RCC_APB1PeriphResetCmd                   0x08000ae9   Thumb Code    26  stm32f10x_rcc.o(i.RCC_APB1PeriphResetCmd)
    RCC_APB2PeriphClockCmd                   0x08000b09   Thumb Code    26  stm32f10x_rcc.o(i.RCC_APB2PeriphClockCmd)
    SC_Clear                                 0x08000b29   Thumb Code    38  sc_gui.o(i.SC_Clear)
    SC_DMA_Send                              0x08000b55   Thumb Code    52  spi.o(i.SC_DMA_Send)
    SC_GUI_Init                              0x08000b95   Thumb Code   112  sc_gui.o(i.SC_GUI_Init)
    SC_GUI_test                              0x08000c15   Thumb Code   716  sc_gui_demo.o(i.SC_GUI_test)
    SC_Refresh                               0x08000f19   Thumb Code   102  sc_lcd.o(i.SC_Refresh)
    SC_arc_sin_cos                           0x08000f85   Thumb Code   202  sc_arc.o(i.SC_arc_sin_cos)
    SC_bilinear_bmp1                         0x0800104f   Thumb Code    96  sc_gui.o(i.SC_bilinear_bmp1)
    SC_chart_put_dat1                        0x080010b1   Thumb Code    40  sc_gui.o(i.SC_chart_put_dat1)
    SC_get_dma_Status                        0x080010dd   Thumb Code    44  spi.o(i.SC_get_dma_Status)
    SC_pfb_DrawArc                           0x0800110d   Thumb Code   192  sc_arc.o(i.SC_pfb_DrawArc)
    SC_pfb_DrawFill                          0x080011d1   Thumb Code   206  sc_gui.o(i.SC_pfb_DrawFill)
    SC_pfb_DrawFrame                         0x080012a5   Thumb Code    88  sc_gui.o(i.SC_pfb_DrawFrame)
    SC_pfb_DrawRound                         0x080012fd   Thumb Code   568  sc_arc.o(i.SC_pfb_DrawRound)
    SC_pfb_Image                             0x08001539   Thumb Code   202  sc_gui.o(i.SC_pfb_Image)
    SC_pfb_Refresh                           0x08001609   Thumb Code   218  sc_lcd.o(i.SC_pfb_Refresh)
    SC_pfb_RoundBar                          0x080016e9   Thumb Code   194  sc_arc.o(i.SC_pfb_RoundBar)
    SC_pfb_RoundFrame                        0x080017b1   Thumb Code   762  sc_arc.o(i.SC_pfb_RoundFrame)
    SC_pfb_chart                             0x08001ab1   Thumb Code   502  sc_gui.o(i.SC_pfb_chart)
    SC_pfb_clip                              0x08001cb5   Thumb Code   204  sc_lcd.o(i.SC_pfb_clip)
    SC_pfb_intersection                      0x08001d89   Thumb Code   116  sc_lcd.o(i.SC_pfb_intersection)
    SC_pfb_label                             0x08001dfd   Thumb Code   372  sc_gui.o(i.SC_pfb_label)
    SC_pfb_lv_letter                         0x08001f75   Thumb Code   438  sc_gui.o(i.SC_pfb_lv_letter)
    SC_pfb_printf                            0x08002131   Thumb Code   204  sc_gui.o(i.SC_pfb_printf)
    SC_set_label                             0x08002201   Thumb Code    28  sc_gui.o(i.SC_set_label)
    SC_transform                             0x08002271   Thumb Code   724  sc_transform.o(i.SC_transform)
    SPI2_Init                                0x08002545   Thumb Code   282  spi.o(i.SPI2_Init)
    SPI2_ReadWriteByte                       0x08002675   Thumb Code    62  spi.o(i.SPI2_ReadWriteByte)
    SPI_Cmd                                  0x080026b9   Thumb Code    24  stm32f10x_spi.o(i.SPI_Cmd)
    SPI_I2S_DMACmd                           0x080026d1   Thumb Code    18  stm32f10x_spi.o(i.SPI_I2S_DMACmd)
    SPI_I2S_GetFlagStatus                    0x080026e3   Thumb Code    18  stm32f10x_spi.o(i.SPI_I2S_GetFlagStatus)
    SPI_I2S_ReceiveData                      0x080026f5   Thumb Code     6  stm32f10x_spi.o(i.SPI_I2S_ReceiveData)
    SPI_I2S_SendData                         0x080026fb   Thumb Code     4  stm32f10x_spi.o(i.SPI_I2S_SendData)
    SPI_Init                                 0x080026ff   Thumb Code    60  stm32f10x_spi.o(i.SPI_Init)
    SVC_Handler                              0x0800273b   Thumb Code     2  stm32f10x_it.o(i.SVC_Handler)
    SysTick_CLKSourceConfig                  0x08002825   Thumb Code    40  misc.o(i.SysTick_CLKSourceConfig)
    SysTick_Handler                          0x0800284d   Thumb Code     2  stm32f10x_it.o(i.SysTick_Handler)
    SystemInit                               0x08002851   Thumb Code    78  system_stm32f10x.o(i.SystemInit)
    TIM_ClearFlag                            0x08002af1   Thumb Code     6  stm32f10x_tim.o(i.TIM_ClearFlag)
    TIM_Cmd                                  0x08002af7   Thumb Code    24  stm32f10x_tim.o(i.TIM_Cmd)
    TIM_EncoderInterfaceConfig               0x08002b0f   Thumb Code    66  stm32f10x_tim.o(i.TIM_EncoderInterfaceConfig)
    TIM_ICInit                               0x08002b51   Thumb Code   150  stm32f10x_tim.o(i.TIM_ICInit)
    TIM_ICStructInit                         0x08002bfd   Thumb Code    18  stm32f10x_tim.o(i.TIM_ICStructInit)
    TIM_ITConfig                             0x08002c0f   Thumb Code    18  stm32f10x_tim.o(i.TIM_ITConfig)
    TIM_SetCounter                           0x08002c21   Thumb Code     4  stm32f10x_tim.o(i.TIM_SetCounter)
    TIM_SetIC1Prescaler                      0x08002c25   Thumb Code    18  stm32f10x_tim.o(i.TIM_SetIC1Prescaler)
    TIM_SetIC2Prescaler                      0x08002c37   Thumb Code    26  stm32f10x_tim.o(i.TIM_SetIC2Prescaler)
    TIM_SetIC3Prescaler                      0x08002c51   Thumb Code    18  stm32f10x_tim.o(i.TIM_SetIC3Prescaler)
    TIM_SetIC4Prescaler                      0x08002c63   Thumb Code    26  stm32f10x_tim.o(i.TIM_SetIC4Prescaler)
    TIM_TimeBaseInit                         0x08002c7d   Thumb Code   122  stm32f10x_tim.o(i.TIM_TimeBaseInit)
    USART1_IRQHandler                        0x08002d21   Thumb Code   122  usart.o(i.USART1_IRQHandler)
    USART_GetITStatus                        0x08002da9   Thumb Code    84  stm32f10x_usart.o(i.USART_GetITStatus)
    USART_ReceiveData                        0x08002dfd   Thumb Code    10  stm32f10x_usart.o(i.USART_ReceiveData)
    UsageFault_Handler                       0x08002e07   Thumb Code     4  stm32f10x_it.o(i.UsageFault_Handler)
    __scatterload_copy                       0x08002e0b   Thumb Code    14  handlers.o(i.__scatterload_copy)
    __scatterload_null                       0x08002e19   Thumb Code     2  handlers.o(i.__scatterload_null)
    __scatterload_zeroinit                   0x08002e1b   Thumb Code    14  handlers.o(i.__scatterload_zeroinit)
    alphaBlend                               0x08002ef5   Thumb Code    72  sc_gui.o(i.alphaBlend)
    delay_init                               0x08002f75   Thumb Code    50  delay.o(i.delay_init)
    delay_ms                                 0x08002fb9   Thumb Code    72  delay.o(i.delay_ms)
    lv_txt_utf8_next                         0x080030e9   Thumb Code   328  sc_gui.o(i.lv_txt_utf8_next)
    main                                     0x08003231   Thumb Code    64  main.o(i.main)
    sc_cos                                   0x080032b1   Thumb Code    20  sc_arc.o(i.sc_cos)
    sc_sin                                   0x080032c5   Thumb Code   106  sc_arc.o(i.sc_sin)
    sc_sqrt                                  0x08003335   Thumb Code    60  sc_arc.o(i.sc_sqrt)
    EDA_png                                  0x08004a04   Data        2048  sc_gui_demo.o(.constdata)
    srcRegion                                0x08005204   Data          20  sc_gui_demo.o(.constdata)
    Region$$Table$$Base                      0x08005218   Number         0  anon$$obj.o(Region$$Table)
    Region$$Table$$Limit                     0x08005238   Number         0  anon$$obj.o(Region$$Table)
    SystemCoreClock                          0x20000000   Data           4  system_stm32f10x.o(.data)
    AHBPrescTable                            0x20000004   Data          16  system_stm32f10x.o(.data)
    tx_len                                   0x20000014   Data           4  spi.o(.data)
    TxBuffer                                 0x20000018   Data           4  spi.o(.data)
    dma_buys                                 0x2000001c   Data           2  spi.o(.data)
    __stdout                                 0x20000024   Data           4  usart.o(.data)
    USART_RX_STA                             0x20000028   Data           2  usart.o(.data)
    gui                                      0x2000002c   Data           4  sc_gui.o(.data)
    lv_font_14                               0x20000054   Data          20  lv_font_14.o(.data)
    test_png                                 0x20000068   Data           8  sc_gui_demo.o(.data)
    USART_RX_BUF                             0x20000074   Data         200  usart.o(.bss)
    SC_pfb_buf                               0x2000013c   Data        4096  sc_gui.o(.bss)
    chart_buf1                               0x2000113c   Data         160  sc_gui.o(.bss)
    out_buf                                  0x200011dc   Data         400  sc_gui.o(.bss)
    __initial_sp                             0x200017a0   Data           0  startup_stm32f10x_hd.o(STACK)



==============================================================================

Memory Map of the image

  Image Entry point : 0x08000131

  Load Region LR_IROM1 (Base: 0x08000000, Size: 0x000052ac, Max: 0x00020000, ABSOLUTE)

    Execution Region ER_IROM1 (Exec base: 0x08000000, Load base: 0x08000000, Size: 0x00005238, Max: 0x00020000, ABSOLUTE)

    Exec Addr    Load Addr    Size         Type   Attr      Idx    E Section Name        Object

    0x08000000   0x08000000   0x00000130   Data   RO          562    RESET               startup_stm32f10x_hd.o
    0x08000130   0x08000130   0x00000000   Code   RO         4610  * .ARM.Collect$$$$00000000  mc_w.l(entry.o)
    0x08000130   0x08000130   0x00000004   Code   RO         4663    .ARM.Collect$$$$00000001  mc_w.l(entry2.o)
    0x08000134   0x08000134   0x00000004   Code   RO         4666    .ARM.Collect$$$$00000004  mc_w.l(entry5.o)
    0x08000138   0x08000138   0x00000000   Code   RO         4668    .ARM.Collect$$$$00000008  mc_w.l(entry7b.o)
    0x08000138   0x08000138   0x00000000   Code   RO         4670    .ARM.Collect$$$$0000000A  mc_w.l(entry8b.o)
    0x08000138   0x08000138   0x00000008   Code   RO         4671    .ARM.Collect$$$$0000000B  mc_w.l(entry9a.o)
    0x08000140   0x08000140   0x00000004   Code   RO         4678    .ARM.Collect$$$$0000000E  mc_w.l(entry12b.o)
    0x08000144   0x08000144   0x00000000   Code   RO         4673    .ARM.Collect$$$$0000000F  mc_w.l(entry10a.o)
    0x08000144   0x08000144   0x00000000   Code   RO         4675    .ARM.Collect$$$$00000011  mc_w.l(entry11a.o)
    0x08000144   0x08000144   0x00000004   Code   RO         4664    .ARM.Collect$$$$00002712  mc_w.l(entry2.o)
    0x08000148   0x08000148   0x00000024   Code   RO          563    .text               startup_stm32f10x_hd.o
    0x0800016c   0x0800016c   0x00000024   Code   RO         4615    .text               mc_w.l(memseta.o)
    0x08000190   0x08000190   0x00000024   Code   RO         4695    .text               mc_w.l(init.o)
    0x080001b4   0x080001b4   0x0000013a   Code   RO         4577    i.Bilinear_Interpolate  sc_transform.o
    0x080002ee   0x080002ee   0x00000004   Code   RO            1    i.BusFault_Handler  stm32f10x_it.o
    0x080002f2   0x080002f2   0x00000002   PAD
    0x080002f4   0x080002f4   0x00000020   Code   RO          470    i.DMA1_Channel5_IRQHandler  spi.o
    0x08000314   0x08000314   0x0000001c   Code   RO         1310    i.DMA_ClearFlag     stm32f10x_dma.o
    0x08000330   0x08000330   0x0000001c   Code   RO         1311    i.DMA_ClearITPendingBit  stm32f10x_dma.o
    0x0800034c   0x0800034c   0x00000018   Code   RO         1312    i.DMA_Cmd           stm32f10x_dma.o
    0x08000364   0x08000364   0x0000002c   Code   RO         1315    i.DMA_GetFlagStatus  stm32f10x_dma.o
    0x08000390   0x08000390   0x0000002c   Code   RO         1316    i.DMA_GetITStatus   stm32f10x_dma.o
    0x080003bc   0x080003bc   0x00000012   Code   RO         1317    i.DMA_ITConfig      stm32f10x_dma.o
    0x080003ce   0x080003ce   0x0000003c   Code   RO         1318    i.DMA_Init          stm32f10x_dma.o
    0x0800040a   0x0800040a   0x00000002   Code   RO            2    i.DebugMon_Handler  stm32f10x_it.o
    0x0800040c   0x0800040c   0x0000009c   Code   RO          134    i.Encoder_Init      main.o
    0x080004a8   0x080004a8   0x00000116   Code   RO         1742    i.GPIO_Init         stm32f10x_gpio.o
    0x080005be   0x080005be   0x00000002   PAD
    0x080005c0   0x080005c0   0x00000090   Code   RO         1744    i.GPIO_PinRemapConfig  stm32f10x_gpio.o
    0x08000650   0x08000650   0x00000004   Code   RO         1749    i.GPIO_ResetBits    stm32f10x_gpio.o
    0x08000654   0x08000654   0x00000004   Code   RO         1750    i.GPIO_SetBits      stm32f10x_gpio.o
    0x08000658   0x08000658   0x00000004   Code   RO            3    i.HardFault_Handler  stm32f10x_it.o
    0x0800065c   0x0800065c   0x00000024   Code   RO          136    i.KEY_Init          main.o
    0x08000680   0x08000680   0x00000042   Code   RO          287    i.LCD_Address_Set   lcd_init.o
    0x080006c2   0x080006c2   0x00000002   PAD
    0x080006c4   0x080006c4   0x0000008c   Code   RO          339    i.LCD_DMA_Fill_COLOR  lcd.o
    0x08000750   0x08000750   0x00000024   Code   RO         4407    i.LCD_DMA_color     sc_lcd.o
    0x08000774   0x08000774   0x0000001c   Code   RO          341    i.LCD_DrawPoint     lcd.o
    0x08000790   0x08000790   0x0000002c   Code   RO          288    i.LCD_GPIO_Init     lcd_init.o
    0x080007bc   0x080007bc   0x000001a0   Code   RO          289    i.LCD_Init          lcd_init.o
    0x0800095c   0x0800095c   0x00000034   Code   RO          290    i.LCD_WR_DATA       lcd_init.o
    0x08000990   0x08000990   0x0000002c   Code   RO          291    i.LCD_WR_DATA8      lcd_init.o
    0x080009bc   0x080009bc   0x0000002c   Code   RO          292    i.LCD_WR_REG        lcd_init.o
    0x080009e8   0x080009e8   0x00000044   Code   RO          275    i.LED_Init          led.o
    0x08000a2c   0x08000a2c   0x00000004   Code   RO            4    i.MemManage_Handler  stm32f10x_it.o
    0x08000a30   0x08000a30   0x00000002   Code   RO            5    i.NMI_Handler       stm32f10x_it.o
    0x08000a32   0x08000a32   0x00000002   PAD
    0x08000a34   0x08000a34   0x00000070   Code   RO          567    i.NVIC_Init         misc.o
    0x08000aa4   0x08000aa4   0x00000002   Code   RO            6    i.PendSV_Handler    stm32f10x_it.o
    0x08000aa6   0x08000aa6   0x00000002   PAD
    0x08000aa8   0x08000aa8   0x00000020   Code   RO         2166    i.RCC_AHBPeriphClockCmd  stm32f10x_rcc.o
    0x08000ac8   0x08000ac8   0x00000020   Code   RO         2167    i.RCC_APB1PeriphClockCmd  stm32f10x_rcc.o
    0x08000ae8   0x08000ae8   0x00000020   Code   RO         2168    i.RCC_APB1PeriphResetCmd  stm32f10x_rcc.o
    0x08000b08   0x08000b08   0x00000020   Code   RO         2169    i.RCC_APB2PeriphClockCmd  stm32f10x_rcc.o
    0x08000b28   0x08000b28   0x0000002c   Code   RO         4267    i.SC_Clear          sc_gui.o
    0x08000b54   0x08000b54   0x00000040   Code   RO          471    i.SC_DMA_Send       spi.o
    0x08000b94   0x08000b94   0x00000080   Code   RO         4268    i.SC_GUI_Init       sc_gui.o
    0x08000c14   0x08000c14   0x00000304   Code   RO         4558    i.SC_GUI_test       sc_gui_demo.o
    0x08000f18   0x08000f18   0x0000006c   Code   RO         4408    i.SC_Refresh        sc_lcd.o
    0x08000f84   0x08000f84   0x000000ca   Code   RO         4480    i.SC_arc_sin_cos    sc_arc.o
    0x0800104e   0x0800104e   0x00000060   Code   RO         4269    i.SC_bilinear_bmp1  sc_gui.o
    0x080010ae   0x080010ae   0x00000002   PAD
    0x080010b0   0x080010b0   0x0000002c   Code   RO         4270    i.SC_chart_put_dat1  sc_gui.o
    0x080010dc   0x080010dc   0x00000030   Code   RO          472    i.SC_get_dma_Status  spi.o
    0x0800110c   0x0800110c   0x000000c4   Code   RO         4481    i.SC_pfb_DrawArc    sc_arc.o
    0x080011d0   0x080011d0   0x000000d4   Code   RO         4272    i.SC_pfb_DrawFill   sc_gui.o
    0x080012a4   0x080012a4   0x00000058   Code   RO         4273    i.SC_pfb_DrawFrame  sc_gui.o
    0x080012fc   0x080012fc   0x0000023c   Code   RO         4482    i.SC_pfb_DrawRound  sc_arc.o
    0x08001538   0x08001538   0x000000d0   Code   RO         4274    i.SC_pfb_Image      sc_gui.o
    0x08001608   0x08001608   0x000000e0   Code   RO         4410    i.SC_pfb_Refresh    sc_lcd.o
    0x080016e8   0x080016e8   0x000000c8   Code   RO         4483    i.SC_pfb_RoundBar   sc_arc.o
    0x080017b0   0x080017b0   0x00000300   Code   RO         4484    i.SC_pfb_RoundFrame  sc_arc.o
    0x08001ab0   0x08001ab0   0x00000204   Code   RO         4275    i.SC_pfb_chart      sc_gui.o
    0x08001cb4   0x08001cb4   0x000000d4   Code   RO         4411    i.SC_pfb_clip       sc_lcd.o
    0x08001d88   0x08001d88   0x00000074   Code   RO         4412    i.SC_pfb_intersection  sc_lcd.o
    0x08001dfc   0x08001dfc   0x00000178   Code   RO         4276    i.SC_pfb_label      sc_gui.o
    0x08001f74   0x08001f74   0x000001bc   Code   RO         4277    i.SC_pfb_lv_letter  sc_gui.o
    0x08002130   0x08002130   0x000000d0   Code   RO         4278    i.SC_pfb_printf     sc_gui.o
    0x08002200   0x08002200   0x0000001c   Code   RO         4280    i.SC_set_label      sc_gui.o
    0x0800221c   0x0800221c   0x00000054   Code   RO         4281    i.SC_set_label_border  sc_gui.o
    0x08002270   0x08002270   0x000002d4   Code   RO         4578    i.SC_transform      sc_transform.o
    0x08002544   0x08002544   0x00000130   Code   RO          474    i.SPI2_Init         spi.o
    0x08002674   0x08002674   0x00000044   Code   RO          475    i.SPI2_ReadWriteByte  spi.o
    0x080026b8   0x080026b8   0x00000018   Code   RO         2652    i.SPI_Cmd           stm32f10x_spi.o
    0x080026d0   0x080026d0   0x00000012   Code   RO         2658    i.SPI_I2S_DMACmd    stm32f10x_spi.o
    0x080026e2   0x080026e2   0x00000012   Code   RO         2660    i.SPI_I2S_GetFlagStatus  stm32f10x_spi.o
    0x080026f4   0x080026f4   0x00000006   Code   RO         2663    i.SPI_I2S_ReceiveData  stm32f10x_spi.o
    0x080026fa   0x080026fa   0x00000004   Code   RO         2664    i.SPI_I2S_SendData  stm32f10x_spi.o
    0x080026fe   0x080026fe   0x0000003c   Code   RO         2665    i.SPI_Init          stm32f10x_spi.o
    0x0800273a   0x0800273a   0x00000002   Code   RO            7    i.SVC_Handler       stm32f10x_it.o
    0x0800273c   0x0800273c   0x00000008   Code   RO           98    i.SetSysClock       system_stm32f10x.o
    0x08002744   0x08002744   0x000000e0   Code   RO           99    i.SetSysClockTo72   system_stm32f10x.o
    0x08002824   0x08002824   0x00000028   Code   RO          571    i.SysTick_CLKSourceConfig  misc.o
    0x0800284c   0x0800284c   0x00000002   Code   RO            8    i.SysTick_Handler   stm32f10x_it.o
    0x0800284e   0x0800284e   0x00000002   PAD
    0x08002850   0x08002850   0x00000060   Code   RO          101    i.SystemInit        system_stm32f10x.o
    0x080028b0   0x080028b0   0x00000080   Code   RO         2791    i.TI1_Config        stm32f10x_tim.o
    0x08002930   0x08002930   0x00000098   Code   RO         2792    i.TI2_Config        stm32f10x_tim.o
    0x080029c8   0x080029c8   0x00000090   Code   RO         2793    i.TI3_Config        stm32f10x_tim.o
    0x08002a58   0x08002a58   0x00000098   Code   RO         2794    i.TI4_Config        stm32f10x_tim.o
    0x08002af0   0x08002af0   0x00000006   Code   RO         2801    i.TIM_ClearFlag     stm32f10x_tim.o
    0x08002af6   0x08002af6   0x00000018   Code   RO         2807    i.TIM_Cmd           stm32f10x_tim.o
    0x08002b0e   0x08002b0e   0x00000042   Code   RO         2816    i.TIM_EncoderInterfaceConfig  stm32f10x_tim.o
    0x08002b50   0x08002b50   0x000000ac   Code   RO         2830    i.TIM_ICInit        stm32f10x_tim.o
    0x08002bfc   0x08002bfc   0x00000012   Code   RO         2831    i.TIM_ICStructInit  stm32f10x_tim.o
    0x08002c0e   0x08002c0e   0x00000012   Code   RO         2832    i.TIM_ITConfig      stm32f10x_tim.o
    0x08002c20   0x08002c20   0x00000004   Code   RO         2872    i.TIM_SetCounter    stm32f10x_tim.o
    0x08002c24   0x08002c24   0x00000012   Code   RO         2873    i.TIM_SetIC1Prescaler  stm32f10x_tim.o
    0x08002c36   0x08002c36   0x0000001a   Code   RO         2874    i.TIM_SetIC2Prescaler  stm32f10x_tim.o
    0x08002c50   0x08002c50   0x00000012   Code   RO         2875    i.TIM_SetIC3Prescaler  stm32f10x_tim.o
    0x08002c62   0x08002c62   0x0000001a   Code   RO         2876    i.TIM_SetIC4Prescaler  stm32f10x_tim.o
    0x08002c7c   0x08002c7c   0x000000a4   Code   RO         2878    i.TIM_TimeBaseInit  stm32f10x_tim.o
    0x08002d20   0x08002d20   0x00000088   Code   RO         3614    i.USART1_IRQHandler  usart.o
    0x08002da8   0x08002da8   0x00000054   Code   RO         3347    i.USART_GetITStatus  stm32f10x_usart.o
    0x08002dfc   0x08002dfc   0x0000000a   Code   RO         3357    i.USART_ReceiveData  stm32f10x_usart.o
    0x08002e06   0x08002e06   0x00000004   Code   RO            9    i.UsageFault_Handler  stm32f10x_it.o
    0x08002e0a   0x08002e0a   0x0000000e   Code   RO         4717    i.__scatterload_copy  mc_w.l(handlers.o)
    0x08002e18   0x08002e18   0x00000002   Code   RO         4718    i.__scatterload_null  mc_w.l(handlers.o)
    0x08002e1a   0x08002e1a   0x0000000e   Code   RO         4719    i.__scatterload_zeroinit  mc_w.l(handlers.o)
    0x08002e28   0x08002e28   0x00000056   Code   RO         4454    i.__user_font_get_bitmap  lv_font_14.o
    0x08002e7e   0x08002e7e   0x00000076   Code   RO         4455    i.__user_font_get_glyph_dsc  lv_font_14.o
    0x08002ef4   0x08002ef4   0x00000048   Code   RO         4282    i.alphaBlend        sc_gui.o
    0x08002f3c   0x08002f3c   0x00000036   Code   RO         4456    i.binsearch         lv_font_14.o
    0x08002f72   0x08002f72   0x00000002   PAD
    0x08002f74   0x08002f74   0x00000044   Code   RO         3576    i.delay_init        delay.o
    0x08002fb8   0x08002fb8   0x0000004c   Code   RO         3577    i.delay_ms          delay.o
    0x08003004   0x08003004   0x000000a8   Code   RO         4283    i.get_bpp_value     sc_gui.o
    0x080030ac   0x080030ac   0x0000003c   Code   RO         4284    i.lv_get_glyph_dsc  sc_gui.o
    0x080030e8   0x080030e8   0x00000148   Code   RO         4285    i.lv_txt_utf8_next  sc_gui.o
    0x08003230   0x08003230   0x00000048   Code   RO          139    i.main              main.o
    0x08003278   0x08003278   0x00000038   Code   RO         4487    i.sc_atan2_slope    sc_arc.o
    0x080032b0   0x080032b0   0x00000014   Code   RO         4488    i.sc_cos            sc_arc.o
    0x080032c4   0x080032c4   0x00000070   Code   RO         4489    i.sc_sin            sc_arc.o
    0x08003334   0x08003334   0x0000003c   Code   RO         4490    i.sc_sqrt           sc_arc.o
    0x08003370   0x08003370   0x000015dc   Data   RO         4457    .constdata          lv_font_14.o
    0x0800494c   0x0800494c   0x000000b6   Data   RO         4491    .constdata          sc_arc.o
    0x08004a02   0x08004a02   0x00000002   PAD
    0x08004a04   0x08004a04   0x00000814   Data   RO         4559    .constdata          sc_gui_demo.o
    0x08005218   0x08005218   0x00000020   Data   RO         4715    Region$$Table       anon$$obj.o


    Execution Region RW_IRAM1 (Exec base: 0x20000000, Load base: 0x08005238, Size: 0x000017a0, Max: 0x00005000, ABSOLUTE)

    Exec Addr    Load Addr    Size         Type   Attr      Idx    E Section Name        Object

    0x20000000   0x08005238   0x00000014   Data   RW          102    .data               system_stm32f10x.o
    0x20000014   0x0800524c   0x0000000a   Data   RW          476    .data               spi.o
    0x2000001e   0x08005256   0x00000004   Data   RW         3579    .data               delay.o
    0x20000022   0x0800525a   0x00000002   PAD
    0x20000024   0x0800525c   0x00000006   Data   RW         3619    .data               usart.o
    0x2000002a   0x08005262   0x00000002   PAD
    0x2000002c   0x08005264   0x00000004   Data   RW         4287    .data               sc_gui.o
    0x20000030   0x08005268   0x00000002   Data   RW         4413    .data               sc_lcd.o
    0x20000032   0x0800526a   0x00000002   PAD
    0x20000034   0x0800526c   0x00000034   Data   RW         4458    .data               lv_font_14.o
    0x20000068   0x080052a0   0x0000000c   Data   RW         4560    .data               sc_gui_demo.o
    0x20000074        -       0x000000c8   Zero   RW         3618    .bss                usart.o
    0x2000013c        -       0x00001260   Zero   RW         4286    .bss                sc_gui.o
    0x2000139c   0x080052ac   0x00000004   PAD
    0x200013a0        -       0x00000400   Zero   RW          560    STACK               startup_stm32f10x_hd.o


==============================================================================

Image component sizes


      Code (inc. data)   RO Data    RW Data    ZI Data      Debug   Object Name

         0          0          0          0          0         32   core_cm3.o
       144         22          0          4          0       1156   delay.o
       168          8          0          0          0      11661   lcd.o
       666         26          0          0          0       3379   lcd_init.o
        68         10          0          0          0        483   led.o
       258          0       5596         52          0       3017   lv_font_14.o
       264         16          0          0          0     232085   main.o
       152         12          0          0          0       1502   misc.o
      2186         30        182          0          0       9031   sc_arc.o
      3104         66          0          4       4704      22732   sc_gui.o
       772         56       2068         12          0       1759   sc_gui_demo.o
       696         20          0          2          0       5548   sc_lcd.o
      1038          0          0          0          0       3527   sc_transform.o
       516         48          0         10          0       3381   spi.o
        36          8        304          0       1024        784   startup_stm32f10x_hd.o
       246         36          0          0          0       5510   stm32f10x_dma.o
       430          6          0          0          0       3802   stm32f10x_gpio.o
        26          0          0          0          0      22474   stm32f10x_it.o
       128         24          0          0          0       2223   stm32f10x_rcc.o
       130          0          0          0          0       4327   stm32f10x_spi.o
      1136        150          0          0          0      10454   stm32f10x_tim.o
        94          0          0          0          0       2692   stm32f10x_usart.o
       328         26          0         20          0       2017   system_stm32f10x.o
       136         14          0          6        200       2392   usart.o

    ----------------------------------------------------------------------
     12738        578       8184        116       5932     355968   Object Totals
         0          0         32          0          0          0   (incl. Generated)
        16          0          2          6          4          0   (incl. Padding)

    ----------------------------------------------------------------------

      Code (inc. data)   RO Data    RW Data    ZI Data      Debug   Library Member Name

         0          0          0          0          0          0   entry.o
         0          0          0          0          0          0   entry10a.o
         0          0          0          0          0          0   entry11a.o
         4          0          0          0          0          0   entry12b.o
         8          4          0          0          0          0   entry2.o
         4          0          0          0          0          0   entry5.o
         0          0          0          0          0          0   entry7b.o
         0          0          0          0          0          0   entry8b.o
         8          4          0          0          0          0   entry9a.o
        30          0          0          0          0          0   handlers.o
        36          8          0          0          0         68   init.o
        36          0          0          0          0        108   memseta.o

    ----------------------------------------------------------------------
       126         16          0          0          0        176   Library Totals
         0          0          0          0          0          0   (incl. Padding)

    ----------------------------------------------------------------------

      Code (inc. data)   RO Data    RW Data    ZI Data      Debug   Library Name

       126         16          0          0          0        176   mc_w.l

    ----------------------------------------------------------------------
       126         16          0          0          0        176   Library Totals

    ----------------------------------------------------------------------

==============================================================================


      Code (inc. data)   RO Data    RW Data    ZI Data      Debug   

     12864        594       8184        116       5932     350784   Grand Totals
     12864        594       8184        116       5932     350784   ELF Image Totals
     12864        594       8184        116          0          0   ROM Totals

==============================================================================

    Total RO  Size (Code + RO Data)                21048 (  20.55kB)
    Total RW  Size (RW Data + ZI Data)              6048 (   5.91kB)
    Total ROM Size (Code + RO Data + RW Data)      21164 (  20.67kB)

==============================================================================

