Component: ARM Compiler 5.06 update 4 (build 422) Tool: armlink [4d35d2]

==============================================================================

Section Cross References

    system_stm32f10x.o(i.SetSysClock) refers to system_stm32f10x.o(i.SetSysClockTo72) for SetSysClockTo72
    system_stm32f10x.o(i.SystemCoreClockUpdate) refers to system_stm32f10x.o(.data) for SystemCoreClock
    system_stm32f10x.o(i.SystemInit) refers to system_stm32f10x.o(i.SetSysClock) for SetSysClock
    main.o(i.Show_file) refers to diskio.o(i.disk_initialize) for disk_initialize
    main.o(i.Show_file) refers to ff.o(i.f_mount) for f_mount
    main.o(i.Show_file) refers to ff.o(i.f_open) for f_open
    main.o(i.Show_file) refers to lcd.o(i.LCD_ShowString) for LCD_ShowString
    main.o(i.Show_file) refers to ff.o(i.f_gets) for f_gets
    main.o(i.Show_file) refers to strlen.o(.text) for strlen
    main.o(i.Show_picture) refers to diskio.o(i.disk_initialize) for disk_initialize
    main.o(i.Show_picture) refers to ff.o(i.f_mount) for f_mount
    main.o(i.Show_picture) refers to ff.o(i.f_open) for f_open
    main.o(i.Show_picture) refers to ff.o(i.f_read) for f_read
    main.o(i.Show_picture) refers to lcd.o(i.LCD_ShowPicture) for LCD_ShowPicture
    main.o(i.main) refers to misc.o(i.NVIC_SetVectorTable) for NVIC_SetVectorTable
    main.o(i.main) refers to delay.o(i.delay_init) for delay_init
    main.o(i.main) refers to led.o(i.LED_Init) for LED_Init
    main.o(i.main) refers to lcd_init.o(i.LCD_Init) for LCD_Init
==============================================================================

Removing Unused input sections from the image.

    Removing system_stm32f10x.o(i.SystemCoreClockUpdate), (164 bytes).
    Removing lcd_init.o(i.delay), (12 bytes).
    Removing lcd.o(i.Draw_Circle), (158 bytes).
    Removing lcd.o(i.LCD_DrawRectangle), (74 bytes).
    Removing lcd.o(i.LCD_ShowChinese), (140 bytes).
    Removing lcd.o(i.LCD_ShowChinese12x12), (328 bytes).
    Removing lcd.o(i.LCD_ShowChinese16x16), (312 bytes).
    Removing lcd.o(i.LCD_ShowChinese24x24), (328 bytes).
    Removing lcd.o(i.LCD_ShowChinese32x32), (312 bytes).
    Removing lcd.o(i.LCD_ShowFloatNum1), (164 bytes).
    Removing spi.o(i.SPI1_Init), (140 bytes).
    Removing core_cm3.o(.emb_text), (32 bytes).
    Removing startup_stm32f10x_hd.o(HEAP), (512 bytes).
    Removing misc.o(i.NVIC_Init), (112 bytes).
    Removing misc.o(i.NVIC_PriorityGroupConfig), (20 bytes).
    Removing misc.o(i.NVIC_SystemLPConfig), (32 bytes).
    Removing stm32f10x_adc.o(i.ADC_AnalogWatchdogCmd), (20 bytes).
    Removing stm32f10x_adc.o(i.ADC_AnalogWatchdogSingleChannelConfig), (16 bytes).
==============================================================================

Image Symbol Table

    Local Symbols

    Symbol Name                              Value     Ov Type        Size  Object(Section)

    ../clib/microlib/errno.c                 0x00000000   Number         0  errno.o ABSOLUTE
    ../clib/microlib/init/entry.s            0x00000000   Number         0  entry8b.o ABSOLUTE
    ../clib/microlib/init/entry.s            0x00000000   Number         0  entry2.o ABSOLUTE
    ../clib/microlib/init/entry.s            0x00000000   Number         0  entry5.o ABSOLUTE
    ../clib/microlib/init/entry.s            0x00000000   Number         0  entry10a.o ABSOLUTE
    ../clib/microlib/init/entry.s            0x00000000   Number         0  entry8a.o ABSOLUTE
    ../clib/microlib/init/entry.s            0x00000000   Number         0  entry9b.o ABSOLUTE
    ../clib/microlib/init/entry.s            0x00000000   Number         0  entry.o ABSOLUTE
    ../clib/microlib/init/entry.s            0x00000000   Number         0  entry11a.o ABSOLUTE
    ../clib/microlib/init/entry.s            0x00000000   Number         0  entry11b.o ABSOLUTE
    ../clib/microlib/init/entry.s            0x00000000   Number         0  entry7b.o ABSOLUTE
    ../clib/microlib/init/entry.s            0x00000000   Number         0  entry9a.o ABSOLUTE
    ../clib/microlib/init/entry.s            0x00000000   Number         0  entry10b.o ABSOLUTE
    ../clib/microlib/init/entry.s            0x00000000   Number         0  entry7a.o ABSOLUTE
    ../clib/microlib/longlong.c              0x00000000   Number         0  llushr.o ABSOLUTE
    ../clib/microlib/longlong.c              0x00000000   Number         0  llshl.o ABSOLUTE
    ../clib/microlib/longlong.c              0x00000000   Number         0  llsshr.o ABSOLUTE
    ../clib/microlib/string/memcpy.c         0x00000000   Number         0  memcpyb.o ABSOLUTE
    ../clib/microlib/string/memcpy.c         0x00000000   Number         0  memcpya.o ABSOLUTE
    ../clib/microlib/string/strlen.c         0x00000000   Number         0  strlen.o ABSOLUTE
    ../clib/microlib/stubs.s                 0x00000000   Number         0  iusefp.o ABSOLUTE
    ../clib/microlib/stubs.s                 0x00000000   Number         0  useno.o ABSOLUTE
    ../fplib/microlib/d2f.c                  0x00000000   Number         0  d2f.o ABSOLUTE
    ../fplib/microlib/f2d.c                  0x00000000   Number         0  f2d.o ABSOLUTE
    ../fplib/microlib/fpadd.c                0x00000000   Number         0  dadd.o ABSOLUTE
    ../fplib/microlib/fpadd.c                0x00000000   Number         0  fadd.o ABSOLUTE
    ../fplib/microlib/fpdiv.c                0x00000000   Number         0  ddiv.o ABSOLUTE
    ../fplib/microlib/fpepilogue.c           0x00000000   Number         0  depilogue.o ABSOLUTE
    ../fplib/microlib/fpepilogue.c           0x00000000   Number         0  fepilogue.o ABSOLUTE
    ../fplib/microlib/fpfix.c                0x00000000   Number         0  ffixui.o ABSOLUTE
    ../fplib/microlib/fpfix.c                0x00000000   Number         0  dfixi.o ABSOLUTE
    ../fplib/microlib/fpflt.c                0x00000000   Number         0  dfltui.o ABSOLUTE
    ../fplib/microlib/fpflt.c                0x00000000   Number         0  dflti.o ABSOLUTE
    ../fplib/microlib/fpflt.c                0x00000000   Number         0  fflti.o ABSOLUTE
    ../fplib/microlib/fpmul.c                0x00000000   Number         0  fmul.o ABSOLUTE
    ../fplib/microlib/fpmul.c                0x00000000   Number         0  dmul.o ABSOLUTE
    ../fplib/microlib/fpscalb.c              0x00000000   Number         0  dscalb.o ABSOLUTE
    ../mathlib/cos.c                         0x00000000   Number         0  cos.o ABSOLUTE
    ../mathlib/cos.c                         0x00000000   Number         0  cos_x.o ABSOLUTE
    ../mathlib/cos_i.c                       0x00000000   Number         0  cos_i.o ABSOLUTE
    ../mathlib/dunder.c                      0x00000000   Number         0  dunder.o ABSOLUTE
    ../mathlib/fpclassify.c                  0x00000000   Number         0  fpclassify.o ABSOLUTE
    ../mathlib/poly.c                        0x00000000   Number         0  poly.o ABSOLUTE
    ../mathlib/rred.c                        0x00000000   Number         0  rred.o ABSOLUTE
    ../mathlib/sin.c                         0x00000000   Number         0  sin_x.o ABSOLUTE
    ../mathlib/sin.c                         0x00000000   Number         0  sin.o ABSOLUTE
    ../mathlib/sin_i.c                       0x00000000   Number         0  sin_i_x.o ABSOLUTE
    ../mathlib/sin_i.c                       0x00000000   Number         0  sin_i.o ABSOLUTE
    ..\3D\3D.c                               0x00000000   Number         0  3d.o ABSOLUTE
    ..\CORE\core_cm3.c                       0x00000000   Number         0  core_cm3.o ABSOLUTE
    ..\CORE\startup_stm32f10x_hd.s           0x00000000   Number         0  startup_stm32f10x_hd.o ABSOLUTE
    ..\FATFS\diskio.c                        0x00000000   Number         0  diskio.o ABSOLUTE
    ..\FATFS\ff.c                            0x00000000   Number         0  ff.o ABSOLUTE
    ..\HARDWARE\DMA\dma.c                    0x00000000   Number         0  dma.o ABSOLUTE
    ..\HARDWARE\LCD\lcd.c                    0x00000000   Number         0  lcd.o ABSOLUTE
    ..\HARDWARE\LCD\lcd_init.c               0x00000000   Number         0  lcd_init.o ABSOLUTE
    ..\HARDWARE\LED\led.c                    0x00000000   Number         0  led.o ABSOLUTE
    ..\HARDWARE\SPI\spi.c                    0x00000000   Number         0  spi.o ABSOLUTE
    ..\MALLOC\malloc.c                       0x00000000   Number         0  malloc.o ABSOLUTE
    ..\SD\sd.c                               0x00000000   Number         0  sd.o ABSOLUTE
    ..\STM32F10x_FWLib\src\misc.c            0x00000000   Number         0  misc.o ABSOLUTE
    ..\STM32F10x_FWLib\src\stm32f10x_adc.c   0x00000000   Number         0  stm32f10x_adc.o ABSOLUTE
    ..\STM32F10x_FWLib\src\stm32f10x_bkp.c   0x00000000   Number         0  stm32f10x_bkp.o ABSOLUTE
    ..\STM32F10x_FWLib\src\stm32f10x_can.c   0x00000000   Number         0  stm32f10x_can.o ABSOLUTE
    ..\STM32F10x_FWLib\src\stm32f10x_cec.c   0x00000000   Number         0  stm32f10x_cec.o ABSOLUTE
    ..\STM32F10x_FWLib\src\stm32f10x_crc.c   0x00000000   Number         0  stm32f10x_crc.o ABSOLUTE
    ..\STM32F10x_FWLib\src\stm32f10x_dac.c   0x00000000   Number         0  stm32f10x_dac.o ABSOLUTE
    ..\STM32F10x_FWLib\src\stm32f10x_dbgmcu.c 0x00000000   Number         0  stm32f10x_dbgmcu.o ABSOLUTE
    ..\STM32F10x_FWLib\src\stm32f10x_dma.c   0x00000000   Number         0  stm32f10x_dma.o ABSOLUTE
    ..\STM32F10x_FWLib\src\stm32f10x_exti.c  0x00000000   Number         0  stm32f10x_exti.o ABSOLUTE
    ..\STM32F10x_FWLib\src\stm32f10x_flash.c 0x00000000   Number         0  stm32f10x_flash.o ABSOLUTE
    ..\STM32F10x_FWLib\src\stm32f10x_fsmc.c  0x00000000   Number         0  stm32f10x_fsmc.o ABSOLUTE
    ..\STM32F10x_FWLib\src\stm32f10x_gpio.c  0x00000000   Number         0  stm32f10x_gpio.o ABSOLUTE
    ..\STM32F10x_FWLib\src\stm32f10x_i2c.c   0x00000000   Number         0  stm32f10x_i2c.o ABSOLUTE
    ..\STM32F10x_FWLib\src\stm32f10x_iwdg.c  0x00000000   Number         0  stm32f10x_iwdg.o ABSOLUTE
    ..\STM32F10x_FWLib\src\stm32f10x_pwr.c   0x00000000   Number         0  stm32f10x_pwr.o ABSOLUTE
    ..\STM32F10x_FWLib\src\stm32f10x_rcc.c   0x00000000   Number         0  stm32f10x_rcc.o ABSOLUTE
    ..\STM32F10x_FWLib\src\stm32f10x_rtc.c   0x00000000   Number         0  stm32f10x_rtc.o ABSOLUTE
    ..\STM32F10x_FWLib\src\stm32f10x_sdio.c  0x00000000   Number         0  stm32f10x_sdio.o ABSOLUTE
    ..\STM32F10x_FWLib\src\stm32f10x_spi.c   0x00000000   Number         0  stm32f10x_spi.o ABSOLUTE
    ..\STM32F10x_FWLib\src\stm32f10x_tim.c   0x00000000   Number         0  stm32f10x_tim.o ABSOLUTE
    ..\STM32F10x_FWLib\src\stm32f10x_usart.c 0x00000000   Number         0  stm32f10x_usart.o ABSOLUTE
    ..\STM32F10x_FWLib\src\stm32f10x_wwdg.c  0x00000000   Number         0  stm32f10x_wwdg.o ABSOLUTE
    ..\SYSTEM\delay\delay.c                  0x00000000   Number         0  delay.o ABSOLUTE
    ..\SYSTEM\sys\sys.c                      0x00000000   Number         0  sys.o ABSOLUTE
    ..\SYSTEM\usart\usart.c                  0x00000000   Number         0  usart.o ABSOLUTE
    ..\\CORE\\core_cm3.c                     0x00000000   Number         0  core_cm3.o ABSOLUTE
    dc.s                                     0x00000000   Number         0  dc.o ABSOLUTE
    handlers.s                               0x00000000   Number         0  handlers.o ABSOLUTE
    init.s                                   0x00000000   Number         0  init.o ABSOLUTE
    main.c                                   0x00000000   Number         0  main.o ABSOLUTE
    stm32f10x_it.c                           0x00000000   Number         0  stm32f10x_it.o ABSOLUTE
    system_stm32f10x.c                       0x00000000   Number         0  system_stm32f10x.o ABSOLUTE
    RESET                                    0x08008d00   Section      304  startup_stm32f10x_hd.o(RESET)
    .ARM.Collect$$$$00000000                 0x08008e30   Section        0  entry.o(.ARM.Collect$$$$00000000)
    .ARM.Collect$$$$00000001                 0x08008e30   Section        4  entry2.o(.ARM.Collect$$$$00000001)
    .ARM.Collect$$$$00000004                 0x08008e34   Section        4  entry5.o(.ARM.Collect$$$$00000004)
    .ARM.Collect$$$$00000008                 0x08008e38   Section        0  entry7b.o(.ARM.Collect$$$$00000008)
    .ARM.Collect$$$$0000000A                 0x08008e38   Section        0  entry8b.o(.ARM.Collect$$$$0000000A)
    .ARM.Collect$$$$0000000B                 0x08008e38   Section        8  entry9a.o(.ARM.Collect$$$$0000000B)
    .ARM.Collect$$$$0000000D                 0x08008e40   Section        0  entry10a.o(.ARM.Collect$$$$0000000D)
    .ARM.Collect$$$$0000000F                 0x08008e40   Section        0  entry11a.o(.ARM.Collect$$$$0000000F)
    .ARM.Collect$$$$00002712                 0x08008e40   Section        4  entry2.o(.ARM.Collect$$$$00002712)
    __lit__00000000                          0x08008e40   Data           4  entry2.o(.ARM.Collect$$$$00002712)
    .text                                    0x08008e44   Section       36  startup_stm32f10x_hd.o(.text)
    .text                                    0x08008e68   Section        0  memcpya.o(.text)
    .text                                    0x08008e8c   Section        0  strlen.o(.text)
    .text                                    0x08008e9a   Section        0  fadd.o(.text)
    .text                                    0x08008f4a   Section        0  fmul.o(.text)
    .text                                    0x08008fae   Section        0  ddiv.o(.text)
    .text                                    0x0800908c   Section        0  fflti.o(.text)
    .text                                    0x0800909e   Section        0  ffixui.o(.text)
    .text                                    0x080090c6   Section        0  f2d.o(.text)
    .text                                    0x080090ec   Section        0  d2f.o(.text)
    .text                                    0x08009124   Section        0  fepilogue.o(.text)
    .text                                    0x08009124   Section        0  iusefp.o(.text)
    .text                                    0x08009192   Section        0  depilogue.o(.text)
    .text                                    0x0800924c   Section       36  init.o(.text)
    .text                                    0x08009270   Section        0  llshl.o(.text)
    .text                                    0x0800928e   Section        0  llushr.o(.text)
    .text                                    0x080092ae   Section        0  dadd.o(.text)
    .text                                    0x080093fc   Section        0  dmul.o(.text)
    .text                                    0x080094e0   Section        0  dscalb.o(.text)
    .text                                    0x0800950e   Section        0  dflti.o(.text)
    .text                                    0x08009530   Section        0  dfltui.o(.text)
    .text                                    0x0800954a   Section        0  dfixi.o(.text)
    .text                                    0x08009588   Section        0  llsshr.o(.text)
    i.BusFault_Handler                       0x080095ac   Section        0  stm32f10x_it.o(i.BusFault_Handler)
    i.DMA_ClearFlag                          0x080095b0   Section        0  stm32f10x_dma.o(i.DMA_ClearFlag)
    i.DMA_Cmd                                0x080095cc   Section        0  stm32f10x_dma.o(i.DMA_Cmd)
    i.DMA_DeInit                             0x080095e4   Section        0  stm32f10x_dma.o(i.DMA_DeInit)
    i.DMA_GetFlagStatus                      0x08009730   Section        0  stm32f10x_dma.o(i.DMA_GetFlagStatus)
    i.DMA_Init                               0x0800975c   Section        0  stm32f10x_dma.o(i.DMA_Init)
    i.DMA_SetCurrDataCounter                 0x08009798   Section        0  stm32f10x_dma.o(i.DMA_SetCurrDataCounter)
    i.DebugMon_Handler                       0x0800979c   Section        0  stm32f10x_it.o(i.DebugMon_Handler)
    i.Draw_Cube                              0x080097a0   Section        0  3d.o(i.Draw_Cube)
    i.GPIO_Init                              0x080098c8   Section        0  stm32f10x_gpio.o(i.GPIO_Init)
    i.GPIO_PinRemapConfig                    0x080099e0   Section        0  stm32f10x_gpio.o(i.GPIO_PinRemapConfig)
    i.GPIO_ResetBits                         0x08009a70   Section        0  stm32f10x_gpio.o(i.GPIO_ResetBits)
    i.GPIO_SetBits                           0x08009a74   Section        0  stm32f10x_gpio.o(i.GPIO_SetBits)
    i.HardFault_Handler                      0x08009a78   Section        0  stm32f10x_it.o(i.HardFault_Handler)
    i.LCD_Address_Set                        0x08009a7c   Section        0  lcd_init.o(i.LCD_Address_Set)
    i.LCD_DrawLine                           0x08009abe   Section        0  lcd.o(i.LCD_DrawLine)
    i.LCD_DrawPoint                          0x08009b6a   Section        0  lcd.o(i.LCD_DrawPoint)
    i.LCD_Fill                               0x08009b88   Section        0  lcd.o(i.LCD_Fill)
    i.LCD_GPIO_Init                          0x08009c84   Section        0  lcd_init.o(i.LCD_GPIO_Init)
    i.LCD_Init                               0x08009cb0   Section        0  lcd_init.o(i.LCD_Init)
    i.LCD_ShowBMP                            0x08009e50   Section        0  lcd.o(i.LCD_ShowBMP)
    i.LCD_ShowChar                           0x08009ed4   Section        0  lcd.o(i.LCD_ShowChar)
    i.LCD_ShowIntNum                         0x0800a02c   Section        0  lcd.o(i.LCD_ShowIntNum)
    i.LCD_ShowPicture                        0x0800a0c4   Section        0  lcd.o(i.LCD_ShowPicture)
    i.LCD_ShowString                         0x0800a17c   Section        0  lcd.o(i.LCD_ShowString)
    i.LCD_WR_DATA                            0x0800a1c0   Section        0  lcd_init.o(i.LCD_WR_DATA)
    i.LCD_WR_DATA8                           0x0800a1f4   Section        0  lcd_init.o(i.LCD_WR_DATA8)
    i.LCD_WR_REG                             0x0800a220   Section        0  lcd_init.o(i.LCD_WR_REG)
    i.LED_Init                               0x0800a24c   Section        0  led.o(i.LED_Init)
    i.MYDMA_Config                           0x0800a290   Section        0  dma.o(i.MYDMA_Config)
    i.MYDMA_Config1                          0x0800a2ec   Section        0  dma.o(i.MYDMA_Config1)
    i.MYDMA_Enable                           0x0800a34c   Section        0  dma.o(i.MYDMA_Enable)
    i.MemManage_Handler                      0x0800a374   Section        0  stm32f10x_it.o(i.MemManage_Handler)
    i.NMI_Handler                            0x0800a378   Section        0  stm32f10x_it.o(i.NMI_Handler)
    i.NVIC_SetVectorTable                    0x0800a37c   Section        0  misc.o(i.NVIC_SetVectorTable)
    i.PendSV_Handler                         0x0800a390   Section        0  stm32f10x_it.o(i.PendSV_Handler)
    i.RCC_AHBPeriphClockCmd                  0x0800a394   Section        0  stm32f10x_rcc.o(i.RCC_AHBPeriphClockCmd)
    i.RCC_APB1PeriphClockCmd                 0x0800a3b4   Section        0  stm32f10x_rcc.o(i.RCC_APB1PeriphClockCmd)
    i.RCC_APB1PeriphResetCmd                 0x0800a3d4   Section        0  stm32f10x_rcc.o(i.RCC_APB1PeriphResetCmd)
    i.RCC_APB2PeriphClockCmd                 0x0800a3f4   Section        0  stm32f10x_rcc.o(i.RCC_APB2PeriphClockCmd)
    i.RCC_APB2PeriphResetCmd                 0x0800a414   Section        0  stm32f10x_rcc.o(i.RCC_APB2PeriphResetCmd)
    i.SD_DisSelect                           0x0800a434   Section        0  sd.o(i.SD_DisSelect)
    i.SD_GetCSD                              0x0800a454   Section        0  sd.o(i.SD_GetCSD)
    i.SD_GetResponse                         0x0800a47e   Section        0  sd.o(i.SD_GetResponse)
    i.SD_GetSectorCount                      0x0800a4a4   Section        0  sd.o(i.SD_GetSectorCount)
    i.SD_Initialize                          0x0800a51c   Section        0  sd.o(i.SD_Initialize)
    i.SD_ReadDisk                            0x0800a6a4   Section        0  sd.o(i.SD_ReadDisk)
    i.SD_RecvData                            0x0800a718   Section        0  sd.o(i.SD_RecvData)
    i.SD_SPI_Init                            0x0800a750   Section        0  sd.o(i.SD_SPI_Init)
    i.SD_SPI_ReadWriteByte                   0x0800a784   Section        0  sd.o(i.SD_SPI_ReadWriteByte)
    i.SD_SPI_SpeedHigh                       0x0800a794   Section        0  sd.o(i.SD_SPI_SpeedHigh)
    i.SD_SPI_SpeedLow                        0x0800a80c   Section        0  sd.o(i.SD_SPI_SpeedLow)
    i.SD_Select                              0x0800a888   Section        0  sd.o(i.SD_Select)
    i.SD_SendBlock                           0x0800a8b4   Section        0  sd.o(i.SD_SendBlock)
    i.SD_SendCmd                             0x0800a906   Section        0  sd.o(i.SD_SendCmd)
    i.SD_WaitReady                           0x0800a97e   Section        0  sd.o(i.SD_WaitReady)
    i.SD_WriteDisk                           0x0800a9a0   Section        0  sd.o(i.SD_WriteDisk)
    i.SPI2_Init                              0x0800aa30   Section        0  spi.o(i.SPI2_Init)
    i.SPI2_ReadWriteByte                     0x0800aadc   Section        0  spi.o(i.SPI2_ReadWriteByte)
    i.SPI_Cmd                                0x0800ab14   Section        0  stm32f10x_spi.o(i.SPI_Cmd)
    i.SPI_I2S_DMACmd                         0x0800ab2c   Section        0  stm32f10x_spi.o(i.SPI_I2S_DMACmd)
    i.SPI_I2S_DeInit                         0x0800ab40   Section        0  stm32f10x_spi.o(i.SPI_I2S_DeInit)
    i.SPI_I2S_GetFlagStatus                  0x0800ab98   Section        0  stm32f10x_spi.o(i.SPI_I2S_GetFlagStatus)
    i.SPI_I2S_ReceiveData                    0x0800abaa   Section        0  stm32f10x_spi.o(i.SPI_I2S_ReceiveData)
    i.SPI_I2S_SendData                       0x0800abb0   Section        0  stm32f10x_spi.o(i.SPI_I2S_SendData)
    i.SPI_Init                               0x0800abb4   Section        0  stm32f10x_spi.o(i.SPI_Init)
    i.SVC_Handler                            0x0800abf0   Section        0  stm32f10x_it.o(i.SVC_Handler)
    i.SetSysClock                            0x0800abf2   Section        0  system_stm32f10x.o(i.SetSysClock)
    SetSysClock                              0x0800abf3   Thumb Code     8  system_stm32f10x.o(i.SetSysClock)
    i.SetSysClockTo72                        0x0800abfc   Section        0  system_stm32f10x.o(i.SetSysClockTo72)
    SetSysClockTo72                          0x0800abfd   Thumb Code   216  system_stm32f10x.o(i.SetSysClockTo72)
    i.Show_BMP                               0x0800acdc   Section        0  lcd.o(i.Show_BMP)
    i.Show_file                              0x0800ad00   Section        0  main.o(i.Show_file)
    i.Show_picture                           0x0800adbc   Section        0  main.o(i.Show_picture)
    i.SysTick_CLKSourceConfig                0x0800ae30   Section        0  misc.o(i.SysTick_CLKSourceConfig)
    i.SysTick_Handler                        0x0800ae58   Section        0  stm32f10x_it.o(i.SysTick_Handler)
    i.SystemInit                             0x0800ae5c   Section        0  system_stm32f10x.o(i.SystemInit)
    i.USART1_IRQHandler                      0x0800aebc   Section        0  usart.o(i.USART1_IRQHandler)
    i.USART_GetITStatus                      0x0800af44   Section        0  stm32f10x_usart.o(i.USART_GetITStatus)
    i.USART_ReceiveData                      0x0800af98   Section        0  stm32f10x_usart.o(i.USART_ReceiveData)
    i.UsageFault_Handler                     0x0800afa2   Section        0  stm32f10x_it.o(i.UsageFault_Handler)
    i.__ARM_fpclassify                       0x0800afa6   Section        0  fpclassify.o(i.__ARM_fpclassify)
    i.__ieee754_rem_pio2                     0x0800afd0   Section        0  rred.o(i.__ieee754_rem_pio2)
    i.__kernel_cos                           0x0800b358   Section        0  cos_i.o(i.__kernel_cos)
    i.__kernel_poly                          0x0800b454   Section        0  poly.o(i.__kernel_poly)
    i.__kernel_sin                           0x0800b500   Section        0  sin_i.o(i.__kernel_sin)
    i.__mathlib_dbl_infnan                   0x0800b5ec   Section        0  dunder.o(i.__mathlib_dbl_infnan)
    i.__mathlib_dbl_invalid                  0x0800b5f2   Section        0  dunder.o(i.__mathlib_dbl_invalid)
    i.__mathlib_dbl_underflow                0x0800b600   Section        0  dunder.o(i.__mathlib_dbl_underflow)
    i.__scatterload_copy                     0x0800b610   Section       14  handlers.o(i.__scatterload_copy)
    i.__scatterload_null                     0x0800b61e   Section        2  handlers.o(i.__scatterload_null)
    i.__scatterload_zeroinit                 0x0800b620   Section       14  handlers.o(i.__scatterload_zeroinit)
    i.__set_errno                            0x0800b630   Section        0  errno.o(i.__set_errno)
    i.check_fs                               0x0800b63c   Section        0  ff.o(i.check_fs)
    check_fs                                 0x0800b63d   Thumb Code   138  ff.o(i.check_fs)
    i.chk_chr                                0x0800b6cc   Section        0  ff.o(i.chk_chr)
    chk_chr                                  0x0800b6cd   Thumb Code    20  ff.o(i.chk_chr)
    i.chk_mounted                            0x0800b6e0   Section        0  ff.o(i.chk_mounted)
    chk_mounted                              0x0800b6e1   Thumb Code   866  ff.o(i.chk_mounted)
    i.clust2sect                             0x0800ba54   Section        0  ff.o(i.clust2sect)
    i.cos                                    0x0800ba70   Section        0  cos.o(i.cos)
    i.create_chain                           0x0800bb0c   Section        0  ff.o(i.create_chain)
    create_chain                             0x0800bb0d   Thumb Code   202  ff.o(i.create_chain)
    i.create_name                            0x0800bbd8   Section        0  ff.o(i.create_name)
    create_name                              0x0800bbd9   Thumb Code   328  ff.o(i.create_name)
    i.delay_init                             0x0800bd30   Section        0  delay.o(i.delay_init)
    i.delay_ms                               0x0800bd74   Section        0  delay.o(i.delay_ms)
    i.dir_find                               0x0800bdc0   Section        0  ff.o(i.dir_find)
    dir_find                                 0x0800bdc1   Thumb Code    92  ff.o(i.dir_find)
    i.dir_next                               0x0800be1c   Section        0  ff.o(i.dir_next)
    dir_next                                 0x0800be1d   Thumb Code   278  ff.o(i.dir_next)
    i.dir_register                           0x0800bf32   Section        0  ff.o(i.dir_register)
    dir_register                             0x0800bf33   Thumb Code   110  ff.o(i.dir_register)
    i.dir_sdi                                0x0800bfa0   Section        0  ff.o(i.dir_sdi)
    dir_sdi                                  0x0800bfa1   Thumb Code   156  ff.o(i.dir_sdi)
    i.disk_initialize                        0x0800c03c   Section        0  diskio.o(i.disk_initialize)
    i.disk_read                              0x0800c074   Section        0  diskio.o(i.disk_read)
    i.disk_status                            0x0800c0b8   Section        0  diskio.o(i.disk_status)
    i.disk_write                             0x0800c0be   Section        0  diskio.o(i.disk_write)
    i.f_gets                                 0x0800c102   Section        0  ff.o(i.f_gets)
    i.f_mount                                0x0800c158   Section        0  ff.o(i.f_mount)
    i.f_open                                 0x0800c184   Section        0  ff.o(i.f_open)
    i.f_read                                 0x0800c2f0   Section        0  ff.o(i.f_read)
    i.follow_path                            0x0800c4be   Section        0  ff.o(i.follow_path)
    follow_path                              0x0800c4bf   Thumb Code   158  ff.o(i.follow_path)
    i.get_fat                                0x0800c55c   Section        0  ff.o(i.get_fat)
    i.get_fattime                            0x0800c640   Section        0  diskio.o(i.get_fattime)
    i.main                                   0x0800c644   Section        0  main.o(i.main)
    i.matconv                                0x0800c8a4   Section        0  3d.o(i.matconv)
    i.mem_cmp                                0x0800c914   Section        0  ff.o(i.mem_cmp)
    mem_cmp                                  0x0800c915   Thumb Code    38  ff.o(i.mem_cmp)
    i.mem_cpy                                0x0800c93a   Section        0  ff.o(i.mem_cpy)
    mem_cpy                                  0x0800c93b   Thumb Code    26  ff.o(i.mem_cpy)
    i.mem_init                               0x0800c954   Section        0  malloc.o(i.mem_init)
    i.mem_perused                            0x0800c980   Section        0  malloc.o(i.mem_perused)
    i.mem_set                                0x0800c9ac   Section        0  ff.o(i.mem_set)
    mem_set                                  0x0800c9ad   Thumb Code    20  ff.o(i.mem_set)
    i.move_window                            0x0800c9c0   Section        0  ff.o(i.move_window)
    move_window                              0x0800c9c1   Thumb Code   114  ff.o(i.move_window)
    i.mymemset                               0x0800ca32   Section        0  malloc.o(i.mymemset)
    i.mypow                                  0x0800ca46   Section        0  lcd.o(i.mypow)
    i.put_fat                                0x0800ca5c   Section        0  ff.o(i.put_fat)
    i.remove_chain                           0x0800cb92   Section        0  ff.o(i.remove_chain)
    remove_chain                             0x0800cb93   Thumb Code   104  ff.o(i.remove_chain)
    i.rotate                                 0x0800cbfc   Section        0  3d.o(i.rotate)
    i.sin                                    0x0800cd9c   Section        0  sin.o(i.sin)
    i.validate                               0x0800ce3c   Section        0  ff.o(i.validate)
    validate                                 0x0800ce3d   Thumb Code    42  ff.o(i.validate)
    .constdata                               0x0800ce66   Section     4352  main.o(.constdata)
    .constdata                               0x0800df66   Section    17620  lcd.o(.constdata)
    .constdata                               0x0801243c   Section      108  3d.o(.constdata)
    .constdata                               0x080124a8   Section       48  cos_i.o(.constdata)
    C                                        0x080124a8   Data          48  cos_i.o(.constdata)
    .constdata                               0x080124d8   Section      200  rred.o(.constdata)
    pio2s                                    0x080124d8   Data          48  rred.o(.constdata)
    twooverpi                                0x08012508   Data         152  rred.o(.constdata)
    .constdata                               0x080125a0   Section       40  sin_i.o(.constdata)
    S                                        0x080125a0   Data          40  sin_i.o(.constdata)
    .data                                    0x20000000   Section       20  system_stm32f10x.o(.data)
    .data                                    0x20000014   Section        4  main.o(.data)
    .data                                    0x20000018   Section        2  dma.o(.data)
    .data                                    0x2000001a   Section        4  delay.o(.data)
    fac_us                                   0x2000001a   Data           1  delay.o(.data)
    fac_ms                                   0x2000001c   Data           2  delay.o(.data)
    .data                                    0x20000020   Section        6  usart.o(.data)
    .data                                    0x20000028   Section      192  3d.o(.data)
    .data                                    0x200000e8   Section        1  sd.o(.data)
    .data                                    0x200000ec   Section       20  malloc.o(.data)
    .data                                    0x20000100   Section       10  ff.o(.data)
    FatFs                                    0x20000100   Data           8  ff.o(.data)
    Fsid                                     0x20000108   Data           2  ff.o(.data)
    .data                                    0x2000010c   Section        4  errno.o(.data)
    _errno                                   0x2000010c   Data           4  errno.o(.data)
    .bss                                     0x20000110   Section       44  dma.o(.bss)
    .bss                                     0x2000013c   Section      200  usart.o(.bss)
    .bss                                     0x20000204   Section     6528  malloc.o(.bss)
    STACK                                    0x20001b88   Section     1024  startup_stm32f10x_hd.o(STACK)

    Global Symbols

    Symbol Name                              Value     Ov Type        Size  Object(Section)

    BuildAttributes$$THM_ISAv4$P$D$K$B$S$PE$A:L22UL41UL21$X:L11$S22US41US21$IEEE1$IW$USESV6$~STKCKD$USESV7$~SHL$OTIME$ROPI$IEEEX$EBA8$MICROLIB$REQ8$PRES8$EABIv2 0x00000000   Number         0  anon$$obj.o ABSOLUTE
    __ARM_use_no_argv                        0x00000000   Number         0  main.o ABSOLUTE
    __use_no_errno                           0x00000000   Number         0  useno.o ABSOLUTE
    __use_no_exception_handling              0x00000000   Number         0  useno.o ABSOLUTE
    __use_no_fp                              0x00000000   Number         0  useno.o ABSOLUTE
    __use_no_heap                            0x00000000   Number         0  useno.o ABSOLUTE
    __use_no_heap_region                     0x00000000   Number         0  useno.o ABSOLUTE
    __use_no_semihosting                     0x00000000   Number         0  useno.o ABSOLUTE
    __use_no_semihosting_swi                 0x00000000   Number         0  useno.o ABSOLUTE
    __use_no_signal_handling                 0x00000000   Number         0  useno.o ABSOLUTE
    __cpp_initialize__aeabi_                  - Undefined Weak Reference
    __cxa_finalize                            - Undefined Weak Reference
    __decompress                              - Undefined Weak Reference
    _clock_init                               - Undefined Weak Reference
    _microlib_exit                            - Undefined Weak Reference
    __Vectors_Size                           0x00000130   Number         0  startup_stm32f10x_hd.o ABSOLUTE
    __Vectors                                0x08008d00   Data           4  startup_stm32f10x_hd.o(RESET)
    __Vectors_End                            0x08008e30   Data           0  startup_stm32f10x_hd.o(RESET)
    __main                                   0x08008e31   Thumb Code     0  entry.o(.ARM.Collect$$$$00000000)
    _main_stk                                0x08008e31   Thumb Code     0  entry2.o(.ARM.Collect$$$$00000001)
    _main_scatterload                        0x08008e35   Thumb Code     0  entry5.o(.ARM.Collect$$$$00000004)
    __main_after_scatterload                 0x08008e39   Thumb Code     0  entry5.o(.ARM.Collect$$$$00000004)
    _main_clock                              0x08008e39   Thumb Code     0  entry7b.o(.ARM.Collect$$$$00000008)
    _main_cpp_init                           0x08008e39   Thumb Code     0  entry8b.o(.ARM.Collect$$$$0000000A)
    _main_init                               0x08008e39   Thumb Code     0  entry9a.o(.ARM.Collect$$$$0000000B)
    __rt_final_cpp                           0x08008e41   Thumb Code     0  entry10a.o(.ARM.Collect$$$$0000000D)
    __rt_final_exit                          0x08008e41   Thumb Code     0  entry11a.o(.ARM.Collect$$$$0000000F)
    Reset_Handler                            0x08008e45   Thumb Code     8  startup_stm32f10x_hd.o(.text)
    ADC1_2_IRQHandler                        0x08008e5f   Thumb Code     0  startup_stm32f10x_hd.o(.text)
    ADC3_IRQHandler                          0x08008e5f   Thumb Code     0  startup_stm32f10x_hd.o(.text)
    CAN1_RX1_IRQHandler                      0x08008e5f   Thumb Code     0  startup_stm32f10x_hd.o(.text)
    CAN1_SCE_IRQHandler                      0x08008e5f   Thumb Code     0  startup_stm32f10x_hd.o(.text)
    DMA1_Channel1_IRQHandler                 0x08008e5f   Thumb Code     0  startup_stm32f10x_hd.o(.text)
    DMA1_Channel2_IRQHandler                 0x08008e5f   Thumb Code     0  startup_stm32f10x_hd.o(.text)
    DMA1_Channel3_IRQHandler                 0x08008e5f   Thumb Code     0  startup_stm32f10x_hd.o(.text)
    DMA1_Channel4_IRQHandler                 0x08008e5f   Thumb Code     0  startup_stm32f10x_hd.o(.text)
    DMA1_Channel5_IRQHandler                 0x08008e5f   Thumb Code     0  startup_stm32f10x_hd.o(.text)
    DMA1_Channel6_IRQHandler                 0x08008e5f   Thumb Code     0  startup_stm32f10x_hd.o(.text)
    DMA1_Channel7_IRQHandler                 0x08008e5f   Thumb Code     0  startup_stm32f10x_hd.o(.text)
    DMA2_Channel1_IRQHandler                 0x08008e5f   Thumb Code     0  startup_stm32f10x_hd.o(.text)
    DMA2_Channel2_IRQHandler                 0x08008e5f   Thumb Code     0  startup_stm32f10x_hd.o(.text)
    DMA2_Channel3_IRQHandler                 0x08008e5f   Thumb Code     0  startup_stm32f10x_hd.o(.text)
    DMA2_Channel4_5_IRQHandler               0x08008e5f   Thumb Code     0  startup_stm32f10x_hd.o(.text)
    EXTI0_IRQHandler                         0x08008e5f   Thumb Code     0  startup_stm32f10x_hd.o(.text)
    EXTI15_10_IRQHandler                     0x08008e5f   Thumb Code     0  startup_stm32f10x_hd.o(.text)
    EXTI1_IRQHandler                         0x08008e5f   Thumb Code     0  startup_stm32f10x_hd.o(.text)
    EXTI2_IRQHandler                         0x08008e5f   Thumb Code     0  startup_stm32f10x_hd.o(.text)
    EXTI3_IRQHandler                         0x08008e5f   Thumb Code     0  startup_stm32f10x_hd.o(.text)
    EXTI4_IRQHandler                         0x08008e5f   Thumb Code     0  startup_stm32f10x_hd.o(.text)
    EXTI9_5_IRQHandler                       0x08008e5f   Thumb Code     0  startup_stm32f10x_hd.o(.text)
    FLASH_IRQHandler                         0x08008e5f   Thumb Code     0  startup_stm32f10x_hd.o(.text)
    FSMC_IRQHandler                          0x08008e5f   Thumb Code     0  startup_stm32f10x_hd.o(.text)
    I2C1_ER_IRQHandler                       0x08008e5f   Thumb Code     0  startup_stm32f10x_hd.o(.text)
    I2C1_EV_IRQHandler                       0x08008e5f   Thumb Code     0  startup_stm32f10x_hd.o(.text)
    I2C2_ER_IRQHandler                       0x08008e5f   Thumb Code     0  startup_stm32f10x_hd.o(.text)
    I2C2_EV_IRQHandler                       0x08008e5f   Thumb Code     0  startup_stm32f10x_hd.o(.text)
    PVD_IRQHandler                           0x08008e5f   Thumb Code     0  startup_stm32f10x_hd.o(.text)
    RCC_IRQHandler                           0x08008e5f   Thumb Code     0  startup_stm32f10x_hd.o(.text)
    RTCAlarm_IRQHandler                      0x08008e5f   Thumb Code     0  startup_stm32f10x_hd.o(.text)
    RTC_IRQHandler                           0x08008e5f   Thumb Code     0  startup_stm32f10x_hd.o(.text)
    SDIO_IRQHandler                          0x08008e5f   Thumb Code     0  startup_stm32f10x_hd.o(.text)
    SPI1_IRQHandler                          0x08008e5f   Thumb Code     0  startup_stm32f10x_hd.o(.text)
    SPI2_IRQHandler                          0x08008e5f   Thumb Code     0  startup_stm32f10x_hd.o(.text)
    SPI3_IRQHandler                          0x08008e5f   Thumb Code     0  startup_stm32f10x_hd.o(.text)
    TAMPER_IRQHandler                        0x08008e5f   Thumb Code     0  startup_stm32f10x_hd.o(.text)
    TIM1_BRK_IRQHandler                      0x08008e5f   Thumb Code     0  startup_stm32f10x_hd.o(.text)
    TIM1_CC_IRQHandler                       0x08008e5f   Thumb Code     0  startup_stm32f10x_hd.o(.text)
    TIM1_TRG_COM_IRQHandler                  0x08008e5f   Thumb Code     0  startup_stm32f10x_hd.o(.text)
    TIM1_UP_IRQHandler                       0x08008e5f   Thumb Code     0  startup_stm32f10x_hd.o(.text)
    TIM2_IRQHandler                          0x08008e5f   Thumb Code     0  startup_stm32f10x_hd.o(.text)
    TIM3_IRQHandler                          0x08008e5f   Thumb Code     0  startup_stm32f10x_hd.o(.text)
    TIM4_IRQHandler                          0x08008e5f   Thumb Code     0  startup_stm32f10x_hd.o(.text)
    TIM5_IRQHandler                          0x08008e5f   Thumb Code     0  startup_stm32f10x_hd.o(.text)
    TIM6_IRQHandler                          0x08008e5f   Thumb Code     0  startup_stm32f10x_hd.o(.text)
    TIM7_IRQHandler                          0x08008e5f   Thumb Code     0  startup_stm32f10x_hd.o(.text)
    TIM8_BRK_IRQHandler                      0x08008e5f   Thumb Code     0  startup_stm32f10x_hd.o(.text)
    TIM8_CC_IRQHandler                       0x08008e5f   Thumb Code     0  startup_stm32f10x_hd.o(.text)
    TIM8_TRG_COM_IRQHandler                  0x08008e5f   Thumb Code     0  startup_stm32f10x_hd.o(.text)
    TIM8_UP_IRQHandler                       0x08008e5f   Thumb Code     0  startup_stm32f10x_hd.o(.text)
    UART4_IRQHandler                         0x08008e5f   Thumb Code     0  startup_stm32f10x_hd.o(.text)
    UART5_IRQHandler                         0x08008e5f   Thumb Code     0  startup_stm32f10x_hd.o(.text)
    USART2_IRQHandler                        0x08008e5f   Thumb Code     0  startup_stm32f10x_hd.o(.text)
    USART3_IRQHandler                        0x08008e5f   Thumb Code     0  startup_stm32f10x_hd.o(.text)
    USBWakeUp_IRQHandler                     0x08008e5f   Thumb Code     0  startup_stm32f10x_hd.o(.text)
    USB_HP_CAN1_TX_IRQHandler                0x08008e5f   Thumb Code     0  startup_stm32f10x_hd.o(.text)
    USB_LP_CAN1_RX0_IRQHandler               0x08008e5f   Thumb Code     0  startup_stm32f10x_hd.o(.text)
    WWDG_IRQHandler                          0x08008e5f   Thumb Code     0  startup_stm32f10x_hd.o(.text)
    __aeabi_memcpy                           0x08008e69   Thumb Code    36  memcpya.o(.text)
    __aeabi_memcpy4                          0x08008e69   Thumb Code     0  memcpya.o(.text)
    __aeabi_memcpy8                          0x08008e69   Thumb Code     0  memcpya.o(.text)
    strlen                                   0x08008e8d   Thumb Code    14  strlen.o(.text)
    __aeabi_fadd                             0x08008e9b   Thumb Code   164  fadd.o(.text)
    __aeabi_fsub                             0x08008f3f   Thumb Code     6  fadd.o(.text)
    __aeabi_frsub                            0x08008f45   Thumb Code     6  fadd.o(.text)
    __aeabi_fmul                             0x08008f4b   Thumb Code   100  fmul.o(.text)
    __aeabi_ddiv                             0x08008faf   Thumb Code   222  ddiv.o(.text)
    __aeabi_i2f                              0x0800908d   Thumb Code    18  fflti.o(.text)
    __aeabi_f2uiz                            0x0800909f   Thumb Code    40  ffixui.o(.text)
    __aeabi_f2d                              0x080090c7   Thumb Code    38  f2d.o(.text)
    __aeabi_d2f                              0x080090ed   Thumb Code    56  d2f.o(.text)
    __I$use$fp                               0x08009125   Thumb Code     0  iusefp.o(.text)
    _float_round                             0x08009125   Thumb Code    18  fepilogue.o(.text)
    _float_epilogue                          0x08009137   Thumb Code    92  fepilogue.o(.text)
    _double_round                            0x08009193   Thumb Code    30  depilogue.o(.text)
    _double_epilogue                         0x080091b1   Thumb Code   156  depilogue.o(.text)
    __scatterload                            0x0800924d   Thumb Code    28  init.o(.text)
    __scatterload_rt2                        0x0800924d   Thumb Code     0  init.o(.text)
    __aeabi_llsl                             0x08009271   Thumb Code    30  llshl.o(.text)
    _ll_shift_l                              0x08009271   Thumb Code     0  llshl.o(.text)
    __aeabi_llsr                             0x0800928f   Thumb Code    32  llushr.o(.text)
    _ll_ushift_r                             0x0800928f   Thumb Code     0  llushr.o(.text)
    __aeabi_dadd                             0x080092af   Thumb Code   322  dadd.o(.text)
    __aeabi_dsub                             0x080093f1   Thumb Code     6  dadd.o(.text)
    __aeabi_drsub                            0x080093f7   Thumb Code     6  dadd.o(.text)
    __aeabi_dmul                             0x080093fd   Thumb Code   228  dmul.o(.text)
    __ARM_scalbn                             0x080094e1   Thumb Code    46  dscalb.o(.text)
    scalbn                                   0x080094e1   Thumb Code     0  dscalb.o(.text)
    __aeabi_i2d                              0x0800950f   Thumb Code    34  dflti.o(.text)
    __aeabi_ui2d                             0x08009531   Thumb Code    26  dfltui.o(.text)
    __aeabi_d2iz                             0x0800954b   Thumb Code    62  dfixi.o(.text)
    __aeabi_lasr                             0x08009589   Thumb Code    36  llsshr.o(.text)
    _ll_sshift_r                             0x08009589   Thumb Code     0  llsshr.o(.text)
    BusFault_Handler                         0x080095ad   Thumb Code     4  stm32f10x_it.o(i.BusFault_Handler)
    DMA_ClearFlag                            0x080095b1   Thumb Code    18  stm32f10x_dma.o(i.DMA_ClearFlag)
    DMA_Cmd                                  0x080095cd   Thumb Code    24  stm32f10x_dma.o(i.DMA_Cmd)
    DMA_DeInit                               0x080095e5   Thumb Code   324  stm32f10x_dma.o(i.DMA_DeInit)
    DMA_GetFlagStatus                        0x08009731   Thumb Code    36  stm32f10x_dma.o(i.DMA_GetFlagStatus)
    DMA_Init                                 0x0800975d   Thumb Code    60  stm32f10x_dma.o(i.DMA_Init)
    DMA_SetCurrDataCounter                   0x08009799   Thumb Code     4  stm32f10x_dma.o(i.DMA_SetCurrDataCounter)
    DebugMon_Handler                         0x0800979d   Thumb Code     2  stm32f10x_it.o(i.DebugMon_Handler)
    Draw_Cube                                0x080097a1   Thumb Code   278  3d.o(i.Draw_Cube)
    GPIO_Init                                0x080098c9   Thumb Code   278  stm32f10x_gpio.o(i.GPIO_Init)
    GPIO_PinRemapConfig                      0x080099e1   Thumb Code   138  stm32f10x_gpio.o(i.GPIO_PinRemapConfig)
    GPIO_ResetBits                           0x08009a71   Thumb Code     4  stm32f10x_gpio.o(i.GPIO_ResetBits)
    GPIO_SetBits                             0x08009a75   Thumb Code     4  stm32f10x_gpio.o(i.GPIO_SetBits)
    HardFault_Handler                        0x08009a79   Thumb Code     4  stm32f10x_it.o(i.HardFault_Handler)
    LCD_Address_Set                          0x08009a7d   Thumb Code    66  lcd_init.o(i.LCD_Address_Set)
    LCD_DrawLine                             0x08009abf   Thumb Code   172  lcd.o(i.LCD_DrawLine)
    LCD_DrawPoint                            0x08009b6b   Thumb Code    28  lcd.o(i.LCD_DrawPoint)
    LCD_Fill                                 0x08009b89   Thumb Code   238  lcd.o(i.LCD_Fill)
    LCD_GPIO_Init                            0x08009c85   Thumb Code    40  lcd_init.o(i.LCD_GPIO_Init)
    LCD_Init                                 0x08009cb1   Thumb Code   408  lcd_init.o(i.LCD_Init)
    LCD_ShowBMP                              0x08009e51   Thumb Code   132  lcd.o(i.LCD_ShowBMP)
    LCD_ShowChar                             0x08009ed5   Thumb Code   328  lcd.o(i.LCD_ShowChar)
    LCD_ShowIntNum                           0x0800a02d   Thumb Code   150  lcd.o(i.LCD_ShowIntNum)
    LCD_ShowPicture                          0x0800a0c5   Thumb Code   172  lcd.o(i.LCD_ShowPicture)
    LCD_ShowString                           0x0800a17d   Thumb Code    66  lcd.o(i.LCD_ShowString)
    LCD_WR_DATA                              0x0800a1c1   Thumb Code    46  lcd_init.o(i.LCD_WR_DATA)
    LCD_WR_DATA8                             0x0800a1f5   Thumb Code    40  lcd_init.o(i.LCD_WR_DATA8)
    LCD_WR_REG                               0x0800a221   Thumb Code    40  lcd_init.o(i.LCD_WR_REG)
    LED_Init                                 0x0800a24d   Thumb Code    58  led.o(i.LED_Init)
    MYDMA_Config                             0x0800a291   Thumb Code    82  dma.o(i.MYDMA_Config)
    MYDMA_Config1                            0x0800a2ed   Thumb Code    86  dma.o(i.MYDMA_Config1)
    MYDMA_Enable                             0x0800a34d   Thumb Code    32  dma.o(i.MYDMA_Enable)
    MemManage_Handler                        0x0800a375   Thumb Code     4  stm32f10x_it.o(i.MemManage_Handler)
    NMI_Handler                              0x0800a379   Thumb Code     2  stm32f10x_it.o(i.NMI_Handler)
    NVIC_SetVectorTable                      0x0800a37d   Thumb Code    12  misc.o(i.NVIC_SetVectorTable)
    PendSV_Handler                           0x0800a391   Thumb Code     2  stm32f10x_it.o(i.PendSV_Handler)
    RCC_AHBPeriphClockCmd                    0x0800a395   Thumb Code    26  stm32f10x_rcc.o(i.RCC_AHBPeriphClockCmd)
    RCC_APB1PeriphClockCmd                   0x0800a3b5   Thumb Code    26  stm32f10x_rcc.o(i.RCC_APB1PeriphClockCmd)
    RCC_APB1PeriphResetCmd                   0x0800a3d5   Thumb Code    26  stm32f10x_rcc.o(i.RCC_APB1PeriphResetCmd)
    RCC_APB2PeriphClockCmd                   0x0800a3f5   Thumb Code    26  stm32f10x_rcc.o(i.RCC_APB2PeriphClockCmd)
    RCC_APB2PeriphResetCmd                   0x0800a415   Thumb Code    26  stm32f10x_rcc.o(i.RCC_APB2PeriphResetCmd)
    SD_DisSelect                             0x0800a435   Thumb Code    28  sd.o(i.SD_DisSelect)
    SD_GetCSD                                0x0800a455   Thumb Code    42  sd.o(i.SD_GetCSD)
    SD_GetResponse                           0x0800a47f   Thumb Code    38  sd.o(i.SD_GetResponse)
    SD_GetSectorCount                        0x0800a4a5   Thumb Code   118  sd.o(i.SD_GetSectorCount)
    SD_Initialize                            0x0800a51d   Thumb Code   386  sd.o(i.SD_Initialize)
    SD_ReadDisk                              0x0800a6a5   Thumb Code   112  sd.o(i.SD_ReadDisk)
    SD_RecvData                              0x0800a719   Thumb Code    56  sd.o(i.SD_RecvData)
    SD_SPI_Init                              0x0800a751   Thumb Code    46  sd.o(i.SD_SPI_Init)
    SD_SPI_ReadWriteByte                     0x0800a785   Thumb Code    14  sd.o(i.SD_SPI_ReadWriteByte)
    SD_SPI_SpeedHigh                         0x0800a795   Thumb Code   116  sd.o(i.SD_SPI_SpeedHigh)
    SD_SPI_SpeedLow                          0x0800a80d   Thumb Code   118  sd.o(i.SD_SPI_SpeedLow)
    SD_Select                                0x0800a889   Thumb Code    38  sd.o(i.SD_Select)
    SD_SendBlock                             0x0800a8b5   Thumb Code    82  sd.o(i.SD_SendBlock)
    SD_SendCmd                               0x0800a907   Thumb Code   120  sd.o(i.SD_SendCmd)
    SD_WaitReady                             0x0800a97f   Thumb Code    34  sd.o(i.SD_WaitReady)
    SD_WriteDisk                             0x0800a9a1   Thumb Code   140  sd.o(i.SD_WriteDisk)
    SPI2_Init                                0x0800aa31   Thumb Code   164  spi.o(i.SPI2_Init)
    SPI2_ReadWriteByte                       0x0800aadd   Thumb Code    50  spi.o(i.SPI2_ReadWriteByte)
    SPI_Cmd                                  0x0800ab15   Thumb Code    24  stm32f10x_spi.o(i.SPI_Cmd)
    SPI_I2S_DMACmd                           0x0800ab2d   Thumb Code    18  stm32f10x_spi.o(i.SPI_I2S_DMACmd)
    SPI_I2S_DeInit                           0x0800ab41   Thumb Code    76  stm32f10x_spi.o(i.SPI_I2S_DeInit)
    SPI_I2S_GetFlagStatus                    0x0800ab99   Thumb Code    18  stm32f10x_spi.o(i.SPI_I2S_GetFlagStatus)
    SPI_I2S_ReceiveData                      0x0800abab   Thumb Code     6  stm32f10x_spi.o(i.SPI_I2S_ReceiveData)
    SPI_I2S_SendData                         0x0800abb1   Thumb Code     4  stm32f10x_spi.o(i.SPI_I2S_SendData)
    SPI_Init                                 0x0800abb5   Thumb Code    60  stm32f10x_spi.o(i.SPI_Init)
    SVC_Handler                              0x0800abf1   Thumb Code     2  stm32f10x_it.o(i.SVC_Handler)
    Show_BMP                                 0x0800acdd   Thumb Code    30  lcd.o(i.Show_BMP)
    Show_file                                0x0800ad01   Thumb Code   164  main.o(i.Show_file)
    Show_picture                             0x0800adbd   Thumb Code   116  main.o(i.Show_picture)
    SysTick_CLKSourceConfig                  0x0800ae31   Thumb Code    40  misc.o(i.SysTick_CLKSourceConfig)
    SysTick_Handler                          0x0800ae59   Thumb Code     2  stm32f10x_it.o(i.SysTick_Handler)
    SystemInit                               0x0800ae5d   Thumb Code    78  system_stm32f10x.o(i.SystemInit)
    USART1_IRQHandler                        0x0800aebd   Thumb Code   122  usart.o(i.USART1_IRQHandler)
    USART_GetITStatus                        0x0800af45   Thumb Code    84  stm32f10x_usart.o(i.USART_GetITStatus)
    USART_ReceiveData                        0x0800af99   Thumb Code    10  stm32f10x_usart.o(i.USART_ReceiveData)
    UsageFault_Handler                       0x0800afa3   Thumb Code     4  stm32f10x_it.o(i.UsageFault_Handler)
    __ARM_fpclassify                         0x0800afa7   Thumb Code    40  fpclassify.o(i.__ARM_fpclassify)
    __ieee754_rem_pio2                       0x0800afd1   Thumb Code   828  rred.o(i.__ieee754_rem_pio2)
    __kernel_cos                             0x0800b359   Thumb Code   230  cos_i.o(i.__kernel_cos)
    __kernel_poly                            0x0800b455   Thumb Code   170  poly.o(i.__kernel_poly)
    __kernel_sin                             0x0800b501   Thumb Code   224  sin_i.o(i.__kernel_sin)
    __mathlib_dbl_infnan                     0x0800b5ed   Thumb Code     6  dunder.o(i.__mathlib_dbl_infnan)
    __mathlib_dbl_invalid                    0x0800b5f3   Thumb Code    12  dunder.o(i.__mathlib_dbl_invalid)
    __mathlib_dbl_underflow                  0x0800b601   Thumb Code    10  dunder.o(i.__mathlib_dbl_underflow)
    __scatterload_copy                       0x0800b611   Thumb Code    14  handlers.o(i.__scatterload_copy)
    __scatterload_null                       0x0800b61f   Thumb Code     2  handlers.o(i.__scatterload_null)
    __scatterload_zeroinit                   0x0800b621   Thumb Code    14  handlers.o(i.__scatterload_zeroinit)
    __set_errno                              0x0800b631   Thumb Code     6  errno.o(i.__set_errno)
    clust2sect                               0x0800ba55   Thumb Code    26  ff.o(i.clust2sect)
    cos                                      0x0800ba71   Thumb Code   148  cos.o(i.cos)
    delay_init                               0x0800bd31   Thumb Code    50  delay.o(i.delay_init)
    delay_ms                                 0x0800bd75   Thumb Code    72  delay.o(i.delay_ms)
    disk_initialize                          0x0800c03d   Thumb Code    56  diskio.o(i.disk_initialize)
    disk_read                                0x0800c075   Thumb Code    68  diskio.o(i.disk_read)
    disk_status                              0x0800c0b9   Thumb Code     6  diskio.o(i.disk_status)
    disk_write                               0x0800c0bf   Thumb Code    68  diskio.o(i.disk_write)
    f_gets                                   0x0800c103   Thumb Code    86  ff.o(i.f_gets)
    f_mount                                  0x0800c159   Thumb Code    38  ff.o(i.f_mount)
    f_open                                   0x0800c185   Thumb Code   364  ff.o(i.f_open)
    f_read                                   0x0800c2f1   Thumb Code   462  ff.o(i.f_read)
    get_fat                                  0x0800c55d   Thumb Code   228  ff.o(i.get_fat)
    get_fattime                              0x0800c641   Thumb Code     4  diskio.o(i.get_fattime)
    main                                     0x0800c645   Thumb Code   484  main.o(i.main)
    matconv                                  0x0800c8a5   Thumb Code   112  3d.o(i.matconv)
    mem_init                                 0x0800c955   Thumb Code    38  malloc.o(i.mem_init)
    mem_perused                              0x0800c981   Thumb Code    38  malloc.o(i.mem_perused)
    mymemset                                 0x0800ca33   Thumb Code    20  malloc.o(i.mymemset)
    mypow                                    0x0800ca47   Thumb Code    22  lcd.o(i.mypow)
    put_fat                                  0x0800ca5d   Thumb Code   310  ff.o(i.put_fat)
    rotate                                   0x0800cbfd   Thumb Code   402  3d.o(i.rotate)
    sin                                      0x0800cd9d   Thumb Code   150  sin.o(i.sin)
    gImage_1                                 0x0800ce66   Data        3200  main.o(.constdata)
    gImage_24                                0x0800dae6   Data        1152  main.o(.constdata)
    ascii_1206                               0x0800df66   Data        1140  lcd.o(.constdata)
    ascii_1608                               0x0800e3da   Data        1520  lcd.o(.constdata)
    ascii_2412                               0x0800e9ca   Data        4560  lcd.o(.constdata)
    ascii_3216                               0x0800fb9a   Data        6080  lcd.o(.constdata)
    tfont12                                  0x0801135a   Data         130  lcd.o(.constdata)
    tfont16                                  0x080113dc   Data         170  lcd.o(.constdata)
    tfont24                                  0x08011486   Data         370  lcd.o(.constdata)
    tfont32                                  0x080115f8   Data         650  lcd.o(.constdata)
    gImage_logo                              0x08011882   Data        3000  lcd.o(.constdata)
    Region$$Table$$Base                      0x080125c8   Number         0  anon$$obj.o(Region$$Table)
    Region$$Table$$Limit                     0x080125e8   Number         0  anon$$obj.o(Region$$Table)
    SystemCoreClock                          0x20000000   Data           4  system_stm32f10x.o(.data)
    AHBPrescTable                            0x20000004   Data          16  system_stm32f10x.o(.data)
    sd_size                                  0x20000014   Data           4  main.o(.data)
    DMA1_MEM_LEN                             0x20000018   Data           2  dma.o(.data)
    __stdout                                 0x20000020   Data           4  usart.o(.data)
    USART_RX_STA                             0x20000024   Data           2  usart.o(.data)
    cube                                     0x20000028   Data          96  3d.o(.data)
    lineid                                   0x20000088   Data          96  3d.o(.data)
    SD_Type                                  0x200000e8   Data           1  sd.o(.data)
    mallco_dev                               0x200000ec   Data          20  malloc.o(.data)
    DMA_InitStructure                        0x20000110   Data          44  dma.o(.bss)
    USART_RX_BUF                             0x2000013c   Data         200  usart.o(.bss)
    membase                                  0x20000204   Data        6144  malloc.o(.bss)
    memmapbase                               0x20001a04   Data         384  malloc.o(.bss)
    __initial_sp                             0x20001f88   Data           0  startup_stm32f10x_hd.o(STACK)



==============================================================================

Memory Map of the image

  Image Entry point : 0x08008e31

  Load Region LR_IROM1 (Base: 0x08008d00, Size: 0x000099f8, Max: 0x00020000, ABSOLUTE)

    Execution Region ER_IROM1 (Base: 0x08008d00, Size: 0x000098e8, Max: 0x00020000, ABSOLUTE)

    Base Addr    Size         Type   Attr      Idx    E Section Name        Object

    0x08008d00   0x00000130   Data   RO          481    RESET               startup_stm32f10x_hd.o
    0x08008e30   0x00000000   Code   RO         4111  * .ARM.Collect$$$$00000000  mc_w.l(entry.o)
    0x08008e30   0x00000004   Code   RO         4162    .ARM.Collect$$$$00000001  mc_w.l(entry2.o)
    0x08008e34   0x00000004   Code   RO         4165    .ARM.Collect$$$$00000004  mc_w.l(entry5.o)
    0x08008e38   0x00000000   Code   RO         4167    .ARM.Collect$$$$00000008  mc_w.l(entry7b.o)
    0x08008e38   0x00000000   Code   RO         4169    .ARM.Collect$$$$0000000A  mc_w.l(entry8b.o)
    0x08008e38   0x00000008   Code   RO         4170    .ARM.Collect$$$$0000000B  mc_w.l(entry9a.o)
    0x08008e40   0x00000000   Code   RO         4172    .ARM.Collect$$$$0000000D  mc_w.l(entry10a.o)
    0x08008e40   0x00000000   Code   RO         4174    .ARM.Collect$$$$0000000F  mc_w.l(entry11a.o)
    0x08008e40   0x00000004   Code   RO         4163    .ARM.Collect$$$$00002712  mc_w.l(entry2.o)
    0x08008e44   0x00000024   Code   RO          482    .text               startup_stm32f10x_hd.o
    0x08008e68   0x00000024   Code   RO         4114    .text               mc_w.l(memcpya.o)
    0x08008e8c   0x0000000e   Code   RO         4116    .text               mc_w.l(strlen.o)
    0x08008e9a   0x000000b0   Code   RO         4120    .text               mf_w.l(fadd.o)
    0x08008f4a   0x00000064   Code   RO         4122    .text               mf_w.l(fmul.o)
    0x08008fae   0x000000de   Code   RO         4124    .text               mf_w.l(ddiv.o)
    0x0800908c   0x00000012   Code   RO         4126    .text               mf_w.l(fflti.o)
    0x0800909e   0x00000028   Code   RO         4128    .text               mf_w.l(ffixui.o)
    0x080090c6   0x00000026   Code   RO         4130    .text               mf_w.l(f2d.o)
    0x080090ec   0x00000038   Code   RO         4132    .text               mf_w.l(d2f.o)
    0x08009124   0x00000000   Code   RO         4183    .text               mc_w.l(iusefp.o)
    0x08009124   0x0000006e   Code   RO         4184    .text               mf_w.l(fepilogue.o)
    0x08009192   0x000000ba   Code   RO         4186    .text               mf_w.l(depilogue.o)
    0x0800924c   0x00000024   Code   RO         4192    .text               mc_w.l(init.o)
    0x08009270   0x0000001e   Code   RO         4194    .text               mc_w.l(llshl.o)
    0x0800928e   0x00000020   Code   RO         4196    .text               mc_w.l(llushr.o)
    0x080092ae   0x0000014e   Code   RO         4198    .text               mf_w.l(dadd.o)
    0x080093fc   0x000000e4   Code   RO         4200    .text               mf_w.l(dmul.o)
    0x080094e0   0x0000002e   Code   RO         4202    .text               mf_w.l(dscalb.o)
    0x0800950e   0x00000022   Code   RO         4204    .text               mf_w.l(dflti.o)
    0x08009530   0x0000001a   Code   RO         4206    .text               mf_w.l(dfltui.o)
    0x0800954a   0x0000003e   Code   RO         4208    .text               mf_w.l(dfixi.o)
    0x08009588   0x00000024   Code   RO         4210    .text               mc_w.l(llsshr.o)
    0x080095ac   0x00000004   Code   RO            1    i.BusFault_Handler  stm32f10x_it.o
    0x080095b0   0x0000001c   Code   RO         1229    i.DMA_ClearFlag     stm32f10x_dma.o
    0x080095cc   0x00000018   Code   RO         1231    i.DMA_Cmd           stm32f10x_dma.o
    0x080095e4   0x0000014c   Code   RO         1232    i.DMA_DeInit        stm32f10x_dma.o
    0x08009730   0x0000002c   Code   RO         1234    i.DMA_GetFlagStatus  stm32f10x_dma.o
    0x0800975c   0x0000003c   Code   RO         1237    i.DMA_Init          stm32f10x_dma.o
    0x08009798   0x00000004   Code   RO         1238    i.DMA_SetCurrDataCounter  stm32f10x_dma.o
    0x0800979c   0x00000002   Code   RO            2    i.DebugMon_Handler  stm32f10x_it.o
    0x0800979e   0x00000002   PAD
    0x080097a0   0x00000128   Code   RO         3574    i.Draw_Cube         3d.o
    0x080098c8   0x00000116   Code   RO         1661    i.GPIO_Init         stm32f10x_gpio.o
    0x080099de   0x00000002   PAD
    0x080099e0   0x00000090   Code   RO         1663    i.GPIO_PinRemapConfig  stm32f10x_gpio.o
    0x08009a70   0x00000004   Code   RO         1668    i.GPIO_ResetBits    stm32f10x_gpio.o
    0x08009a74   0x00000004   Code   RO         1669    i.GPIO_SetBits      stm32f10x_gpio.o
    0x08009a78   0x00000004   Code   RO            3    i.HardFault_Handler  stm32f10x_it.o
    0x08009a7c   0x00000042   Code   RO          239    i.LCD_Address_Set   lcd_init.o
    0x08009abe   0x000000ac   Code   RO          291    i.LCD_DrawLine      lcd.o
    0x08009b6a   0x0000001c   Code   RO          292    i.LCD_DrawPoint     lcd.o
    0x08009b86   0x00000002   PAD
    0x08009b88   0x000000fc   Code   RO          294    i.LCD_Fill          lcd.o
    0x08009c84   0x0000002c   Code   RO          240    i.LCD_GPIO_Init     lcd_init.o
    0x08009cb0   0x000001a0   Code   RO          241    i.LCD_Init          lcd_init.o
    0x08009e50   0x00000084   Code   RO          295    i.LCD_ShowBMP       lcd.o
    0x08009ed4   0x00000158   Code   RO          296    i.LCD_ShowChar      lcd.o
    0x0800a02c   0x00000096   Code   RO          303    i.LCD_ShowIntNum    lcd.o
    0x0800a0c2   0x00000002   PAD
    0x0800a0c4   0x000000b8   Code   RO          304    i.LCD_ShowPicture   lcd.o
    0x0800a17c   0x00000042   Code   RO          305    i.LCD_ShowString    lcd.o
    0x0800a1be   0x00000002   PAD
    0x0800a1c0   0x00000034   Code   RO          242    i.LCD_WR_DATA       lcd_init.o
    0x0800a1f4   0x0000002c   Code   RO          243    i.LCD_WR_DATA8      lcd_init.o
    0x0800a220   0x0000002c   Code   RO          244    i.LCD_WR_REG        lcd_init.o
    0x0800a24c   0x00000044   Code   RO          227    i.LED_Init          led.o
    0x0800a290   0x0000005c   Code   RO          440    i.MYDMA_Config      dma.o
    0x0800a2ec   0x00000060   Code   RO          441    i.MYDMA_Config1     dma.o
    0x0800a34c   0x00000028   Code   RO          442    i.MYDMA_Enable      dma.o
    0x0800a374   0x00000004   Code   RO            4    i.MemManage_Handler  stm32f10x_it.o
    0x0800a378   0x00000002   Code   RO            5    i.NMI_Handler       stm32f10x_it.o
    0x0800a37a   0x00000002   PAD
    0x0800a37c   0x00000014   Code   RO          488    i.NVIC_SetVectorTable  misc.o
    0x0800a390   0x00000002   Code   RO            6    i.PendSV_Handler    stm32f10x_it.o
    0x0800a392   0x00000002   PAD
    0x0800a394   0x00000020   Code   RO         2085    i.RCC_AHBPeriphClockCmd  stm32f10x_rcc.o
    0x0800a3b4   0x00000020   Code   RO         2086    i.RCC_APB1PeriphClockCmd  stm32f10x_rcc.o
    0x0800a3d4   0x00000020   Code   RO         2087    i.RCC_APB1PeriphResetCmd  stm32f10x_rcc.o
    0x0800a3f4   0x00000020   Code   RO         2088    i.RCC_APB2PeriphClockCmd  stm32f10x_rcc.o
    0x0800a414   0x00000020   Code   RO         2089    i.RCC_APB2PeriphResetCmd  stm32f10x_rcc.o
    0x0800a434   0x00000020   Code   RO         3609    i.SD_DisSelect      sd.o
    0x0800a454   0x0000002a   Code   RO         3611    i.SD_GetCSD         sd.o
    0x0800a47e   0x00000026   Code   RO         3612    i.SD_GetResponse    sd.o
    0x0800a4a4   0x00000076   Code   RO         3613    i.SD_GetSectorCount  sd.o
    0x0800a51a   0x00000002   PAD
    0x0800a51c   0x00000188   Code   RO         3614    i.SD_Initialize     sd.o
    0x0800a6a4   0x00000074   Code   RO         3615    i.SD_ReadDisk       sd.o
    0x0800a718   0x00000038   Code   RO         3616    i.SD_RecvData       sd.o
    0x0800a750   0x00000034   Code   RO         3617    i.SD_SPI_Init       sd.o
    0x0800a784   0x0000000e   Code   RO         3618    i.SD_SPI_ReadWriteByte  sd.o
    0x0800a792   0x00000002   PAD
    0x0800a794   0x00000078   Code   RO         3619    i.SD_SPI_SpeedHigh  sd.o
    0x0800a80c   0x0000007c   Code   RO         3620    i.SD_SPI_SpeedLow   sd.o
    0x0800a888   0x0000002c   Code   RO         3621    i.SD_Select         sd.o
    0x0800a8b4   0x00000052   Code   RO         3622    i.SD_SendBlock      sd.o
    0x0800a906   0x00000078   Code   RO         3623    i.SD_SendCmd        sd.o
    0x0800a97e   0x00000022   Code   RO         3624    i.SD_WaitReady      sd.o
    0x0800a9a0   0x00000090   Code   RO         3625    i.SD_WriteDisk      sd.o
    0x0800aa30   0x000000ac   Code   RO          417    i.SPI2_Init         spi.o
    0x0800aadc   0x00000038   Code   RO          418    i.SPI2_ReadWriteByte  spi.o
    0x0800ab14   0x00000018   Code   RO         2571    i.SPI_Cmd           stm32f10x_spi.o
    0x0800ab2c   0x00000012   Code   RO         2577    i.SPI_I2S_DMACmd    stm32f10x_spi.o
    0x0800ab3e   0x00000002   PAD
    0x0800ab40   0x00000058   Code   RO         2578    i.SPI_I2S_DeInit    stm32f10x_spi.o
    0x0800ab98   0x00000012   Code   RO         2579    i.SPI_I2S_GetFlagStatus  stm32f10x_spi.o
    0x0800abaa   0x00000006   Code   RO         2582    i.SPI_I2S_ReceiveData  stm32f10x_spi.o
    0x0800abb0   0x00000004   Code   RO         2583    i.SPI_I2S_SendData  stm32f10x_spi.o
    0x0800abb4   0x0000003c   Code   RO         2584    i.SPI_Init          stm32f10x_spi.o
    0x0800abf0   0x00000002   Code   RO            7    i.SVC_Handler       stm32f10x_it.o
    0x0800abf2   0x00000008   Code   RO           98    i.SetSysClock       system_stm32f10x.o
    0x0800abfa   0x00000002   PAD
    0x0800abfc   0x000000e0   Code   RO           99    i.SetSysClockTo72   system_stm32f10x.o
    0x0800acdc   0x00000024   Code   RO          306    i.Show_BMP          lcd.o
    0x0800ad00   0x000000bc   Code   RO          132    i.Show_file         main.o
    0x0800adbc   0x00000074   Code   RO          133    i.Show_picture      main.o
    0x0800ae30   0x00000028   Code   RO          490    i.SysTick_CLKSourceConfig  misc.o
    0x0800ae58   0x00000002   Code   RO            8    i.SysTick_Handler   stm32f10x_it.o
    0x0800ae5a   0x00000002   PAD
    0x0800ae5c   0x00000060   Code   RO          101    i.SystemInit        system_stm32f10x.o
    0x0800aebc   0x00000088   Code   RO         3533    i.USART1_IRQHandler  usart.o
    0x0800af44   0x00000054   Code   RO         3266    i.USART_GetITStatus  stm32f10x_usart.o
    0x0800af98   0x0000000a   Code   RO         3276    i.USART_ReceiveData  stm32f10x_usart.o
    0x0800afa2   0x00000004   Code   RO            9    i.UsageFault_Handler  stm32f10x_it.o
    0x0800afa6   0x00000028   Code   RO         4188    i.__ARM_fpclassify  m_ws.l(fpclassify.o)
    0x0800afce   0x00000002   PAD
    0x0800afd0   0x00000388   Code   RO         4151    i.__ieee754_rem_pio2  m_ws.l(rred.o)
    0x0800b358   0x000000fc   Code   RO         4134    i.__kernel_cos      m_ws.l(cos_i.o)
    0x0800b454   0x000000aa   Code   RO         4190    i.__kernel_poly     m_ws.l(poly.o)
    0x0800b4fe   0x00000002   PAD
    0x0800b500   0x000000ec   Code   RO         4156    i.__kernel_sin      m_ws.l(sin_i.o)
    0x0800b5ec   0x00000006   Code   RO         4138    i.__mathlib_dbl_infnan  m_ws.l(dunder.o)
    0x0800b5f2   0x0000000c   Code   RO         4140    i.__mathlib_dbl_invalid  m_ws.l(dunder.o)
    0x0800b5fe   0x00000002   PAD
    0x0800b600   0x00000010   Code   RO         4143    i.__mathlib_dbl_underflow  m_ws.l(dunder.o)
    0x0800b610   0x0000000e   Code   RO         4214    i.__scatterload_copy  mc_w.l(handlers.o)
    0x0800b61e   0x00000002   Code   RO         4215    i.__scatterload_null  mc_w.l(handlers.o)
    0x0800b620   0x0000000e   Code   RO         4216    i.__scatterload_zeroinit  mc_w.l(handlers.o)
    0x0800b62e   0x00000002   PAD
    0x0800b630   0x0000000c   Code   RO         4178    i.__set_errno       mc_w.l(errno.o)
    0x0800b63c   0x00000090   Code   RO         3840    i.check_fs          ff.o
    0x0800b6cc   0x00000014   Code   RO         3841    i.chk_chr           ff.o
    0x0800b6e0   0x00000374   Code   RO         3842    i.chk_mounted       ff.o
    0x0800ba54   0x0000001a   Code   RO         3843    i.clust2sect        ff.o
    0x0800ba6e   0x00000002   PAD
    0x0800ba70   0x0000009c   Code   RO         4096    i.cos               m_ws.l(cos.o)
    0x0800bb0c   0x000000ca   Code   RO         3844    i.create_chain      ff.o
    0x0800bbd6   0x00000002   PAD
    0x0800bbd8   0x00000158   Code   RO         3845    i.create_name       ff.o
    0x0800bd30   0x00000044   Code   RO         3495    i.delay_init        delay.o
    0x0800bd74   0x0000004c   Code   RO         3496    i.delay_ms          delay.o
    0x0800bdc0   0x0000005c   Code   RO         3846    i.dir_find          ff.o
    0x0800be1c   0x00000116   Code   RO         3847    i.dir_next          ff.o
    0x0800bf32   0x0000006e   Code   RO         3849    i.dir_register      ff.o
    0x0800bfa0   0x0000009c   Code   RO         3851    i.dir_sdi           ff.o
    0x0800c03c   0x00000038   Code   RO         3791    i.disk_initialize   diskio.o
    0x0800c074   0x00000044   Code   RO         3793    i.disk_read         diskio.o
    0x0800c0b8   0x00000006   Code   RO         3794    i.disk_status       diskio.o
    0x0800c0be   0x00000044   Code   RO         3795    i.disk_write        diskio.o
    0x0800c102   0x00000056   Code   RO         3855    i.f_gets            ff.o
    0x0800c158   0x0000002c   Code   RO         3858    i.f_mount           ff.o
    0x0800c184   0x0000016c   Code   RO         3859    i.f_open            ff.o
    0x0800c2f0   0x000001ce   Code   RO         3864    i.f_read            ff.o
    0x0800c4be   0x0000009e   Code   RO         3873    i.follow_path       ff.o
    0x0800c55c   0x000000e4   Code   RO         3874    i.get_fat           ff.o
    0x0800c640   0x00000004   Code   RO         3796    i.get_fattime       diskio.o
    0x0800c644   0x00000260   Code   RO          134    i.main              main.o
    0x0800c8a4   0x00000070   Code   RO         3575    i.matconv           3d.o
    0x0800c914   0x00000026   Code   RO         3876    i.mem_cmp           ff.o
    0x0800c93a   0x0000001a   Code   RO         3877    i.mem_cpy           ff.o
    0x0800c954   0x0000002c   Code   RO         3724    i.mem_init          malloc.o
    0x0800c980   0x0000002c   Code   RO         3726    i.mem_perused       malloc.o
    0x0800c9ac   0x00000014   Code   RO         3878    i.mem_set           ff.o
    0x0800c9c0   0x00000072   Code   RO         3879    i.move_window       ff.o
    0x0800ca32   0x00000014   Code   RO         3730    i.mymemset          malloc.o
    0x0800ca46   0x00000016   Code   RO          307    i.mypow             lcd.o
    0x0800ca5c   0x00000136   Code   RO         3880    i.put_fat           ff.o
    0x0800cb92   0x00000068   Code   RO         3881    i.remove_chain      ff.o
    0x0800cbfa   0x00000002   PAD
    0x0800cbfc   0x000001a0   Code   RO         3576    i.rotate            3d.o
    0x0800cd9c   0x000000a0   Code   RO         4104    i.sin               m_ws.l(sin.o)
    0x0800ce3c   0x0000002a   Code   RO         3883    i.validate          ff.o
    0x0800ce66   0x00001100   Data   RO          135    .constdata          main.o
    0x0800df66   0x000044d4   Data   RO          308    .constdata          lcd.o
    0x0801243a   0x00000002   PAD
    0x0801243c   0x0000006c   Data   RO         3577    .constdata          3d.o
    0x080124a8   0x00000030   Data   RO         4135    .constdata          m_ws.l(cos_i.o)
    0x080124d8   0x000000c8   Data   RO         4153    .constdata          m_ws.l(rred.o)
    0x080125a0   0x00000028   Data   RO         4157    .constdata          m_ws.l(sin_i.o)
    0x080125c8   0x00000020   Data   RO         4212    Region$$Table       anon$$obj.o


    Execution Region RW_IRAM1 (Base: 0x20000000, Size: 0x00001f88, Max: 0x00005000, ABSOLUTE)

    Base Addr    Size         Type   Attr      Idx    E Section Name        Object

    0x20000000   0x00000014   Data   RW          102    .data               system_stm32f10x.o
    0x20000014   0x00000004   Data   RW          136    .data               main.o
    0x20000018   0x00000002   Data   RW          444    .data               dma.o
    0x2000001a   0x00000004   Data   RW         3498    .data               delay.o
    0x2000001e   0x00000002   PAD
    0x20000020   0x00000006   Data   RW         3538    .data               usart.o
    0x20000026   0x00000002   PAD
    0x20000028   0x000000c0   Data   RW         3578    .data               3d.o
    0x200000e8   0x00000001   Data   RW         3626    .data               sd.o
    0x200000e9   0x00000003   PAD
    0x200000ec   0x00000014   Data   RW         3734    .data               malloc.o
    0x20000100   0x0000000a   Data   RW         3884    .data               ff.o
    0x2000010a   0x00000002   PAD
    0x2000010c   0x00000004   Data   RW         4179    .data               mc_w.l(errno.o)
    0x20000110   0x0000002c   Zero   RW          443    .bss                dma.o
    0x2000013c   0x000000c8   Zero   RW         3537    .bss                usart.o
    0x20000204   0x00001980   Zero   RW         3732    .bss                malloc.o
    0x20001b84   0x00000004   PAD
    0x20001b88   0x00000400   Zero   RW          479    STACK               startup_stm32f10x_hd.o


==============================================================================

Image component sizes


      Code (inc. data)   RO Data    RW Data    ZI Data      Debug   Object Name

       824         32        108        192          0       2969   3d.o
         0          0          0          0          0         32   core_cm3.o
       144         22          0          4          0       1256   delay.o
       202          0          0          0          0       3651   diskio.o
       228         28          0          2         44       2571   dma.o
      4252         46          0         10          0      20870   ff.o
      1386         48      17620          0          0      19840   lcd.o
       666         26          0          0          0       3583   lcd_init.o
        68         10          0          0          0        515   led.o
       912        148       4352          4          0     215991   main.o
       108         12          0         20       6528       2922   malloc.o
        60          8          0          0          0       1096   misc.o
      1528         40          0          1          0      10694   sd.o
       228         14          0          0          0       1213   spi.o
        36          8        304          0       1024        816   startup_stm32f10x_hd.o
       492         26          0          0          0       5243   stm32f10x_dma.o
       430          6          0          0          0       3970   stm32f10x_gpio.o
        26          0          0          0          0      22838   stm32f10x_it.o
       160         30          0          0          0       2944   stm32f10x_rcc.o
       218         12          0          0          0       5156   stm32f10x_spi.o
        94          0          0          0          0       2796   stm32f10x_usart.o
       328         26          0         20          0       2177   system_stm32f10x.o
       136         14          0          6        200       2492   usart.o

    ----------------------------------------------------------------------
     12556        556      22418        268       7800     335635   Object Totals
         0          0         32          0          0          0   (incl. Generated)
        30          0          2          9          4          0   (incl. Padding)

    ----------------------------------------------------------------------

      Code (inc. data)   RO Data    RW Data    ZI Data      Debug   Library Member Name

       156          8          0          0          0        104   cos.o
       252         22         48          0          0        124   cos_i.o
        34          6          0          0          0        204   dunder.o
        40          0          0          0          0         68   fpclassify.o
       170          0          0          0          0         96   poly.o
       904         76        200          0          0        140   rred.o
       160         10          0          0          0        108   sin.o
       236         12         40          0          0        128   sin_i.o
         0          0          0          0          0          0   entry.o
         0          0          0          0          0          0   entry10a.o
         0          0          0          0          0          0   entry11a.o
         8          4          0          0          0          0   entry2.o
         4          0          0          0          0          0   entry5.o
         0          0          0          0          0          0   entry7b.o
         0          0          0          0          0          0   entry8b.o
         8          4          0          0          0          0   entry9a.o
        12          6          0          4          0         68   errno.o
        30          0          0          0          0          0   handlers.o
        36          8          0          0          0         68   init.o
         0          0          0          0          0          0   iusefp.o
        30          0          0          0          0         68   llshl.o
        36          0          0          0          0         68   llsshr.o
        32          0          0          0          0         68   llushr.o
        36          0          0          0          0         68   memcpya.o
        14          0          0          0          0         68   strlen.o
        56          0          0          0          0         88   d2f.o
       334          0          0          0          0        148   dadd.o
       222          0          0          0          0        100   ddiv.o
       186          0          0          0          0        176   depilogue.o
        62          0          0          0          0         80   dfixi.o
        34          0          0          0          0         76   dflti.o
        26          0          0          0          0         76   dfltui.o
       228          0          0          0          0         96   dmul.o
        46          0          0          0          0         80   dscalb.o
        38          0          0          0          0         68   f2d.o
       176          0          0          0          0        140   fadd.o
       110          0          0          0          0        168   fepilogue.o
        40          0          0          0          0         68   ffixui.o
        18          0          0          0          0         68   fflti.o
       100          0          0          0          0         76   fmul.o

    ----------------------------------------------------------------------
      3882        156        288          4          0       2956   Library Totals
         8          0          0          0          0          0   (incl. Padding)

    ----------------------------------------------------------------------

      Code (inc. data)   RO Data    RW Data    ZI Data      Debug   Library Name

      1952        134        288          0          0        972   m_ws.l
       246         22          0          4          0        476   mc_w.l
      1676          0          0          0          0       1508   mf_w.l

    ----------------------------------------------------------------------
      3882        156        288          4          0       2956   Library Totals

    ----------------------------------------------------------------------

==============================================================================


      Code (inc. data)   RO Data    RW Data    ZI Data      Debug   

     16438        712      22706        272       7800     331411   Grand Totals
     16438        712      22706        272       7800     331411   ELF Image Totals
     16438        712      22706        272          0          0   ROM Totals

==============================================================================

    Total RO  Size (Code + RO Data)                39144 (  38.23kB)
    Total RW  Size (RW Data + ZI Data)              8072 (   7.88kB)
    Total ROM Size (Code + RO Data + RW Data)      39416 (  38.49kB)

==============================================================================

