:020000040800F2
:10000000A017002049010008310A0008590600081D
:100010002D0A0008EF020008072E0008000000006B
:100020000000000000000000000000003B27000866
:100030000B04000800000000A50A00084D28000875
:100040006301000863010008630100086301000800
:1000500063010008630100086301000863010008F0
:1000600063010008630100086301000863010008E0
:10007000630100086301000863010008F50200083D
:1000800063010008630100086301000863010008C0
:1000900063010008630100086301000863010008B0
:1000A00063010008630100086301000863010008A0
:1000B0006301000863010008630100086301000890
:1000C0006301000863010008630100086301000880
:1000D00063010008212D0008630100086301000886
:1000E0006301000863010008630100086301000860
:1000F0006301000863010008630100086301000850
:10010000630100086301000863010008630100083F
:10011000630100086301000863010008630100082F
:10012000630100086301000863010008630100081F
:10013000DFF810D000F02CF80048004731320008FA
:10014000AFF30080A017002006488047064800470C
:10015000FEE7FEE7FEE7FEE7FEE7FEE7FEE7FEE777
:10016000FEE7FEE75128000831010008D2B201E0A5
:1001700000F8012B491EFBD270470022F6E710B5AC
:1001800013460A4604461946FFF7F0FF204610BD05
:10019000064C074D06E0E06840F0010394E80700D4
:1001A00098471034AC42F6D3FFF7C6FF1852000848
:1001B000385200082DE9F04F87B004468846914632
:1001C0009A46C8F3C71BC9F3C71006904FEAE83533
:1001D0004FEAE936208906FB0057002D20DD2089F3
:1001E000401EA8421CDD002E1ADD6089401EB04270
:1001F00016DDE06830F817000590781CE16831F8EA
:100200001000039021893944E06830F8110004900F
:1002100020893844401CE16831F8100002904CE01D
:10022000BAF80000002D0BDB2189A94208DD002E61
:1002300006DB6189B14203DDE16831F8171000E0A7
:1002400001460591691C00290CDB22898A4209DDDF
:10025000002E07DB6189B14204DD791CE26832F8C7
:10026000111000E001460391002D0EDB2189A94207
:100270000BDD711C002908DB62898A4205DD2289B9
:100280003A44E16831F8121000E001460491691C1B
:1002900000290FDB22898A420CDD711C002909DB51
:1002A00062898A4206DD21893944491CE26832F8B4
:1002B000111000E00146029100BFCBF1FF0203994B
:1002C000059802F017FE0190CBF1FF020299049805
:1002D00002F010FE00900698C0F1FF02DDE9001068
:1002E00002F008FEAAF8000007B0BDE8F08F00BFDA
:1002F000FEE7000010B54FF4003000F049F830B1CF
:100300004FF4003000F014F800200149088010BDBF
:100310001C00002000F0805111B10349086001E089
:100320000249486070470000040402400000024097
:1003300000F0805111B10349086001E002494860B2
:1003400070470000040402400000024021B102682E
:1003500042F00102026004E002684FF6FE731A40A8
:100360000260704701460020002201F0805313B163
:10037000054B1A6801E0054B1A6802EA01030BB14C
:10038000012000E00020704700040240000002400D
:1003900001460020002201F0805313B1054B1A687A
:1003A00001E0054B1A6802EA01030BB1012000E0ED
:1003B0000020704700040240000002401AB10368A8
:1003C0000B43036002E003688B430360704710B582
:1003D0000022026847F6F0739A430C6A8B68234345
:1003E0000C6923434C6923438C692343CC69234321
:1003F0004C6A23438C6A23431A430260CB684360F0
:100400000B6883604B68C36010BD704700B587B050
:100410000121042000F078FB0121084600F054FB84
:100420000320ADF818008DF81A0004208DF81B0089
:1004300006A91C4800F038F80020ADF80C004FF673
:10044000FF70ADF810000020ADF81200ADF80E00FE
:1004500003A94FF0804002F011FC00231A4601214D
:10046000880702F054FB684602F0C8FB0620ADF88E
:10047000080069464FF0804002F06AFB01218807BE
:1004800002F036FB01221146900702F0C0FB00216A
:100490004FF0804002F0C4FB0121880702F02BFBE3
:1004A00007B000BD000801402DE9F04102460025DB
:1004B0000026002000230024002791F803C00CF040
:1004C0000F0591F803C00CF0100CBCF1000F03D025
:1004D00091F802C04CEA050591F800C0BCF1000F8C
:1004E00031D0146800202BE04FF0010C0CFA00F31F
:1004F000B1F800C00CEA03069E4220D183004FF001
:100500000F0C0CFA03F7BC4305FA03FC4CEA040495
:1005100091F803C0BCF1280F06D14FF0010C0CFA82
:1005200000FCC2F814C00AE091F803C0BCF1480F07
:1005300005D14FF0010C0CFA00FCC2F810C0401CB1
:100540000828D1D31460B1F800C0BCF1FF0F34DD2E
:10055000546800202EE000F1080C4FF0010808FA62
:100560000CF3B1F800C00CEA03069E4221D18300CF
:100570004FF00F0C0CFA03F7BC4305FA03FC4CEAEE
:10058000040491F803C0BCF1280F05D100F1080C58
:1005900008FA0CF8C2F8148091F803C0BCF1480FB7
:1005A00007D100F1080C4FF0010808FA0CF8C2F866
:1005B0001080401C0828CED35460BDE8F0810000B4
:1005C000F0B50A46002300240021002500F0004673
:1005D000B6F1004F02D11D4EF16901E01B4E71686A
:1005E000C0F3034583B200F44016B6F5401F08D1AE
:1005F00021F07061154E766826F07066134F7E60AC
:1006000012E000F48016B6F5801F06D1032606FA24
:1006100005F4A14341F0706106E0460D360103FA8E
:1006200006F6B14341F0706122B1460D360103FA7E
:1006300006F6314300F00046B6F1004F02D1034EFA
:10064000F16101E0014E7160F0BD00000000014069
:10065000416170470161704700BFFEE708B50121A5
:10066000042000F051FA0420ADF8000028208DF895
:10067000030069460148FFF717FF08BD0008014065
:100680002DE9F04104460D4616461F462A2000F08B
:1006900095F904F1140188B200F060F906F1140133
:1006A00088B200F05BF92B2000F088F9284600F0B2
:1006B00055F9384600F052F92C2000F07FF9BDE8DA
:1006C000F08100002DE9F05F05460E46174698467A
:1006D000DDF828904FF0010A781B401CA8EB0601BA
:1006E000491C00FB01F400F0F9FC43463A46314650
:1006F0002846FFF7C5FF4FF480511348FFF7A8FFC6
:1007000001211148FFF7A6FF0DE04FF6FE7084426D
:1007100002D9241A834602E04FF0000AA34621467C
:10072000484600F017FABAF1000FEED100BF802161
:10073000064801F0D6FF0028F9D14FF48051024855
:10074000FFF788FFBDE8F09F000C01400038004033
:100750002DE9F84304460D4616461F46DDF8208075
:10076000BBB2B2B2A9B2A0B2CDF80080FFF7AAFF27
:10077000BDE8F88370B504460D4616462B46224662
:1007800029462046FFF77CFF304600F0E7F870BDB1
:1007900008B501210C2000F0B7F941F20300ADF8D3
:1007A000000003208DF8020010208DF80300694638
:1007B0000148FFF779FE08BD000C014010B501F0BB
:1007C000C1FEFFF7E5FF02216248FFF741FF642009
:1007D00002F0F2FB02215F48FFF73CFF642002F0C9
:1007E000EBFB02215C48FFF735FF642002F0E4FBDD
:1007F000112000F0E3F8782002F0DEFB362000F054
:10080000DDF8A02000F0C4F83A2000F0D7F8052069
:1008100000F0BEF8B22000F0D1F80C2000F0B8F8DB
:100820000C2000F0B5F8002000F0B2F8332000F002
:10083000AFF8332000F0ACF8B72000F0BFF8352057
:1008400000F0A6F8BB2000F0B9F8322000F0A0F8C4
:10085000C22000F0B3F8012000F09AF8C32000F0A5
:10086000ADF8152000F094F8C42000F0A7F820207F
:1008700000F08EF8C62000F0A1F80F2000F088F8F4
:10088000D02000F09BF8A42000F082F8A12000F016
:100890007FF8E02000F092F8D02000F079F80820EE
:1008A00000F076F80E2000F073F8092000F070F8E0
:1008B000092000F06DF8052000F06AF8312000F002
:1008C00067F8332000F064F8482000F061F8172042
:1008D00000F05EF8142000F05BF8152000F058F8E6
:1008E000312000F055F8342000F052F8E12000F0FB
:1008F00065F8D02000F04CF8082000F049F80E20F0
:1009000000F046F8092000F043F8092000F040F814
:10091000152000F03DF8312000F03AF8332000F0C7
:1009200037F8482000F034F8172000F031F8142090
:1009300000F02EF8152000F02BF8312000F028F8F8
:10094000342000F025F8212000F038F8292000F0AC
:1009500035F810BD00080140000C014010B50446F8
:100960004FF480510948FFF773FE01210748FFF754
:1009700071FE201201F07EFE204601F07BFE4FF456
:1009800080510248FFF766FE10BD0000000C0140D8
:1009900010B504464FF480510748FFF759FE012176
:1009A0000548FFF757FE204601F064FE4FF48051E2
:1009B0000148FFF74FFE10BD000C014010B5044682
:1009C0004FF480510748FFF743FE01210548FFF728
:1009D0003FFE204601F04EFE4FF480510148FFF7E4
:1009E00039FE10BD000C014008B50121052000F0C2
:1009F0008BF801210B48FFF7E3FD4FF40040ADF801
:100A0000000010208DF8030003208DF802006946D5
:100A10000548FFF749FD4FF400410348FFF71AFE70
:100A200008BD0000000230000008014000BFFEE7E2
:100A30007047000070B5002100230F22C47804B372
:100A4000154C246804F4E064C4F5E064210AC1F1A3
:100A50000403CA40447804FA03F184781440214323
:100A600009010E4C0678A155047804F01F050124F5
:100A7000AC4005786D11AD0005F1E025C5F80041E9
:100A800009E0047804F01F050124AC40044D067809
:100A9000761145F8264070BD0CED00E000E400E062
:100AA00080E100E07047000029B1064A5269024324
:100AB000044B5A6104E0034A52698243014B5A6174
:100AC000704700000010024029B1064AD269024373
:100AD000044BDA6104E0034AD2698243014BDA61D4
:100AE000704700000010024029B1064A1269024313
:100AF000044B1A6104E0034A12698243014B1A61F4
:100B0000704700000010024029B1064A9269024372
:100B1000044B9A6104E0034A92698243014B9A6153
:100B200070470000001002402DE9FC4104460D46CC
:100B300016461F4606480068408833462A46214626
:100B4000CDE90070002000F043FBBDE8FC8100000F
:100B50002C00002070B505460C464FF6FF700A4980
:100B600008800A48008840F4006008490880002195
:100B70000748FFF7EBFB064858384566C465012176
:100B80000348FFF7E3FB70BD1C0000200038004065
:100B90005800024070B5049C1A4D1B4E3560354616
:100BA0002D68698035462D68AA8035462D68EB8012
:100BB000FF25366835800025134E36683581134D84
:100BC000114E3668F560104E3668356100250E4EC0
:100BD0003668B56100260C4D2D68EE6140F217169F
:100BE000094D2D682E62EF26074D2D686E62064D69
:100BF0002D686C61044D2D68A862054D024E366863
:100C0000F56270BD6C1300202C0000203C01002018
:100C1000190F000810B5A6B09620ADF87800462050
:100C2000ADF87A002820ADF87C001E20ADF87E00DB
:100C3000142019901A90C820ADF86C00ADF86E0021
:100C40000020A74909684880A648007810B101280B
:100C50007ED188E0A44B3C22B421002000F06CFC43
:100C60000120A2A114223C23CDE9002102905021B1
:100C700013A801F0C5FA9A480068406998490968C4
:100C800049884FF478420223CDE9002102901A46A8
:100C900013A9002001F0B2F89148006840694FF6AE
:100CA000FF714FF4784294A3CDE900210290B42261
:100CB0000A21002001F03CFA8948006840884FF67C
:100CC000FF710F221423CDE90132CDE90310782002
:100CD000034628223C210090002000F069FD89484D
:100CE0000088642190FBF1F201FB120408461F21E9
:100CF0004FF6FF72CDE904140392069004200A22F5
:100D0000CDE900206423A0223C210290002000F0C5
:100D1000EBFC7C480088282190FBF1F201FB1200DB
:100D2000C0F1140004B24FF2F6604FF478410A2388
:100D30001A46CDE90041029019A9002000F0B8FE42
:100D40004FF6FF704FF47841CDE900106D4800E098
:100D5000B7E0008800F15A036A4802881EA9002003
:100D600000F0D4F9AEE0A0205D49096808801421A4
:100D70000EA8FFF702FA00BF594800684088C72153
:100D8000EF230022CDE9001011460EA800F092FFDB
:100D90005D490989484200EBD071491022915A49B6
:100DA000488900EBD071491023916420249025904C
:100DB0004FF40070009001905248038821AA5249D4
:100DC0000EA801F055FA4FF6FF701F21CDE9001073
:100DD0004C48008800F15B034A4802881EA90EA80F
:100DE00000F094F947480088642190FBF1F201FB80
:100DF000120408461F214FF6FF72CDE90414039236
:100E0000069005200C22CDE90020642328220A2127
:100E100002900EA800F068FC1F204FF6FF7105221B
:100E20000A23CDE90132CDE90310B420C8238C2276
:100E3000114600900EA800F0BBFC32480088A021AB
:100E400090FBF1F201FB120000F10A040B2027A134
:100E50001E225023CDE9002102902246194608A8FF
:100E600001F0CEF91E48006840691D4909684988AB
:100E70004FF478420323CDE900210290002208A913
:100E80000EA800F0BBFF1648006840694FF6FF71DE
:100E90004FF47842CDE9002102901A48048804EB0F
:100EA000D470401000F13C0218A33C210EA801F0C0
:100EB0003FF900210EA800F0A7FB00287FF45CAFEB
:100EC00000E000BF00BF0F480088801C4FF4B471E1
:100ED00090FBF1F201FB12000A49088026B010BD18
:100EE0002C00002070000020680000206973206C36
:100EF0006162656C0000000053435F4755495F4CD9
:100F000043440000720000200452000853435F472E
:100F100055495F50464200002DE9F84304460D460E
:100F200016461F46DDF82080E819431EA019421E10
:100F300029462046CDF80080FFF70AFC10480068DB
:100F40000089D0B10E480068C0680D490968096978
:100F5000884206D00A480068006909490968C860E3
:100F600007E007480068006900F500600449096867
:100F7000C8600020024909680881BDE8F8830000C4
:100F80002C0000202DE9F04305460C469146B5F9AA
:100F90000410B5F90620881A00EBD071491009B287
:100FA000A180A08808B9BDE8F083484602F08AF91C
:100FB000C0F1000809F15A0000B202F083F90646B8
:100FC000B5F90410B5F90620881800EBD0714F1060
:100FD000B8F1000F0BDA08FB07F1A1F57C50DC3803
:100FE000C11700EB5141C91309B2218009E043F652
:100FF000DC7108FB0710C11700EB5141C91309B29E
:101000002180002E0BDA06FB07F1A1F57C50DC38BD
:10101000C11700EB5141C91309B2618009E043F6E1
:10102000DC7106FB0710C11700EB5141C91309B26F
:10103000618020882988084400B2208060886988FF
:10104000084400B260800020E08000BFABE72DE9DB
:10105000F04704460F469446002024E04FEA00295A
:10106000ACF1010A09FB0AF9A3F1010AB9FBFAF292
:10107000110AA2EB0125C5F5807834F9119009FB1E
:1010800008F901F1010A34F91AA005FB0A96B146E4
:101090004FEAE67A06EB1A6A4FEA2A2A0FFA8AFA28
:1010A00027F810A0401C9842D8D3BDE8F087000074
:1010B00010B50146012008E0074A32F81030421E00
:1010C000054C24F81230421C90B25028F4DB421E2A
:1010D000014B23F8121010BD3C11002010B505E0A3
:1010E0004FF40030FFF73EF900B107E006480188F1
:1010F0000088401E044A10800029F1D100BF4FF43F
:101100000030FFF707F910BD1C0000202DE9F04367
:101110008DB006460C4617469846DDE91459142151
:1011200008A8FFF72AF800BF0EB10B98D8B12748DE
:1011300000684088B4F90210B4F904201144CDE9E4
:101140000010B4F90000B4F904C000EB0C03B4F9CA
:101150000200A0EB0C02B4F90000A0EB0C0108A8FF
:1011600000F0A8FD08AE43463A4621463046CDE998
:10117000005900F0C3F8F0B13AB203A92046FFF7D6
:1011800001FF0FFA88F20DF116012046FFF7FAFE73
:1011900000954FF4B473002203A93046019500F086
:1011A000ADF800954FF4B47300220DF116013046EE
:1011B000019500F0A3F80B9828B1002108A800F0D1
:1011C00023FA00B1B0E70DB0BDE8F0832C00002099
:1011D0002DE9F04F8BB004460F4690469946DDF856
:1011E00050A0142106A8FEF7C8FF00BF0CB1099853
:1011F000D8B12B48006841881598814203D128480E
:101200000068408806E026480068027800211598AA
:1012100001F070FE05464B464246394606A8CDE928
:1012200000A500F047FD06AC2FE043463A4602A970
:101230002046CDE9009A00F0A7FD10B90BB0BDE83B
:10124000F08F039E1DE06068301A218948432168B1
:10125000A0EB010B029D10E00BEB0503E06830F8FA
:1012600013100F4800680278159801F043FE0BEB4D
:101270000502E16821F812006D1C0498A842EBDA1F
:10128000761C0598B042DEDA00BF099828B100212B
:1012900006A800F0B9F900B1A8E700BFCEE700004A
:1012A0002C0000202DE9FC4781460F461446984645
:1012B000DDE90A564346224639464846CDE900460E
:1012C000FFF786FF43462A4639464846CDE9005691
:1012D000FFF77EFF681E3B46621C3946CDE90006DB
:1012E0004846FFF775FF681E4346621C4146CDE93C
:1012F00000064846FFF76CFFBDE8FC872DE9FF4F6D
:101300008FB006460C46A08818B9002013B0BDE87F
:10131000F08FA088401C1FFA80FBB4F902005844EB
:10132000B4F900105944CDE90010B4F90200A0EB63
:101330000B03B4F90000A0EB0B020AA9304600F041
:1013400023FD08B90020E1E7B4F906004043099005
:10135000B4F9040040430890B4F90400401C404331
:101360000790B4F90600002804DDB4F90600401E19
:10137000404300E000200690119818B91298B0F58B
:10138000B47F01D0012000E000200490049828B32D
:1013900011985A3000B201F095FF0190119800B2F7
:1013A00001F090FFC0F1000A524600210846019B5F
:1013B00001F062FF039012985A3000B201F082FFF0
:1013C0000190129800B201F07DFFC0F1000A524670
:1013D00000210846019B01F04FFF02900B9FA3E004
:1013E000B4F90200381A404305907068381A318900
:1013F00048433168A0EB010A0A9D8FE0B4F9000070
:10140000291A2A1A059801FB02080798804505DB6E
:10141000B4F90000A84200DA84E07EE00698804536
:1014200008DAB4F90000A84203DDB4F90000C5EB06
:10143000400572E00998804504DA404601F07AFFE1
:101440000E900BE00898804506DD404601F072FFE3
:10145000C0F1FF000E9001E0FF200E900498E0B371
:10146000B4F90210B4F900003B462A4601F004FF2B
:101470008146DDE9021088421EDC039881453CDB91
:101480000298814539DC2B48006800880E99484352
:10149000FF2190FBF1F0C0B201900AEB0502F06869
:1014A00030F81210019A1D9801F024FD0AEB050294
:1014B000F16821F8120030E00398814502DA0298C1
:1014C00081451ADC1B48006800880E994843FF21BB
:1014D00090FBF1F0C0B2019000E00EE00AEB0502D3
:1014E000F06830F81210019A1D9801F003FD0AEB24
:1014F0000502F16821F812000FE00AEB0503F0681D
:1015000030F813100E98C2B21C9801F0F3FC0AEBED
:101510000502F16821F8120000BF6D1C0C98A8426A
:10152000BFF66CAF00BF7F1C0D98B842BFF658AF36
:101530000120EBE62C0000202DE9F0478CB0054699
:101540000E4617461C46142107A8FEF716FE00BFDC
:101550000DB10A9880B12B4800684188E088384472
:10156000401ECDE90001A0883044431E3A46314672
:1015700007A800F09FFB07ADE0883844411EA08813
:101580003044401E3B463246CDE9000103A92846BF
:1015900000F0FAFB10B90CB0BDE8F087D4F8008079
:1015A000049821E06968411AB5F808C001FB0CF104
:1015B000D5F800C0A1EB0C02C11BB4F804C001FBBC
:1015C0000CF18B1B03990AE003EB010C38F81CC0EB
:1015D00002EB010AD5F80C9029F81AC0491CDDF875
:1015E00014C08C45F0DA401C06998142DADA0A9878
:1015F00028B1002107A800F007F800B1A8E700BF54
:10160000C9E700002C0000202DE9F34F81B004460B
:10161000B4F808A0B4F80AB0E668608A401C80B24A
:101620006082218A884201DB00206082029858B9DA
:101630001FFA8BF31FFA8AF20096D4E90001FFF734
:101640006BFC608ABDE8FE8FD4F8049043E000276D
:101650004FF0FF386068A9EB000000FB0AF0E1687A
:1016600001EB4006002526E036F815001D49096803
:101670004988884219D100E06D1C681C36F81000BA
:101680001849096849888842F6D057B106EB4800E6
:10169000BAB20090216801EB080001234946FFF728
:1016A0003BFC00274FF0FF3804E008F1010000B9CF
:1016B000A8467F1C6D1C5545D6DB57B106EB48008C
:1016C000BAB20090216801EB080001234946FFF7F8
:1016D00023FC09F10109606858444845B7DC608A79
:1016E000B0E700002C0000202DE9FF4F87B00F4627
:1016F00090461C4614AD95E8600CDDF868903819EA
:10170000401E069008EB0500401E059004EBD471C6
:10171000B6EB610F03DD204604EBD0714E1005EBF4
:10172000D571B6EB610F03DD284605EBD0714E1085
:10173000AC421BDB1998604390FBF9F03844401E23
:101740001A49096808621898CDE902AB019604901D
:101750000598009042463946DDE9063000F028F849
:1017600040F217111148006801621BE019986843A4
:1017700090FBF9F008EB0901081A401E0B490968B3
:10178000C8611898CDE902AB0196049005980090C5
:1017900042463946DDE9063000F00AF800210348E8
:1017A0000068C1610BB0BDE8F08F00002C00002084
:1017B0002DE9FF4F99B00546DDE9278A142114A8C9
:1017C000FEF7DBFC0AFB0AF0139008FB08F012900E
:1017D00008F1010040431190BAF1000F03DDAAF1B6
:1017E0000100404300E0002010901A9800EB080B25
:1017F0001B9800EB08010F911C98A0EB08000E90BD
:101800002698A0EB08000D900E98A0EB0B000C9012
:101810000F990D98401A0B9000BF0DB1179858B151
:10182000A248006840882699CDE9001014A81AA99A
:101830000EC900F03FFA14AD26991C98CDE90001BD
:1018400007A92846DDE91A2300F09EFA10B91DB059
:10185000BDE8F08F089F0F98049018E16868381A67
:10186000298948432968461A0B98002843DD0F98B8
:10187000874240DD0D980490049887423BDA079C2C
:1018800035E0ABEB0A00A04203DA0E985044A042C8
:101890000EDC3319E86830F81310844800680278C9
:1018A000299801F027FB3219E96821F812001DE0A0
:1018B0007E48006841882A98814217D07B4800689A
:1018C000006AA04212DB79480068C069B8420DDCAA
:1018D0003319E86830F813107448006802782A98C1
:1018E00001F008FB3219E96821F81200641C09981C
:1018F000A042C6DACAE00498381A40430690002095
:101900000290079CCDF814B0BAE00C98002838DD9E
:101910005C4536DD0E9805900598844231DA1399BE
:10192000069888420EDB3319E86830F813105F48D8
:1019300000680278299801F0DDFA3219E96821F887
:1019400012001DE05948006841882A98814217D04A
:1019500056480068006AA04212DB54480068C0691B
:10196000B8420DDC3319E86830F813104F480068AE
:1019700002782A9801F0BEFA3219E96821F81200BB
:101980007DE00598211A221A069801FB0209119898
:10199000814504DB0598844200DD75E06FE0139813
:1019A00081453BDA4148006841882A98814217D036
:1019B0003E480068006AA04212DB3C480068C069EB
:1019C000B8420DDC3319E86830F813103748006866
:1019D00002782A9801F08EFA3219E96821F812008B
:1019E0001098814519DD484601F0A4FC03902F486A
:1019F0000068008803994843FF2190FBF1F0C0B2D2
:101A000001903219E86830F81210019A299801F013
:101A100071FA3219E96821F8120030E01298814514
:101A20001CDD484601F086FCC0F1FF0003901F4812
:101A30000068008803994843FF2190FBF1F0C0B291
:101A400001903219E86830F81210019A299801F0D3
:101A500051FA3219E96821F812000FE0FF200390D3
:101A60003319E86830F81310104800680278299894
:101A700001F040FA3219E96821F8120000BF641C35
:101A80000998A042BFF641AF00BF00BF7F1C0A9873
:101A9000B842BFF6E3AE179828B1002114A8FFF7AB
:101AA000B3FD00B1B9E600BFD1E600002C00002074
:101AB0002DE9FF4F8FB005460C469246DDF878B011
:101AC000218920680844401E0E906189606808449E
:101AD000401E0D90208900EBD071226802EB61015D
:101AE0000C91608900EBD071626802EB610920897A
:101AF00090FBFAFA6189129891FBF0F01290802223
:101B00000021584601F0F6F98346142107A8FEF794
:101B100034FB00BF0DB10A9860B16348006840888B
:101B20000D99CDE90010D4E9001207A80E9B00F032
:101B3000C1F807AD688A40B91C98FFF7B9FA238944
:101B400050225A495A48FFF782FADDE90D10CDE9D3
:101B5000000103A92846D4E9002300F015F910B9C3
:101B600013B0BDE8F08F049E25E0A6EB09011298A2
:101B700091FBF0F200FB121040B16068B04205D05A
:101B8000618960680844401EB04213D103982968F7
:101B9000401A6968711A2A8901FB0208039F06E04E
:101BA000404608F10108EA6822F810B07F1C059849
:101BB000B842F5DA761C0698B042D6DA039F65E0A3
:101BC0002368F81A50B123895B1E834206D00C9B10
:101BD000FB1A93FBFAFC0AFB1C33EBB9049BD5F808
:101BE00004C0A3EB0C03B5F808C003FB0C73D5F8D5
:101BF00000C0A3EB0C08049E05E0EB6823F818B0C6
:101C00002B899844761C069BB342F6DA18B12389D7
:101C10005B1E834200D138E0244B33F91030A9EB2E
:101C20000301431EDFF884C03CF91330A9EB030223
:101C3000914205DD1146634633F91030A9EB0302EA
:101C4000049B8B4201DA0B4600E0049B1946069B7D
:101C5000934201DD134600E0069B1A466B68CB1ADF
:101C6000B5F808C003FB0C73D5F800C0A3EB0C0853
:101C70000E4607E01D9BD5F80CC02CF818302B89B8
:101C80009844761C9642F5DD00BF7F1C0598B8424B
:101C900096DA0A9828B1002107A8FFF7B5FC00B131
:101CA00038E700BF5CE700002C000020DC110020BA
:101CB0003C1100202DE9F04F0C461F46DDE909C814
:101CC0003B1B5B1C1FFA83F9ACEB02035B1C1FFA86
:101CD00083FA002C00DA0024002A00DA00224FEAFE
:101CE00049034FF4006595FBF3F10AEB01035B1E1A
:101CF00093FBF1F30382438A058AAB4223DA204B3C
:101D00001B88002B01DD002301E04FF480631C4D94
:101D10002B801C4B1B681B692D8803EB4503C3609C
:101D20000460438A03FB01234360A0F80890458ABE
:101D3000038A5B1E9D4205D1038A5B1E03FB11A330
:101D4000438100E0418143460689B0F80AB006FBB2
:101D50000BF543EA0343002604E0D0F80CB04BF83F
:101D60002630761C05EBD57EB6EB6E0FF5DBA5F1C4
:101D7000010ED0F80CB02BF81E3000BFBDE8F08F7C
:101D8000300000202C000020F0B50446DDE90556A7
:101D90006068984201DA184600E060684860678928
:101DA00060683844401EB04201DD304603E0678978
:101DB00060683844401EC860CF684868B84201DD9A
:101DC0000020F0BD2068904201DA104600E0206853
:101DD0000860278920683844401EA84201DD284653
:101DE00003E0278920683844401E88608F680868AF
:101DF000B84201DD0020E4E70120E2E72DE9FF4FD2
:101E0000ADF5097D82460F46DDF860B23C461421EF
:101E10000CA8FEF7B2F900BFBAF1000F01D00F987D
:101E200060B1534800684088E168CDE900100CA813
:101E300094E80E00FFF73EFF0DF1300AD4E90201ED
:101E4000CDE9000108A95046D4E90023FFF79CFF23
:101E500020B900200DF50D7DBDE8F08FDDF82C8256
:101E6000DDF83092002500200790069000BF2BE09F
:101E700006A9786901F038F911A941F8250011A8DF
:101E800050F8252005EB45002FAB03EB800107AB95
:101E9000584601F00BF9A8B911A850F8250080B1F7
:101EA000202011A941F8250011A850F8252005EBA4
:101EB00045002FAB03EB800107AB584601F0F6F865
:101EC00001E003E000BF6D1C1E2DD1DB00BF387C9C
:101ED00000F00300022802D0032815D100BFA0683B
:101EE0000799401A0646397C01F00301032906D1FF
:101EF00021683144481C00EBD071491000E03146A4
:101F000088446068814404E02068804460688144BB
:101F100000BF00BF3946504600F080F900261BE0A4
:101F200011AA52F8262096999798CDE9012BCDE970
:101F3000031006EB46002FA901EB80004B464246FA
:101F400021460090504600F015F806EB46002FA9F8
:101F500031F820008044761CAE42E1DB0F9828B1B6
:101F600000210CA8FFF750FB00B155E7079871E777
:101F70002C0000202DE9F04F95B004460D46904608
:101F800099461E9E308814902098008980B2139044
:101F900014984044401E129013984844401E1190DB
:101FA000B1881398401AB6F90810411A2098B0F970
:101FB0000A00081A48441090B6F9060040440F90F1
:101FC0006868484501DA484600E068688146E96883
:101FD0001198814201DD119800E0E8681190119894
:101FE000814502DB15B0BDE8F08F2868404501DA75
:101FF000404600E028688046A9681298814201DDC9
:10200000129800E0A86812901298804500DBE9E77A
:1020100014210AA8FEF7B1F800BF0CB10D9860B109
:102020004248006840881199CDE900104A4641466F
:102030000AA8129BFFF73EFE0AACDDE911104B46E1
:102040004246CDE9000106A92046FFF79DFE00B9F2
:10205000C8E7209842681F9990470290079805901A
:1020600055E061680598401A218948432168A0EB32
:10207000010B10990598401A0490069F41E00F98B3
:10208000A7EB000A294800684188229881420FD0B6
:102090000BEB0703E06830F813102448006802785F
:1020A000229800F027FF0BEB0702E16821F81200ED
:1020B000BAF1000F09DB7088504506DD049800284E
:1020C00003DBB1880498814200DC19E0B27A73889E
:1020D000049800FB03A081B2029800F093FF0390E4
:1020E0000BEB0703E06830F813100398C2B2219895
:1020F00000F000FF0BEB0702E16821F8120000BFBF
:102100007F1C0898B842BADA0598401C05900999D6
:1021100005988142A5DA0D9828B100210AA8FFF799
:1021200073FA00B179E700BF5CE700002C000020E3
:102130002DE9F04F8BB081460E4617469A46DDF8E2
:1021400050B0DDF85880002007902C48006800F15E
:102150001804B9F1000F0FD0D4E90201CDE9000154
:1021600002A94846D4E90023FFF70EFE18B9002063
:102170000BB0BDE8F08F00BF0020069000BF07A99C
:10218000504600F0B1FF054606AB2A4608A9404676
:1021900000F08CFF78B90DB90120E9E70A2D01D0D4
:1021A0000D2D01D1A66822E0202506AB2A4608A9FC
:1021B000404600F07BFFBDF820003044A168884213
:1021C00007DB2668B8F908000744E068B84200DA7F
:1021D00011E01598CDE9028B0195049008A83B46C3
:1021E0003246214600904846FFF7C4FE00BFBDF8C6
:1021F00020000644C3E700BF0020B9E72C00002000
:10220000F0B505AC70CC01604260CF187F1E8760CE
:1022100017197F1EC76006744561F0BD70B586B0A2
:1022200006460D462C46287C00F0040050B14FF6BF
:10223000FF71E068CDE90001304694E80E00FFF739
:1022400031F813E0287C00F0080078B11F204FF629
:10225000FF7103220423CDE90132CDE90310E068C8
:102260000090304694E80E00FFF7A2FA06B070BD69
:102270002DE9FF4F9BB081460F461446DDF8A0B014
:102280001E9800B201F01EF8404216901E9800B24F
:1022900001F00EF815900020149013904FF48C70FC
:1022A0001290F0201190159901FB0BF0C11700EB73
:1022B000116109121A91299A169901FB02F0C117AE
:1022C00000EB116109121991169901FB0BF0C1176E
:1022D00000EB116109121891299A159901FB02F07E
:1022E000C11700EB116109121791202109A8FDF710
:1022F00044FF38890B9079890E9138890F9079893C
:102300001091002095E009A951F830106368CA1AAD
:1023100009A901EBC0014968A368C91A04911A9977
:102320005143DDF860C0049B03FB0C13E16803EB31
:10233000C1355142199B5943DDF85CC0049B03FB36
:102340000C13216903EBC1362B464FEAE57C05EB04
:102350005C4CB4F900E0CEEBEC3EDDF848C0E6455D
:1023600002DDDDF848C008E029464FEAE57C05EBD0
:102370005C4CB4F900E0CEEBEC3C0FFA8CFCCDF8F1
:1023800048C02B464FEAE57C05EB5C4CB4F900E015
:102390000EEBEC3EDDF850C0E64502DADDF850C049
:1023A00008E029464FEAE57C05EB5C4CB4F900E017
:1023B0000EEBEC3C0FFA8CFCCDF850C033464FEAE4
:1023C000E67C06EB5C4CB4F900E0CEEBEC3EDDF8CD
:1023D00044C0E64502DDDDF844C008E031464FEA7E
:1023E000E67C06EB5C4CB4F900E0CEEBEC3C0FFA7B
:1023F0008CFCCDF844C033464FEAE67C06EB5C4CDF
:10240000B4F900E00EEBEC3EDDF84CC0E64502DA34
:10241000DDF84CC008E031464FEAE67C06EB5C4C48
:10242000B4F900E00EEBEC3C0FFA8CFCCDF84CC09C
:10243000401C0428FFF667AFDDE91310CDE9000169
:1024400005A94846DDE91132FFF79EFC10B91FB01F
:10245000BDE8F08F1598000290FBFBF01A901698DB
:10246000000290FBFBF0199016980102299891FB4D
:10247000F0F0189015980102299891FBF0F0179050
:10248000DDF8188059E02069A8EB0000189948434E
:102490006168A0EBC13004902069A8EB0000179997
:1024A0004843A16800EBC1300390D9F80400A8EBC1
:1024B0000000B9F808104843D9F80010401A0290FB
:1024C000DDF814A034E0E068AAEB00001A99484354
:1024D0000499451AE068AAEB00021999039801FBD8
:1024E00002062846E91705EB5141C9130191304610
:1024F000F11706EB5141C91300910198002815DB33
:1025000039890198814211DD009800280EDB798914
:10251000009881420ADDD9F80C100298504401EB72
:102520004003324629463846FDF744FE0AF1010AC7
:1025300007985045C7DA08F1010808984045A2DA23
:1025400000BF84E700B593B001211820FEF7DCFA44
:1025500001210920FEF7D8FA4FF46040ADF8480099
:1025600003208DF84A0018208DF84B0012A93C4832
:10257000FDF79AFF4FF460413948FEF76BF80121EF
:102580008803FEF7A1FA01218803FEF7ADFA0021C6
:102590004FF48040FEF7A8FA0020ADF834004FF465
:1025A0008270ADF836000020ADF838000220ADF89A
:1025B0003A000120ADF83C004002ADF83E0000209A
:1025C000ADF84000ADF842000720ADF844000DA979
:1025D000244800F094F80F208DF8040000208DF8B6
:1025E000050001208DF806008DF8070001A8FEF710
:1025F00021FA012202211B4800F06AF80121084655
:10260000FEF752FA17480C30029017480068039002
:102610001020049015480068059000200690802046
:102620000790400008908000099000200A904FF425
:1026300040500B9000200C9002A90D48FDF7C7FEFA
:10264000012202210A48FDF7B9FE01210848FDF7E1
:102650007DFE0121034800F02FF813B000BD0000FB
:10266000000C014000380040180000201400002039
:102670005800024010B504460E480088C0F30A0016
:102680000C49088000BF02210A4800F02AF80028FF
:10269000F9D02146074800F030F800BF0121054875
:1026A00000F01FF80028F9D0024800F023F8C0B26B
:1026B00010BD00000038004021B1028842F0400205
:1026C000028004E002884FF6BF731A400280704710
:1026D0001AB183880B43838002E083888B43838015
:1026E00070470246002013890B400BB1012000E027
:1026F000002070470146888970478181704710B576
:102700000022028802F441520B884C8823438C88B3
:102710002343CC8823430C8923434C8923438C894E
:102720002343CC8923431A430280838B4FF2FF74E7
:10273000234083830B8A038210BD704710B500F0DD
:1027400001F810BD0CB500200190009033480068DE
:1027500040F480303149086000BF3048006800F420
:10276000003000900198401C0190009820B94FF66D
:10277000FF7101988842F0D12848006800F40030C9
:1027800010B10120009001E0002000900098012885
:1027900043D12348006840F01000214908600846F2
:1027A000006820F0030008600846006840F002005E
:1027B00008601A48406819494860084640684860FF
:1027C0000846406840F4806048600846406820F44D
:1027D0007C1048600846406840F4E81048600846AD
:1027E000006840F08070086000BF0C48006800F08E
:1027F00000700028F9D00948406820F0030007491C
:1028000048600846406840F00200486000BF034846
:10281000406800F00C000828F9D10CBD00100240FF
:1028200000200240042808D14FF0E021096941F05E
:1028300004014FF0E022116107E04FF0E021096947
:1028400021F004014FF0E022116170477047000051
:1028500010B51348006840F00100114908600846AF
:102860004068104908400E494860084600680E4913
:1028700008400B4908600846006820F48020086082
:102880000846406820F4FE0048604FF41F0088604E
:10289000FFF754FF4FF000600449086010BD0000CE
:1028A000001002400000FFF8FFFFF6FE08ED00E018
:1028B000F0B50C46154600220021068C4FF6FE7737
:1028C0003E400684028B018C4FF60C7632407E1C13
:1028D00006EA03162E433243104EB0420ED0104E7D
:1028E000B0420BD0B0F1804F08D00E4EB04205D0B0
:1028F0000D4EB04202D00D4EB04206D14FF6FD76DD
:10290000314044F00106314305E04FF6F5763140A1
:1029100044F00106314302830184F0BD002C0140E4
:10292000003401400004004000080040000C00405A
:10293000F0B50C461546002200210026078C4FF604
:10294000EF7C07EA0C070784028B018C4FF6FF77B8
:1029500007EA041640F6FF473A404FF6FF7707EACA
:1029600003373A434FF6FF7707EA05273A43114FFB
:10297000B8420ED0104FB8420BD0B0F1804F08D003
:102980000E4FB84205D00E4FB84202D00D4FB8429C
:1029900006D14FF6DF77394046F01007394305E09E
:1029A0004FF65F77394044F01007394302830184C2
:1029B000F0BD0000002C0140003401400004004044
:1029C00000080040000C0040F0B50C4615460022FF
:1029D00000210026078C4FF6FF6C07EA0C070784DE
:1029E000828B018C4FF6FF7707EA04264FF60C77AF
:1029F0003A404FF6FF7707EA03172F433A43114F48
:102A0000B8420ED0104FB8420BD0B0F1804F08D072
:102A10000E4FB84205D00E4FB84202D00D4FB8420B
:102A200006D14FF6FF57394046F48077394305E029
:102A30004FF2FF57394044F4807739438283018451
:102A4000F0BD0000002C01400034014000040040B3
:102A500000080040000C0040F0B50C46154600226E
:102A600000210026078C4EF6FF7C07EA0C0707843E
:102A7000828B018C4FF6FF7707EA043640F6FF475A
:102A80003A404FF6FF7707EA05273A434FF6FF77BC
:102A900007EA03373A43114FB8420ED0104FB842FD
:102AA0000BD0B0F1804F08D00E4FB84205D00E4F7A
:102AB000B84202D00D4FB84206D14DF6FF773940EB
:102AC00046F48057394305E047F6FF57394044F450
:102AD0008057394382830184F0BD0000002C0140FF
:102AE000003401400004004000080040000C004099
:102AF000CA430282704721B1028842F0010202807B
:102B000004E002884FF6FE731A4002807047F0B569
:102B10000C4615461E460021002200230189028B27
:102B2000038C4FF6F877394021434FF6FC473A4083
:102B300040F201173A434FF6DD773B404FF6FF77FF
:102B400007EA06172F433B43018102830384F0BD4C
:102B500070B505460C46244885420ED02348854270
:102B60000BD0B5F1804F08D02148854205D02148CF
:102B7000854202D02048854200D100E000BF208875
:102B800050B92389A28861882846FFF791FEE18821
:102B9000284600F047F825E0208804280AD1238938
:102BA000A28861882846FFF7C3FEE188284600F026
:102BB00042F817E0208808280AD12389A288618872
:102BC0002846FFF701FFE188284600F041F809E0B8
:102BD0002389A28861882846FFF73EFFE1882846BE
:102BE00000F03FF870BD0000002C014000340140AF
:102BF0000004004000080040000C0040002101805B
:102C00004180012181800021C180018170471AB17A
:102C100083890B43838102E083898B4383817047DF
:102C200081847047028B4FF6F3731A400283028B44
:102C30000A4302837047028B4FF2FF331A4002832C
:102C4000028B4FF6FF7303EA01231A430283704796
:102C5000828B4FF6F3731A408283828B0A438283FE
:102C60007047828B4FF2FF331A408283828B4FF67C
:102C7000FF7303EA01231A4382837047002202880C
:102C80001D4B98420ED01D4B98420BD0B0F1804F97
:102C900008D01B4B984205D01A4B984202D01A4BD1
:102CA000984204D14FF68F731A404B881A43174B42
:102CB000984207D0164B984204D04FF6FF431A4073
:102CC000CB881A4302808B8883850B8803850A4B47
:102CD00098420BD0094B984208D00E4B984205D031
:102CE0000D4B984202D00D4B984201D10B7A0386CE
:102CF0000123838270470000002C01400034014012
:102D00000004004000080040000C0040001000409B
:102D100000140040004001400044014000480140D0
:102D200010B540F225511D4800F03EF810B31B4885
:102D300000F064F8C4B21A48008800F40040C8B932
:102D40001748008800F4804060B10A2C03D00020AE
:102D50001349088020E01248008840F400401049E0
:102D6000088019E00D2C06D10D48008840F4804001
:102D70000B49088010E00A480088C0F30D0009499B
:102D80000C5407480088401C054908800846008804
:102D9000C72801DD0020088010BD00000038014078
:102DA000280000207400002070B502460024002393
:102DB0000025002040F66A16B14200D100BFC1F3E1
:102DC000421501F01F03012606FA03F3012D02D17B
:102DD0009689334006E0022D02D1168A334001E085
:102DE000968A33400C12012606FA04F41688344001
:102DF00013B10CB1012000E0002070BD01468888AD
:102E0000C0F30800704700BFFEE702E008C8121FC9
:102E100008C1002AFAD170477047002001E001C1C3
:102E2000121F002AFBD170472DE9F04107460D46DD
:102E30003C69A0680068A84203D8A0688088A842BE
:102E400002D20020BDE8F081A069A84201D1E66964
:102E500006E0AAB2A368198A986800F06FF80646DF
:102E6000701C50B1606800EBC601E661A561206886
:102E70000A68C2F313021044E4E70020E2E72DE9F8
:102E8000F04780460D4616469946D8F81040A0688F
:102E90000068B04203D8A0688088B04202D2002007
:102EA000BDE8F087A069B04201D1E76906E0B2B29F
:102EB000A368198A986800F041F80746781CB8B1F1
:102EC000606800EBC701E761A6610868000D288013
:102ED0004879A8800879688091F90600E88091F91E
:102EE00007002881608AC0F38320A8720120D7E7F9
:102EF0000020D5E770B50346F02A01DD184670BD05
:102F0000102A01DA0846FAE74FF61F0001EA00042A
:102F10001840001B9610704304EB901401F4FC65FC
:102F200003F4FC60401B504305EB10254FF61F06D1
:102F300004EA060005F4FC663043E0E770B503469A
:102F40000C460025661E0FE0A819411033F8110049
:102F5000904201DD4E1E07E033F81100904201DA85
:102F60004D1C01E0084670BDB542EDDD4FF0FF306D
:102F7000F9E7000010B56FF00400FFF753FC0A48B2
:102F800000680A49B0FBF1F009490870084600786A
:102F900000EB4001C1EBC0104FF6FF7101EAC00029
:102FA0000449088010BD00000000002000127A00D3
:102FB0001E000020200000200146114A12884A43CA
:102FC0004FF0E0235A6100229A611A46126942F0DA
:102FD00001021A6100BF4FF0E022106900F0010207
:102FE0001AB100F48032002AF5D04FF0E0221269C5
:102FF00022F001024FF0E0231A6100229A6170472B
:1030000020000020F0B5034615460022012D31D0E6
:10301000022D19D0042D03D0082D43D15A5C42E073
:10302000084601EBD07676109E5D0C4601EBD47716
:103030007F10A1EB4707C7F10107BF003E4106F033
:103040000F0202EB02122EE0CE1701EB9676B610BD
:103050009E5DCF1701EB9777BF10A1EB8707C7F1F4
:1030600003077F003E4106F0030202EB021000EB73
:10307000800218E00846CE1701EB5676F6109E5DEA
:103080000C46CF1701EB5777FF10A1EBC707C7F12D
:1030900007073E4106F001060EB1FF2600E00026BC
:1030A000324600E000BF00BF1046F0BD2DE9F04100
:1030B00005460C4617461E46D5F8108000233A46B2
:1030C00021462846D5F800C0E04758B12088B8F816
:1030D00010100844208021883068084430600120A6
:1030E000BDE8F0810020FBE708B502460023002080
:1030F000009001B969460868105C00F0800028B9AA
:103100000868135C0868401C08608FE00868105C61
:1031100000F0E000C02817D10868105CC006430D1D
:103120000868401C08600868105C00F0C000802837
:1031300001D0002008BD0868105C00F03F00034487
:103140000868401C086071E00868105C00F0F0003E
:10315000E02828D10868105C0007030C0868401CB0
:1031600008600868105C00F0C000802801D00020D2
:10317000E0E70868105C00F03F0003EB801308688C
:10318000401C08600868105C00F0C000802801D076
:103190000020CFE70868105C00F03F000344086897
:1031A000401C086042E00868105C00F0F800F0285D
:1031B00039D10868105C4007C30A0868401C0860E1
:1031C0000868105C00F0C000802801D00020B1E742
:1031D0000868105C00F03F0003EB00330868401CF7
:1031E00008600868105C00F0C000802801D0002052
:1031F000A0E70868105C00F03F0003EB801308684C
:10320000401C08600868105C00F0C000802801D0F5
:1032100000208FE70868105C00F03F000344086856
:10322000401C086002E00868401C0860184681E7FE
:1032300008B5FFF79FFEFDF7D7FBFDF70FFAFDF787
:10324000E5F8FDF7BBFA0A484FF478434FF6FF72F2
:10325000002100900748FDF79DFCEF2340F2171274
:1032600000210846FDF760FC01E0FDF7D3FCFCE718
:10327000540000207507000830B50446121B5B1A85
:103280003BB9002A01DD094D01E047F6FF752846EC
:1032900002E0150295FBF3F0002B03DD47F6FF7506
:1032A000284402E0A0F5FE40FF3830BD0180FFFF5A
:1032B00010B50446A4F15A0108B200F003F84042E8
:1032C00000B210BD014600204FF4B47291FBF2F33E
:1032D00002FB1311002902DA01F5B47211B25A2966
:1032E00003DA134A32F9110020E05A2908DBB42925
:1032F00006DAC1F1B40211B20D4A32F9110015E03B
:10330000B4290BDBB1F5877F08DAA1F1B40211B261
:10331000074A32F81120524210B207E0C1F5B472E8
:1033200011B2034A32F81120524210B27047000025
:103330004C49000830B50146B1F1804F01D9002059
:1033400030BD4FF480420024002501E092006D1C46
:103350009142FBD800BF1319994201D3C91AD4185E
:1033600049005008021EF6D124FA05F0C0B2E7E782
:103370006EE06FE05FD04FC03FB02FA01F90000005
:103380004EB09FF23DA0BFA0CF90BF90CF80AF8046
:10339000BF707F609F505F406F2017102700006E46
:1033A00005F000007D07E000009C09C0002FFFFF32
:1033B000FF0018EC8EC80000E60E700049FA9FB6B8
:1033C000007FFFFFFA0005F14F100006E06E0000DD
:1033D00008C08D00000008F000000AF30003DFFFC2
:1033E000B10BFD9DD10EF600100CFD500002DFFC6C
:1033F000200008EFE200002EF707612EF72EFFFFF6
:10340000E205BEFC400008F0000005800006DD601B
:10341000003E20002EAAF300B900007F32F804E23B
:1034200000008F11F90B9000007F32F84E28DC303D
:103430002EAAF3C96F8CD005DD64E1AE06F300005F
:103440000C80CD04F500005E10AE06F40000C8004C
:103450006F8CE10005E10008EC40003BEC3000001F
:1034600001EEBED0000004FB0CF1000003FD6FD0A4
:10347000000000DFFD30331005EFF402EF203EFDC9
:10348000FE39FB008FC0BFEEE3007FE21DFFD500D9
:103490002EFFEFFFFF5003BEDB428D10BFA0BF9099
:1034A000AF807F605F401710006104F90BF32FC0FD
:1034B0007F70AF50BF30CF20CF30BF508F604FA054
:1034C0000DE106F600C50440000EC00009F400033B
:1034D000FB0000DE0000CF4000AF50008F60009F77
:1034E0005000BF4000DF2001ED0007F7000DE100B4
:1034F000098000000E5000053F83304FFFFFA002FF
:10350000DFF60003FCE90004A069000009E2000006
:1035100009F2000009F2007FFFFFFE5BBDFCBB006B
:1035200009F2000009F2000006A10005A6000DFE48
:103530000007EF2000AE001AF7000D700000000039
:103540004FFF903BBB70000008E70EFC07D6000C55
:10355000B0000E80003F50007F1000AD0000DA0088
:1035600002F70005F30008E0000CC0000E80003FE9
:1035700050007F20009D0000006CEA1006FFEFD095
:103580000DF60DF63FF108FB5FE006FC6FE006FD6F
:103590004FE007FC3FF108FA0DF60DF606FFEFD0FD
:1035A000006CEA1015BFB0009FFFB00047CFB0001D
:1035B00000AFB00000AFB00000AFB00000AFB0008F
:1035C00000AFB00000AFC000DFFFFFA0DFFFFFA033
:1035D00003ADD9103EFEFFB00A607FF200002FF469
:1035E00000004FF10000CFB00007FE30005FF60092
:1035F00005EF90114EFFEFFC6FFFFFFC03ADDA20EB
:103600002EFEFFD105505FF500004FF2004CEE603A
:10361000006FFE6000015EF600000CFA0C514EF8DF
:103620006FFFFFE305BDDA300005FFF000000DFF7E
:10363000F000007FBFF00001EE5FF0000AF84FF0ED
:10364000003FE14FF000AFEDDFFD20AFFFFFFF20B7
:1036500000004FF00000004FF00000004FF00008A5
:10366000FFFFF409FFFFF40AF811100BF700000B3D
:10367000FDEC5009ECEFE300101EF900000CFA0B12
:10368000515FF76FFFFFD105ADDA20002ADC810220
:10369000EFFFF70AFB12701FF200003FE6DD804FDC
:1036A000FECFF73FF307FC1FF105FD0BF709FB0405
:1036B000EFEFF4003BEC504FFFFFFC4FFFFFFB012F
:1036C000112EE300009F800002EE100007FA0000B8
:1036D0000CF600001FF400003FF200005FF1000054
:1036E0006FF000007DEB3008FECFE10DF50BF50C1F
:1036F000F70AF306FE9EB000CFFF600AF6AFF51F93
:10370000D009FA3FE109FB0CFECFF6019DEC500118
:103710009DD8000CFEEFB04FE21EF46FC009F85FB9
:10372000E00BFA1EFEDFFC03CEA9FA00000AF80344
:10373000515EE31EFFFF9005BEC70007D50EFC08D3
:10374000E70000000008E60EFC07D607D5000EFCD7
:103750000008E70000000000000005A5000DFE10B5
:1037600007EF20009E1007E9001EA00001000000E6
:1037700000016B00049EFE17DFFC737FF920004DF3
:10378000FEB610005AEFEB000017DE000000037FCA
:10379000FFFFFE5BBBBBBB00000000000000007F22
:1037A000FFFFFE5BBBBBBB693000007FFC71000507
:1037B000AEFEA400005DFE0038DFFB4DFFD7207E8B
:1037C000A400002100000003ADD8001EFFFF70041C
:1037D00051BFB00000CF900008FD10003EE3000094
:1037E0007FB00000010000007E800000CFD000000C
:1037F0006D7000000007CEDA60000003CEC89CFBAD
:1038000010004ED300006EA000DD10000007F4078A
:10381000F503BD9F40E70DC02EEAEF10CA1F909F31
:1038200050DD00CA3F70CF02FA00E82F80AFACEA4B
:1038300019E20EB02CD78FFE600AE300000562008B
:1038400002ED4000000000004EFB88BB00000001BC
:103850008BEEC600000000EFF300000005FEF8004C
:10386000000009F9FC0000000DF2EF2000003FD03D
:10387000BF6000007F907FA00000CFEDEFE000016F
:10388000EFFFFFF40005FD000BF9000AFA0008FD48
:10389000000EF70005FF20BFFFEC6000BFEDFFF654
:1038A00000BFA01DF900BFA00DF700BFECEFB000F6
:1038B000BFFFFFD400BFA02AFE00BFA005FF20BFAE
:1038C000A01AFE00BFEDEFF900BFFFEC700000068C
:1038D000BEC80000AFFFFF9006FF935B100DFB001A
:1038E00000001FF60000003FF40000001FF600007B
:1038F000000EFA00000008FF835C3000CFFFFFB02D
:103900000007CEC800BFFEC81000BFFFFFE200BF27
:10391000A15EFB00BFA007FF20BFA003FF40BFA028
:1039200001FF60BFA003FF40BFA007FF20BFA15E53
:10393000FB00BFFFFFE200BFFEC81000BFFFFFC0DB
:10394000BFFFFFC0BFB11110BFA00000BFFFFF202D
:10395000BFFFFF20BFB11100BFA00000BFB1111019
:10396000BFFFFFE0BFFFFFE0BFFFFFC0BFFFFFC023
:10397000BFB11110BFA00000BFA11100BFFFFF30F9
:10398000BFFFFF30BFA00000BFA00000BFA000002D
:10399000BFA000000005BDC92000AFFFFFD005FF9C
:1039A000A34B400DFC0000001FF60000003FF40791
:1039B000FFF52FF507FFF50EFA000CF508FF933D14
:1039C000F500CFFFFFF40006BEDA30BFA000CF90B5
:1039D000BFA000CF90BFA000CF90BFA000CF90BFEE
:1039E000FFFFFF90BFFFFFFF90BFB222DF90BFA09D
:1039F00000CF90BFA000CF90BFA000CF90BFA0008D
:103A0000CF90BFA0BFA0BFA0BFA0BFA0BFA0BFA0BE
:103A1000BFA0BFA0BFA0BFA000006FF000006FF06C
:103A200000006FF000006FF000006FF000006FF01A
:103A300000006FF000007FE02C84CFD05FFFFF60BC
:103A400005BEC600BFA009FE20BFA04FF500BFA164
:103A5000DFA000BFAAFD1000BFEFF60000BFFFFD12
:103A60000000BFFCEF7000BFE29FE100BFA01EF9A5
:103A700000BFA007FE20BFA000DFB0BFA00000BFB6
:103A8000A00000BFA00000BFA00000BFA00000BFBA
:103A9000A00000BFA00000BFA00000BFB11110BF78
:103AA000FFFFB0BFFFFFB0BFE1000CFF10BFF6008B
:103AB0002FFF10BFFB007FFF10BFDF20CEEF10BF36
:103AC000AF72FAEF10BF6FB7F6FF10BF5CECE3FF09
:103AD00010BF66FFA3FF10BF61EF43FF10BF60BEC2
:103AE00003FF10BF600003FF10BFE000DF70BFF7EF
:103AF00000DF70BFFD00DF70BFCF70DF70BF7FD011
:103B0000CF70BF6BF6CF70BF74FCAF70BF80BFDFEC
:103B100070BF804FFF70BF800CFF70BF8004FF70CC
:103B20000008CEC8000001CFFFFFC10008FE737E71
:103B3000F8000EFA000AFE002FF50005FF203FF402
:103B40000004FF301FF50006FF100EFA000AFE0009
:103B500008FF737FF80000CFFFFFC0000008CEC849
:103B60000000BFFFEB5000BFFFFFF600BFA02CFC22
:103B700000BFA007FE00BFA02CFC00BFEEFFF500B9
:103B8000BFFFDB4000BFA0000000BFA0000000BFDF
:103B9000A0000000BFA00000000008CEC800000187
:103BA000CFFFFFC10008FF737FF8000EFA000AFE86
:103BB000002FF50005FF103FF40004FF302FF50043
:103BC00005FF200EF90009FE0009FE404EF9000233
:103BD000DFFEFFD100002BFFFB200000006FF8107C
:103BE00000000009FFFE800000005BEE90BFFFECCC
:103BF0006000BFFFFFF700BFA02BFD00BFA006FEC7
:103C000000BFA02CFC00BFEEFFF600BFFFFF70005E
:103C1000BFA0CFB000BFA05FF400BFA00DFC00BFED
:103C2000A006FF50005BEC910006FFFFFC000DFBBF
:103C300034B3000EFB0000000BFFE8200001AFFFD3
:103C4000E5000004BFFE20000006FF5009C538FF54
:103C5000303EFFFFFB00029CEC70009FFFFFFF80E7
:103C60009FFFFFFF80011CFB1100000BFA0000000A
:103C70000BFA0000000BFA0000000BFA0000000B2A
:103C8000FA0000000BFA0000000BFA0000000BFA2B
:103C90000000CF9000CF80CF9000CF80CF9000CF9A
:103CA00080CF9000CF80CF9000CF80CF9000CF808A
:103CB000BFA000DF60AFC001EF506FF639FE100DFE
:103CC000FFFFF800019CEC70000EF90008FE000AEE
:103CD000FC000BFA0006FF100EF60002FF403FF159
:103CE0000000DF807FC000008FB0AF8000004FE099
:103CF000DF4000000EF5FE0000000AFCFA000000A4
:103D000006FFF600000002FFF20000AFC008FB0053
:103D10008FB08FE00BFE00AF905FF10EFF30CF60F1
:103D20002FF22FEF60EF400EF45FAF91FF200CF603
:103D30008F5FC3FE000AF8BE1EE5FC0007FADC0B2D
:103D4000F9F90005FDFA08FDF70002FFF705FFF499
:103D50000000EFF402FFF2006FF400EF800DFB05AE
:103D6000FE1006FF2BF90000DFAEE200005FFF90BF
:103D700000001FFF4000008FFFA00001EF8FF30045
:103D800008FD0DFA001EF606FF308FE100EFB00DC2
:103D9000FA002FF607FE107FE001EF60CF80009F52
:103DA000B3FE10002EEAF900000AFFF3000004FF42
:103DB000B0000000FF70000000FF70000000FF7006
:103DC000000000FF70000FFFFFFF100FFFFFFE005D
:103DD00001114FF7000000CFD0000006FF400000A7
:103DE0001EFA0000009FE1000003FF7000000CFDC0
:103DF0001111005FFFFFFF207FFFFFFF2024439F83
:103E0000FC9F309F309F309F309F309F309F309F6E
:103E1000309F309F309F309FFC34446F30002F60C4
:103E2000000E90000BC00007F10004F40001F70041
:103E300000CB00009E00006F20003F60000E90004D
:103E40000BC00007E11444003FFF30009F30009F8B
:103E500030009F30009F30009F30009F30009F3027
:103E6000009F30009F30009F30009F303FFF301494
:103E70004410000DF600005FFC0000AFBF3001EC05
:103E80004F9007F70EE00DF209F505500253CFFFF2
:103E9000FFFC455555540000000A70006FF50007FF
:103EA000FE20005A00039CEB300CFFFFE104513E62
:103EB000F6006ADFF80BFB6EF83FF12EF82FFEEFED
:103EC000F806DD88F800000000FF700000FF7000B9
:103ED00000FF700000FF9BEB20FFFFFFD0FFB17FD2
:103EE000F5FF700EF8FF700EF7FF917FF4FFEFFF04
:103EF000B0FE3BE910004BEC7007FFFF801EFA1389
:103F0000005FF400005FF400002FFA132008FFFFA9
:103F1000C0006CEC600000000000000004FF3000F6
:103F20000004FF30000004FF30008DD8FF3009FF8F
:103F3000FFFF301EF927FF304FF304FF305FF3041B
:103F4000FF302FF917FF300BFFFFFF30019DC5DF5A
:103F500030006CEB3008FFEFE22EE408F85FFFFF63
:103F6000FA5FFA99962EF8003008FFEEE2006CEC4A
:103F700081005CEC0003FFEB0007FE10009EFFF4E5
:103F8000009EFFE40008FD000008FD000008FD00A1
:103F90000008FD000008FD000008FD0000019DFF75
:103FA000FF300CFDCFFC303FF20EF2001FF53FF169
:103FB0000007FFFF80000BE66300000EFEDDB5008A
:103FC00008EEFFFF303FA003FF406FD217FE101D29
:103FD000FFFFE400016775000000000000FF7000B3
:103FE00000FF700000FF700000FF79DC40FFEFFF72
:103FF000D0FFC38FF3FF703FF4FF703FF4FF703FBB
:10400000F4FF703FF4FF703FF404610EF70AD30031
:10401000000FF70FF70FF70FF70FF70FF70FF70F67
:10402000F700361000EF80009D4000000000EF70A8
:1040300000EF7000EF7000EF7000EF7000EF7000A5
:10404000EF7000EF7002FF608EFE20AEC5003310EF
:104050000000FF600000FF600000FF600000FF60E4
:104060007FE3FF64EF50FF8EF700FFFFE000FFFFEC
:10407000F800FFC5FE30FF60BFC0FF602EF755207F
:10408000FF70FF70FF70FF70FF70FF70FF70FF70B8
:10409000EF80CFF43CE5FF3ADB33BEA0FFEFFFDE5D
:1040A000FFF7FFC39FF93CFBFF705FF209FCFF7055
:1040B0004FF209FCFF704FF209FCFF704FF209FC50
:1040C000FF704FF209FCFF29DC40FFEFFFD0FFC378
:1040D0008FF3FF703FF4FF703FF4FF703FF4FF7009
:1040E0003FF4FF703FF4006CEC500008FFFFF60057
:1040F0002EF819FE005FF304FF305FF304FF302E4B
:10410000F819FE0008FFFFF600006CEC5000FF5BA2
:10411000EB20FFFFFFD0FFB17FF6FF700EF8FF70BE
:104120000EF7FFA17FF4FFFFFFB0FFACE910FF70B7
:104130000000FF700000FF700000008DD6CF300936
:10414000FFFFFF301EF927FF304FF304FF305FF30E
:1041500004FF302FF917FF300BFFFFFF30009DC821
:10416000FF30000004FF30000004FF30000004FFB7
:1041700030FF19E5FFCFF3FFE730FF9000FF70003D
:10418000FF7000FF7000FF700002BED9100DFEEF3F
:10419000402FF404000CFFB400007DFF500510CF49
:1041A000905FEDEF5018CEC60000110004FC000631
:1041B000FC00AEFFFAAEFEE90AFC000AFC000AFCB5
:1041C0000009FE1005FFEA007DEB1FF604FF201F2B
:1041D000F604FF201FF604FF201FF604FF201FF641
:1041E00004FF200EFA3AFF200BFFFEFF2002CEA2B2
:1041F000EF209FC003FF204FF107FC000EF50BF7E7
:104200000009F90EF20004FC4FC00000EF9F70009F
:1042100000AFEF3000005FFD00007FE00CF703FE11
:10422000003FF21FFB06FC000EF54FEE09F8000BF5
:10423000F88F9F3CF50007FABD5F6EF10004FCEAC1
:104240002FBFD00000EFF70EFF900000BFF40BFF70
:1042500050005FF40BFA000BFC2FE20002EFBF905E
:1042600000008FFE100000AFFD000004FDDF8000A5
:104270000DF65FE3007FE10CFC009FC003FE103FE2
:10428000F207FB000CF70CF60006FC1EE10001EE45
:104290006FA000009FDF5000003FFE0000000DFAFD
:1042A0000000003EF400000CFFB000001FD9100019
:1042B000000FFFFFE00EEEFFC00008FE20003EF7FB
:1042C0000000CFB00008FE20003FFEEEE05FFFFFE1
:1042D000F000043000DFC003FC0004FA0003FB0020
:1042E00002FB0008FA007FC2004CF60003FB00034B
:1042F000FB0003FA0003FC0000DFC0001440009E36
:104300009E9E9E9E9E9E9E9E9E9E9E9E9E9E9E1457
:1043100030003FF70004FC0002FD0002FC0002FB3D
:104320000001FE30006FF100CFA002FC0002FB0094
:1043300002FC0004FC003FF8001430000399204206
:10434000003EFFECEC001A229EA2009DAAAAAAAA97
:10435000D898200000028891910000191891190046
:10436000009118910370074018910074480018914B
:104370000009A0001891001BA000189100A33800AC
:1043800018910660065018913A0000921892B000F9
:10439000000B289B20000002B89DAAAAAAAAD80058
:1043A000000000000000000DC100EF1000006FFCD5
:1043B000CCEFCCC700DFBFFFFFFFF907FF0000EF26
:1043C00010004EFF0FFFFFFFF4AFFF0FD9EFADF46A
:1043D0004EEF0FB0EF19F403DF0FFFFFFFF400DF24
:1043E00009BAFE999200DF0CE7FB000000DF03EF43
:1043F000F6000000DF02CFFC730000DF8FFECFFF6E
:10440000E800DF1D91039CE1002200000000000095
:104410000000000000000000000EC000006BBBB9EF
:104420003FC000007FFFFE5FFFFFE60301EC8FDC73
:10443000CEF44E74FADF9C3DE02EEAFAFB9F6E90BC
:1044400007FFF254AF512000CFC000CF800000BF63
:10445000E101EFD00005FFF807FFF4003EF8EC1E85
:10446000F9FD109F9072BFB0BFB109000CFD203E56
:10447000F8000003C10003C00000000000000001BC
:10448000FFFFFFFFFFB001FEEEEFEEEFB001FD001A
:10449000CF304FB001FEDDEFDDDFB001FFFFFFFFEA
:1044A000FFB002FD00CF304FB003FD00CF304FB062
:1044B00004FFFFFFFFFFB005FEDDEFEDEFB008F7F3
:1044C00000CF304FB00DF300CF304FB07FC000CFE2
:1044D0007DEF901C4000BD3EEB200000000000007E
:1044E00000000000390000000BB109EFDFFFF31AF4
:1044F000FD4FD58FBDF300892FA08F49F300002F0A
:10450000A08F49F36FFE2FA08F49F35DFE2FA08F80
:1045100049F300FE3FB5AF49F300FEBFFFCF6BF29A
:1045200000FEAFEBBFAE9000FE25008F400009FFFC
:10453000B5100012327FC8EFFFFFFFF60B2027BC3B
:10454000DCCBB100000000000000000000003000E3
:104550000400000400005000040B01041600800059
:10456000080601092E0090000A0B00046500800077
:10457000080E00029D00E0000E0B0004EA00B000EF
:104580000C0B00042C014000040601093801500006
:10459000040F010156015000060F00018301700055
:1045A000080600099B01800008080005BB015000B7
:1045B00006070000D001500006020007D6014000A7
:1045C00004040004DE015000060E00010802800011
:1045D000080B000434028000080B01046002800014
:1045E000080B00048C028000080B0004B802900045
:1045F0000A0B0004EF028000080B00041B0380007C
:10460000080B000447038000080B000473038000BC
:10461000080B00049F038000080B0004CB0340003C
:1046200004080004DB035000060C0000FF038000B8
:10463000080800051F0480000806000637048000F3
:104640000808000557047000080B00048304E0000C
:104650000E0E0001E504A0000C0BFF042705A000CE
:104660000A0B01045E05A0000A0B00049505A000DA
:104670000A0B0104CC058000080B0104F80580003A
:10468000080B01042406A0000A0B00045B06A0002E
:104690000A0B010492064000040B0104A8068000E6
:1046A000080B0004D406B0000A0B01040B078000BD
:1046B000080B01043707C0000C0B01047907A000A8
:1046C0000A0B0104B007B0000C0B0004F207A000B5
:1046D0000A0B01042908B0000C0E00017D08A0009F
:1046E0000A0B0104B40890000A0B0004EB089000C8
:1046F0000A0B00042209A0000A0B01045909A000BA
:104700000C0BFF049B09D0000E0B0004E809A0006D
:104710000A0B00041F0A90000A0BFF04560A9000BF
:104720000A0B00048D0A5000040F0101AB0A60005F
:10473000060E0001D50A5000060F0001020B800092
:10474000080700081E0B800008020001260B60000D
:104750000605010D350B800008080004550B90007C
:10476000080C0104850B800008080004A50B9000CC
:104770000A0C0004E10B800008080004010C700022
:10478000080B00042D0C90000A0C0000690C90002E
:10479000080C0104990C4000040C0004B10C40000A
:1047A000060FFF01DE0C9000080C01040E0D5000F6
:1047B000040C0104260DD0000C080104560D9000D5
:1047C00008080104760D90000A0800049E0D900070
:1047D000080B0101CA0D90000A0B0001010E7000C8
:1047E00006080104190E700008080004390E600064
:1047F000060B00045A0E90000A080004820E900076
:104800000A080004AA0ED0000E080004E20E900070
:104810000A0800040A0F90000A0B0001410F8000F3
:1048200008080004610F5000060F00018E0F3000D1
:10483000021101009F0F6000060F0001CC0F9000D5
:104840000A030008DB0FD0000C0E01022F10E0005D
:104850000E1000019F10E0000E1000010F11D0009B
:104860000E0E00017111E0000E0F0001200021006A
:10487000220023002400250026002700280029000C
:104880002A002B002C002D002E002F0030003100BC
:10489000320033003400350036003700380039006C
:1048A0003A003B003C003D003E003F00400041001C
:1048B00042004300440045004600470048004900CC
:1048C0004A004B004C004D004E004F00500051007C
:1048D000520053005400550056005700580059002C
:1048E0005A005B005C005D005E005F0060006100DC
:1048F000620063006400650066006700680069008C
:104900006A006B006C006D006E006F00700071003B
:1049100072007300740075007600770078007900EB
:104920007A007B007C007D007E007F007F4F226B41
:104930002875CE8F0000000020000000CE8F000000
:104940006C480008000000006400020000003C0207
:104950007804B306EE08280B610D990FD0110614E8
:104960003A166C189D1ACB1CF71E212148236C2582
:104970008E27AC29C72BDF2DF32F033210341836C6
:104980001C381C3A173C0E3EFF3FEC41D443B64561
:1049900093476A493C4B084DCD4E8D504652F953D2
:1049A000A5554B57EA58825A135C9C5D1F5F9A606D
:1049B0000D627963DD6439668D67D9681D6A596B4C
:1049C0008C6CB76DD96EF36F04710C720B7301743C
:1049D000EE74D275AD767F7747780679BB79677AC2
:1049E0000A7BA27B327CB77C337DA57D0D7E6C7EFD
:1049F000C07E0B7F4B7F827FAF7FD27FEB7FFA7FC2
:104A0000FF7F0000FFFFFFFFFFFFFFFFFFFFFFFF34
:104A1000FFFFFFFFFFFFFFFFFFFFFFFFFFFFFFFFA6
:104A2000FFFFFFFFFFFF64AAFFFFFFFFFFFFFFFF86
:104A3000FFFFFFFFFFFFFFFFFFFFFFFFFFFFFFFF86
:104A4000FFFFFFFFFFFFFFFFFFFF9EFFC6B2C5B2E4
:104A500085AA459A449AFFFFFFFFFFFFFFFFFFFF74
:104A6000FFFFFFFF65AAFFFFFFFFFFFFFFFFFFFF45
:104A7000FFFFC5B2C6B2C5B2A5AA85A2FFFFFFFF60
:104A8000FFFFFFFFFFFFFFFFD4DDA5AAC5B2C6B23F
:104A900085AA449A249A2492FFFFFFFFFFFFFFFF9D
:104AA000FFFF64AAFFFFFFFFFFFFFFFFFFFFFFFF06
:104AB00065A2A5AAC6B2C5B2A5AA65A2459A7DF708
:104AC000FFFFFFFFFFFFFFFF85A2A5AAA5AA427176
:104AD00042714271249224920492FFFFFAEE86AA58
:104AE00086A265A245A2259A249A65A2FFFF449A50
:104AF000459A65A2427142714271459A449A249A3C
:104B0000FFFFFFFFFFFF16DE65A265A24271427143
:104B1000427142714271048AC7B2E6AAC6AAC6AA05
:104B200086AA85A265A245A2249A049A0492E491D9
:104B3000049A4271427142714271427124922492EC
:104B4000DFFFFFFFFFFF659A449A449A427142716A
:104B500042714271E6AAE6AAC7B2C7B2C6AAC6AAFD
:104B6000A6AA86A265A245A2459A249A049AE4912F
:104B7000E491E4914271427142714271048A048A63
:104B8000ACABFFFFFFFF8AB32492249242714271C3
:104B90004271C6AAC6AAC7B2C7B2C7B2E6AAC6AA17
:104BA000C6AAA6A285A265A2459A249A049AE4916F
:104BB000E491E491E491E49142714271E489E489E1
:104BC00079E6FFFFFFFFFFFF2492049242794271D2
:104BD00086A2A6AAC6AAC6AAC7B2C7B2C7B2C6AAA2
:104BE000C6AAA6AA86A265A2459A459A049A0492E4
:104BF000E491E491E491E491E4918379E389E38998
:104C0000FFFFFFFFFFFFFFFF048AE489E489659A45
:104C100085A2A6A2C6AAC6AAC7B2C7B2C7B2C6AA6A
:104C2000C6AAA6AAA6A285A265A2459A249A049A13
:104C3000E491E491E491E491E491E489C381C3892E
:104C4000FFFFFFFFFFFFFFFFFFFFE389459A659A24
:104C500065A286A2C6AAC6AAC6AAC7B2C7B2C7B26A
:104C6000C6AAC6AAA6AA86A265A245A2259A049AA1
:104C70000492E491E491E491E491E491A289FFFF2C
:104C8000FFFFFFFFFFFFFFFFFFFFFFFF249A459A93
:104C900065A286A2A6A265A29EF75DEFC7B2C7B2C3
:104CA000C6AAC6AAA6AAA6A285A265A2CCAB9EF752
:104CB00033C5E491E491E491E491E491E491FFFF40
:104CC000FFFFFFFFFFFFFFFFFFFF04922492459AC3
:104CD000659A85A265A29EF75DEFFBDE9AD6C7B204
:104CE000C7B2C6AAC6AAA6AA85A2B5D59EF73CE7B2
:104CF000FBDE79CEE491E491E491E491E491FFFF4D
:104D0000FFFFFFFFFFFFFFFFFFFFE4910492249AE4
:104D1000459A65A29EF75DEFB6BD9AD638C6C6B273
:104D2000C7B2E6AAC6AAA6AAA6A29EF73CE7B6B54F
:104D300079CE38C6E491E491E491E491E49104924F
:104D4000FFFFFFFFFFFFFFFFEDB3E3890492249213
:104D5000459A659A5DEF411020002000D7BD12BD35
:104D6000C7B2C7B2C6AAC6AAA6AA3CE7AE7B2000B5
:104D70006120D7BDE491E491E491E491E491E49160
:104D8000FFFFFFFFFFFFFFFFC389E389E491049268
:104D9000249A459AFBDE20002000200075ADD1B496
:104DA000C7B2C7B2C6AAC6AAA6AAFBDE410820009F
:104DB000200075AD049AE491E491E491E491E491CA
:104DC000FFFFFFFFFFFFFFFFC389C389E389049251
:104DD0002492459A9AD620002000200034ADC6AA1D
:104DE000C7B2C7B2C7B2C6AAC6AA9AD620002000C8
:104DF000000034A5049AE491E491E491E491E491F3
:104E00001CEFFFFFFFFFFFFFA381C389E389E4914C
:104E10000492249A669A627920008289F39CC6AA39
:104E2000C7B2E6B2E6B2C6AAC6AA38C682892000D0
:104E3000828113A5249A049AE491E491E491E49187
:104E4000ABB3FFFFFFFFFFFFA381C389C389E491D9
:104E500004922492459A6AAB91A4F49C86A286A2FD
:104E60004030E240A140613065A285A254B5719CFA
:104E7000F3AC459A249A049AE491E491E491E49184
:104E8000459AFFFFFFFFFFFFA381A389C389E38941
:104E9000E4910492249A459A449A249A049A049A92
:104EA0006130613061306130249A049A049A249A06
:104EB000459A459A459A249A049AE491E491E4919A
:104EC0004EBCFFFFFFFFFFFFA381A381C389C389FE
:104ED000E489E49104920392039ACBDCEBE40BE5C2
:104EE00061302010200061300BE50BE5EBDC49D48C
:104EF000039A049A249A249A049AE491E491E491FE
:104F0000DFFFFFFFFFFFFFFFA381A381A389C38909
:104F1000E389E391E391CBDC0BE50CE52CE52CE593
:104F20004DE5613061304BC42CE52CE52CE50CE5FA
:104F3000EBE48ADC039A049A049A0492E491E491E3
:104F4000FFFFFFFFFFFFFFFF3CEFA381A389C389A2
:104F5000E39129D40BE50CE52CE52CE52CE52CE5BB
:104F60002CE52CE52CE52CE52CE52CE52CE52CE5B9
:104F70002CE50CE5CBE4E3910492049AE491E491EE
:104F8000FFFFFFFFFFFFFFFFFFFFA381A389C39187
:104F9000CADC0BE52CE52CE52CE52CE52CE52CE515
:104FA0002CE52CE52CE52CE52CE52CE52CE52CE579
:104FB0002CE52CE50CE5EBE4E39104920492E491FA
:104FC000FFFFFFFFFFFFFFFFFFFFA381C389AADCF5
:104FD000EBE42CE52CE52CE52CE52CE52CE52CE58B
:104FE0002CE52CE52CE52CE52CE52CE52CE52CE539
:104FF0002CE52CE52CE50CE5CBDCE391E491FFFFFF
:10500000FFFFFFFFFFFFFFFFFFFFFFFF249AEBE41F
:10501000EBE40CE52CE52CE52CE52CE52CE52CE56A
:105020002CE52CE52CE52CE52CE52CE52CE52CE5F8
:105030002CE52CE52CE50CE5CADC0BE5C391FFFF64
:10504000FFFFFFFFFFFFFFFFFFFFFFFFB7F60BE5CF
:10505000CBDCEBE40CE52CE52CE52CE52CE52CE594
:105060002CE52CE52CE52CE52CE52CE52CE52CE5B8
:105070002CE52CE50BE5CBE4EBE40CE5FFFFFFFFB3
:10508000FFFFFFFFFFFFFFFFFFFFFFFFFFFF2CE51D
:105090000CE5CBDCCBDC0BE52CE52CE52CE52CE59D
:1050A0002DE5C4998180EBDC2CE52CE52CE52CE585
:1050B0000CE5EBE4CADCEBE40CE5FFFFFFFFFFFFD0
:1050C000FFFFFFFFFFFFFFFFFFFFFFFFFFFFFFFFF0
:1050D0002CE50CE5EBE4CADCEBE40BE50CE5008821
:1050E000007800780078007800880CE50CE50BE586
:1050F000CBE4CBDC0BE50CE5FFFFFFFFFFFFFFFF81
:10510000FFFFFFFFFFFFFFFFFFFFFFFFFFFFFFFFAF
:10511000FFFF2DE52CE50CE5EBE4CBDCCADC0088D9
:105120006CF26CF26CF26CF20088CBDCCADCEBE463
:105130000BE50CE52CE5FFFFFFFFFFFFFFFFFFFF87
:10514000FFFFFFFFFFFFFFFFFFFFFFFFFFFFFFFF6F
:10515000FFFFFFFFFFFF2CE52CE50CE50BE50BE562
:10516000CDF26CF26CF24BF2EBDC0BE50CE50CE5EE
:105170002CE52CE5FFFFFFFFFFFFFFFFFFFFFFFF19
:10518000FFFFFFFFFFFFFFFFFFFFFFFFFFFFFFFF2F
:10519000FFFFFFFFFFFFFFFF7CFF2CE52CE52CE569
:1051A0002CE50CE50CE50CE52CE52CE52CE52CE5D7
:1051B000FFFFFFFFFFFFFFFFFFFFFFFFFFFFFFFFFF
:1051C000FFFFFFFFFFFFFFFFFFFFFFFFFFFFFFFFEF
:1051D000FFFFFFFFFFFFFFFFFFFFFFFFFFFFFFFFDF
:1051E000AFE52CE52CE56EE519F7FFFFFFFFFFFFAC
:1051F000FFFFFFFFFFFFFFFFFFFFFFFFFFFFFFFFBF
:10520000FFFFFFFF00000000000000002000200062
:10521000044A000800000000385200080000002086
:10522000740000000A2E0008AC5200087400002030
:105230002C1700001A2E000800A24A0400000000EB
:105240000000000001020304060708090400000032
:10525000140000200000000000000000000000001A
:105260000000000000000000000000007033000893
:105270004C450008384900080000000000000110FB
:1052800000000000CE8F0000630000007F2E0008A9
:10529000292E000812000000000000003400002049
:0C52A000044A000820002000010000006B
:0400000508000131BD
:00000001FF
