:020000040800F2
:108D0000881F0020458E000879A30008799A000882
:108D100075A30008AD950008A3AF0008000000008F
:108D2000000000000000000000000000F1AB00089F
:108D30009D9700080000000091A3000859AE0008AC
:108D40005F8E00085F8E00085F8E00085F8E00084F
:108D50005F8E00085F8E00085F8E00085F8E00083F
:108D60005F8E00085F8E00085F8E00085F8E00082F
:108D70005F8E00085F8E00085F8E00085F8E00081F
:108D80005F8E00085F8E00085F8E00085F8E00080F
:108D90005F8E00085F8E00085F8E00085F8E0008FF
:108DA0005F8E00085F8E00085F8E00085F8E0008EF
:108DB0005F8E00085F8E00085F8E00085F8E0008DF
:108DC0005F8E00085F8E00085F8E00085F8E0008CF
:108DD0005F8E0008BDAE00085F8E00085F8E000841
:108DE0005F8E00085F8E00085F8E00085F8E0008AF
:108DF0005F8E00085F8E00085F8E00085F8E00089F
:108E00005F8E00085F8E00085F8E00085F8E00088E
:108E10005F8E00085F8E00085F8E00085F8E00087E
:108E20005F8E00085F8E00085F8E00085F8E00086E
:108E3000DFF80CD000F00AFA0048004745C60008E9
:108E4000881F00200648804706480047FEE7FEE7E7
:108E5000FEE7FEE7FEE7FEE7FEE7FEE7FEE7FEE7EA
:108E60005DAE0008318E000840EA01039B0703D085
:108E700009E008C9121F08C0042AFAD203E011F859
:108E8000013B00F8013B521EF9D27047421C10F81A
:108E9000011B0029FBD1801A7047F0B480EA01025F
:108EA000D40F4200B2EB410F02D2024608461146EF
:108EB0004A0042D0C30DDDB2C1F3C752AD1A202D16
:108EC00035DAC1F3160141F4000204B15242C5F192
:108ED000200602FA06F12A411044B3EBD05F23D0FA
:108EE000C4B1012DA0EBC35009DCF0BC4FF000422F
:108EF00002EAC352DBB200F5000000F01CB94000EA
:108F000000F1807000EBC350A0F1807040EAD17096
:108F1000490009E0490841EAC071A0EBC35000F5DF
:108F20000000400800EBC350F0BC00F0FBB8614209
:108F3000012202EB4101001BF6E7F0BC704781F013
:108F40000041AAE780F00040A7E780EA010210B5DF
:108F500002F00043400022D04A001FD0010E01EB76
:108F60001261C0F35600C2F3560240F4000042F40E
:108F70000002A0FB022000047F39140400D0401C32
:108F800050EA124001D44000491EC2B20C0604EB64
:108F9000D010401C4008802A02D003E0002010BD01
:108FA00020F00100002900DA0020184310BD2DE94F
:108FB000F04D81EA030404F0004B21F00045144613
:108FC0004FF0000A23F0004150EA050220D054EA95
:108FD00001021DD0C5F30A570246C5F31303C1F3BE
:108FE0001300C1F30A5640F4801543F48013A7EB35
:108FF0000608101BD64608F2FD3873EB050002D3B5
:1090000008F1010801E092185B41B8F1000F03DAA2
:1090100000200146BDE8F08D00204FF48011064687
:1090200084460EE0171B73EB050705D3121B63EB99
:10903000050306434CEA010C49084FEA3000921838
:109040005B4150EA0107EDD152EA030012D082EAF7
:10905000040083EA0501084305D0101BAB4106D28A
:109060000122002306E000224FF0004302E06FF0EF
:10907000010253101AEB06004CEB085110EB0A00EA
:1090800041EB0B01BDE8F04D00F083B8C10F80EA61
:10909000E0700844CA079623002100F04CB820F085
:1090A0000040C10DC0F3160040F400007F2901DA32
:1090B00000207047962903DCC1F19601C840704733
:1090C00096398840704700F0004230F000400AD0E6
:1090D000C10D01F56071C0F3160042EA0151C208EA
:1090E00040071143704700200146704701F00043DC
:1090F00030B421F0004150EA010206D00A0DA2F579
:109100006072C1F31301002A02DC30BC00207047FA
:10911000440F44EAC104C100E01830BC00EBC25067
:10912000AFF300800029A8BF7047401C490008BF6A
:1091300020F00100704710B4B0FA80FC00FA0CF087
:1091400050EA010404BF10BC704749B1CCF12004BF
:1091500021FA04F411FA0CF118BF0121214308434C
:10916000A3EB0C01CB1D4FEA00614FEA102042BF78
:10917000002010BC704700EBC35010440029A4BF6E
:1091800010BC7047401C490008BF20F0010010BC13
:10919000704710B5141E73F1000408DA401C41F149
:1091A000000192185B411A4301D120F0010010BD6B
:1091B0002DE9F04D92469B4611B1B1FA81F202E0E1
:1091C000B0FA80F22032904600F052F804460F4682
:1091D00040EA0A0041EA0B0153465A46084313D0BD
:1091E000114653EA010019D0C8F14002504600F080
:1091F0004EF805460E4650465946424600F038F8AD
:10920000084305D0012004E020463946BDE8F08D32
:109210000020054346EAE0762C4337430A9863056D
:10922000E40AA0EB08000022FD0A44EA47540A3091
:1092300002D500200146E9E7010510196941DDE981
:10924000084500196941BDE8F04DA2E7064C074DFD
:1092500006E0E06840F0010394E807009847103406
:10926000AC42F6D3FFF7E8FDC8250108E825010860
:10927000202A04DB203A00FA02F1002070479140D6
:10928000C2F1200320FA03F3194390407047202ACB
:1092900004DB203A21FA02F00021704721FA02F3A0
:1092A000D040C2F1200291400843194670472DE991
:1092B000FE4F804681EA0300C00F0C46009021F06B
:1092C000004123F00045B8EB0200A94105D2404619
:1092D000214690461C460B46024623F000401043B0
:1092E00047D0270DC7F30A00C3F30A510290401A72
:1092F000019040286BDAC3F3130040F4801B009800
:10930000924620B10023D2EB030A63EB0B0B0198CA
:109310005946C0F140025046FFF7AAFF06460D46E7
:1093200050465946019A00F02FF910EB08006141B0
:10933000002487EA115284EAE7731A4340D0009A66
:1093400062B3019A012A4FEA075215DC001B61EB58
:1093500002014FF0004202EA0752CDE90042001C30
:1093600041F5801132462B46FFF722FF03B0BDE8DE
:10937000F08F40462146F9E7001B61EB0201001C1B
:1093800041F5801300185B412018A2F5001747EB48
:10939000030140EAD570B6196D4111E06D084FEA3E
:1093A000360645EAC0754FEA0752001B61EB020121
:1093B000001C41F5801149084FEA30000019514165
:1093C00032462B4603B0BDE8F04FFFF7E2BE0098EF
:1093D000012240000023D0EB020263EBE07300980F
:1093E00021464FEAE074B8EB000061EB0401E9E7C5
:1093F00083F000435BE781F0004158E72DE9FE4F21
:1094000081EA030404F0004421F0004100944FF08D
:10941000000B23F0004350EA01045ED052EA03043B
:109420005BD0C3F30A54C1F30A552C44A4F2F334BD
:109430000194A0FB0254C1F3130141F48011C3F362
:10944000130343F4801301FB024400FB034E840A20
:10945000970A44EA815447EA8357A4FB07680295B8
:109460008D0A05FB07854FEA932C04FB0C54270556
:10947000029D4FEA065847EA1637B5EB08056EEB32
:10948000070C870E920E47EA811742EA8312A7FB68
:109490000201B6EB0B0164EB00042B0D43EA0C3325
:1094A0005E1844EB1C50DA465146E7FB0201C5F357
:1094B00013044FEA0B3343EA14534FEA0432019C7E
:1094C00043EA0603A4F10C040294009CCDE900B425
:1094D000FFF76EFE03B0BDE8F08F00200146F9E70C
:1094E00070B521F0004303430CD0C1F30A550024AA
:1094F000D5EB040564EB0403D617AD1AB34102DBC8
:109500000020014670BD201841EB025170BD0EB520
:10951000C10F80EAE0700844CA07002140F23343DB
:109520008DE80E000A460B46FFF742FE03B000BD71
:109530000EB540F2334102910021CDE900110A46F7
:109540000B46FFF735FE03B000BD70B5C1F30A52FC
:1095500001F000450024C1F3130140F2FF3341F450
:1095600080119A4201DA002070BD40F233439A42E2
:10957000A2F2334203DC5242FFF789FE00E0904042
:109580002C43F1D0404270BD202A06DBCB17203A95
:1095900041FA02F043EAE07306E041FA02F3D040F8
:1095A000C2F12002914008431946704700BFFEE710
:1095B00000F0805111B10349086001E002494860A0
:1095C00070470000040402400000024021B102681C
:1095D00042F00102026004E002684FF6FE731A4096
:1095E0000260704701684FF6FE7211400160002171
:1095F000016041608160C1604B49884208D14A499D
:109600000839496841F00F01474A083A51608AE039
:1096100045491431884208D143490839496841F025
:10962000F001414A083A51607DE03F4928318842C3
:1096300008D13D490839496841F470613A4A083A0D
:10964000516070E038493C31884208D136490839C8
:10965000496841F47041344A083A516063E0324944
:109660005031884208D130490839496841F47021A5
:109670002D4A083A516056E02B496431884208D19E
:1096800029490839496841F47001274A083A51606C
:1096900049E025497831884208D123490839496889
:1096A00041F07061204A083A51603CE01F4988420D
:1096B00006D1011F096841F00F01021F116032E05D
:1096C0001A491431884208D11849091F096841F024
:1096D000F001164A121F116025E014492831884212
:1096E00008D11249091F096841F470610F4A121F1D
:1096F000116018E00D493C31884208D10B49091F1F
:10970000096841F47041094A121F11600BE00749D2
:109710005031884207D10549091F096841F4702179
:10972000024A121F116070470800024008040240FC
:1097300001460020002201F0805313B1054B1A6846
:1097400001E0054B1A6802EA01030BB1012000E0B9
:1097500000207047000402400000024010B50022C3
:10976000026847F6F0739A430C6A8B6823430C69CE
:1097700023434C6923438C692343CC6923434C6ABC
:1097800023438C6A23431A430260CB6843600B680F
:1097900083604B68C36010BD416070477047000034
:1097A0002DE9FE4F05460E461746984606F1400045
:1097B00083B205F1400082B231462846CDF80080E0
:1097C00000F0E2F900240BE004EB44013A4A02EB1A
:1097D00081003A4B3A4A4FF07C5103F00FFA641C77
:1097E000082CF1DB002462E006F12000FFF74EFCBC
:1097F000344A0090601C52F82000401E00EB4000EC
:109800002D4A02EB800041680098FFF746FB834633
:10981000FFF745FC1FFA80F905F12000FFF736FC41
:10982000284A0090601C52F82000401E00EB4000C7
:10983000214A52F820100098FFF72FFB8346FFF7CC
:109840002EFC1FFA80FA06F12000FFF71FFC0090A3
:109850001C4850F82400401E00EB4000164A02EB62
:10986000800041680098FFF718FB8346FFF717FC5C
:1098700080B2029005F12000FFF708FC009011482B
:1098800050F82400401E00EB40000B4A52F8201014
:109890000098FFF702FB8346FFF701FC80B24B46BE
:1098A0005246CDE90070029900F009F9A41C182C69
:1098B0009ADBBDE8FE8F000028000020CDCC4C3E96
:1098C0009A99993E880000202DE9F0410246002532
:1098D0000026002000230024002791F803C00CF08C
:1098E0000F0591F803C00CF0100CBCF1000F03D071
:1098F00091F802C04CEA050591F800C0BCF1000FD8
:1099000031D0146800202BE04FF0010C0CFA00F36A
:10991000B1F800C00CEA03069E4220D183004FF04C
:109920000F0C0CFA03F7BC4305FA03FC4CEA0404E1
:1099300091F803C0BCF1280F06D14FF0010C0CFACE
:1099400000FCC2F814C00AE091F803C0BCF1480F53
:1099500005D14FF0010C0CFA00FCC2F810C0401CFD
:109960000828D1D31460B1F800C0BCF1FF0F34DD7A
:10997000546800202EE000F1080C4FF0010808FAAE
:109980000CF3B1F800C00CEA03069E4221D183001B
:109990004FF00F0C0CFA03F7BC4305FA03FC4CEA3A
:1099A000040491F803C0BCF1280F05D100F1080CA4
:1099B00008FA0CF8C2F8148091F803C0BCF1480F03
:1099C00007D100F1080C4FF0010808FA0CF8C2F8B2
:1099D0001080401C0828CED35460BDE8F081000000
:1099E000F0B50A46002300240021002500F00046BF
:1099F000B6F1004F02D11D4EF16901E01B4E7168B6
:109A0000C0F3034583B200F44016B6F5401F08D1F9
:109A100021F07061154E766826F07066134F7E60F7
:109A200012E000F48016B6F5801F06D1032606FA70
:109A300005F4A14341F0706106E0460D360103FADA
:109A400006F6B14341F0706122B1460D360103FACA
:109A500006F6314300F00046B6F1004F02D1034E46
:109A6000F16101E0014E7160F0BD000000000140B5
:109A7000416170470161704700BFFEE72DE9F04189
:109A800004460D4616461F462A2000F0C9FB04F185
:109A9000140188B200F094FB06F1140188B200F0C2
:109AA0008FFB2B2000F0BCFB284600F089FB3846DA
:109AB00000F086FB2C2000F0B3FBBDE8F0812DE91F
:109AC000FF4F85B081468A46002003908346079861
:109AD000A0EB09050898A0EB0A06CDF80890CDF890
:109AE00004A0002D01DD012705E00DB9002702E0EB
:109AF0004FF0FF376D42002E02DD4FF0010806E007
:109B000016B94FF0000802E04FF0FF387642B54238
:109B100001DD2C4600E03446002004901EE0019A4E
:109B200091B2029A90B2129A00F01FF8039828445A
:109B30000390B3440398A04205DD0398001B0390F3
:109B4000029838440290A34504DDABEB040B019866
:109B5000404401900498401C80B20490611C049819
:109B60008842DCDB09B0BDE8F08F70B504460D46D5
:109B700016462B46224629462046FFF77FFF3046F1
:109B800000F01EFB70BD00002DE9F84F0746884627
:109B900014461D46DDF828904FF0010ACDF80090DC
:109BA000E01BA5EB080100FB01F6681E83B2601EF6
:109BB00082B241463846FFF761FF4FF480512E488C
:109BC000FFF756FF01212C48FFF754FF2B48008870
:109BD00040F40060294908800121284800F09AFFDC
:109BE00026E04FF6FE70864202D9361A834602E01E
:109BF0004FF0000AB3461FFA8BF36A461F490C3137
:109C00001F4800F073FB012202211C4800F08EFF68
:109C10001B4800F09BFB09E04FF40030FFF788FD84
:109C200020B14FF40030FFF7C3FC00E0F4E700BFC1
:109C3000BAF1000FD5D14FF480510F48FFF71AFF4A
:109C400000BF80210D4800F0A7FF0028F9D10B4884
:109C50000088C043094908800846008840F4006035
:109C6000088008460088C04308800121034800F0AE
:109C700051FFBDE8F88F0000000C014000380040A3
:109C80005800024008B501210C2000F0B3FB41F25E
:109C90000300ADF8000003208DF8020010208DF8BD
:109CA000030069460148FFF70FFE08BD000C0140A4
:109CB00010B500F0BDFEFFF7E5FF02216248FFF797
:109CC000D7FE642002F056F802215F48FFF7D2FE6B
:109CD000642002F04FF802215C48FFF7CBFE6420BD
:109CE00002F048F8112000F09BFA782002F042F8C8
:109CF000362000F095FAA02000F07CFA3A2000F01F
:109D00008FFA052000F076FAB22000F089FA0C20D4
:109D100000F070FA0C2000F06DFA002000F06AFAF2
:109D2000332000F067FA332000F064FAB72000F027
:109D300077FA352000F05EFABB2000F071FA32208D
:109D400000F058FAC22000F06BFA012000F052FA3D
:109D5000C32000F065FA152000F04CFAC42000F092
:109D60005FFA202000F046FAC62000F059FA0F20D2
:109D700000F040FAD02000F053FAA42000F03AFAA4
:109D8000A12000F037FAE02000F04AFAD02000F0DD
:109D900031FA082000F02EFA0E2000F02BFA0920EC
:109DA00000F028FA092000F025FA052000F022FA38
:109DB000312000F01FFA332000F01CFA482000F098
:109DC00019FA172000F016FA142000F013FA1520E3
:109DD00000F010FA312000F00DFA342000F00AFAF9
:109DE000E12000F01DFAD02000F004FA082000F075
:109DF00001FA0E2000F0FEF9092000F0FBF909201D
:109E000000F0F8F9152000F0F5F9312000F0F2F932
:109E1000332000F0EFF9482000F0ECF9172000F0B3
:109E2000E9F9142000F0E6F9152000F0E3F93120FB
:109E300000F0E0F9342000F0DDF9212000F0F0F925
:109E4000292000F0EDF910BD00080140000C014090
:109E50002DE9F84F0546894617469A462E46CB46C9
:109E600007FB0AF0C11700EB5171C1F3CF0100915C
:109E70004FF0000829E0002415E00C9810F80800C5
:109E800080212141084030B1311988B259460A9ADF
:109E9000FFF76BFE05E0311988B259460B9AFFF7C0
:109EA00064FE601C84B2082CE7DB06F1080086B271
:109EB000E919701C814204DA2E460BF101001FFAE9
:109EC00080FB08F101001FFA80F800988045D2DB82
:109ED000BDE8F88F2DE9FF5F80468A4617469B460E
:109EE0000F9D00200290CDF80080284605EBD07130
:109EF000C1F347042046E21704EB5272D210214608
:109F0000E31704EB5373DB10A4EBC3030BB1012382
:109F100000E000231A446A4392B20192A7F12000A4
:109F2000C7B20AEB0500401E83B208EB0400401ED6
:109F300082B251464046FFF7A1FD002669E00C2D94
:109F400007D107EB4700354901EB8000805D0390A6
:109F50001BE0102D05D1324800EB0710805D039007
:109F600013E0182D07D107EB47002E4901EB001035
:109F7000805D039009E0202D05D12B4800EB871070
:109F8000805D039001E0BDE8FF9F4FF000093AE0DB
:109F90001098C8B9012000FA09F00399084018B1D7
:109FA000584600F00DF902E00E9800F009F9029809
:109FB000401CC0B20290029890FBF4F104FB110027
:109FC000E8B90020029021E0012000FA09F003998D
:109FD000084020B15A4651464046FFF7C6FD08F1F9
:109FE00001001FFA80F80098A8EB0000A04206D1FB
:109FF000DDF800800AF101001FFA80FA06E009F19D
:10A00000010000F0FF09B9F1080FC1DB00BF701CAF
:10A0100086B20198864292DB00BFB4E766DF000893
:10A02000DAE30008CAE900089AFB00082DE9FF4FAF
:10A0300085B0074691461D46DDE913A60020049031
:10A04000304606EBD071C1F3470B002434E0281BE7
:10A05000401EC1B20A2002F0F6FCB9FBF0F00A2162
:10A06000B0FBF1F201FB12080498A0B9681EA042EF
:10A0700011DDB8F1000F0CD1002004FB0B71CDE90C
:10A0800000A6029088B22022129B0699FFF722FFB9
:10A0900010E001200490002008F13001CAB204FB56
:10A0A0000B71CDE900A6029088B2129B0699FFF7CA
:10A0B00011FF00BF601CC4B2AC42C8DB09B0BDE8F0
:10A0C000F08F00002DE9F05F0746884614461D46D4
:10A0D000DDF828904FF0010A04FB05F0460008EB7C
:10A0E0000500401E83B23819401E82B241463846F0
:10A0F000FFF7C4FC4FF480511D48FFF7B9FC012164
:10A100001B48FFF7B7FC29E04FF6FE70864202D9E4
:10A11000361A834602E04FF0000AB3461FFA8BF36B
:10A120004A461449144800F0B3F8012202211148AC
:10A130000C3800F0FBFC104800F008F909E04FF47F
:10A140000030FFF7F5FA20B14FF40030FFF730FA96
:10A1500000E0F4E700BF4FF6FE708144BAF1000F53
:10A16000D2D14FF480510248FFF784FCBDE8F09F44
:10A17000000C01400C380040580002402DE9FE4F11
:10A1800006460F4614469846DDE90D5ADDF8309034
:10A1900010E0CDE9015ACDF80090227843463946C7
:10A1A0003046FFF797FE284605EBD07106EB6101BC
:10A1B0008EB2641C20780028EBD1BDE8FE8F000031
:10A1C00010B504464FF480510948FFF751FC0121B6
:10A1D0000748FFF74FFC201200F080FC204600F0FB
:10A1E0007DFC4FF480510248FFF744FC10BD000095
:10A1F000000C014010B504464FF480510748FFF7AA
:10A2000037FC01210548FFF735FC204600F066FCCD
:10A210004FF480510148FFF72DFC10BD000C0140A8
:10A2200010B504464FF480510748FFF721FC012187
:10A230000548FFF71DFC204600F050FC4FF480510C
:10A240000148FFF717FC10BD000C014008B50121C3
:10A25000052000F0CFF801210B48FFF7C1FB4FF4B8
:10A260000040ADF8000010208DF8030003208DF8A9
:10A27000020069460548FFF727FB4FF400410348F9
:10A28000FFF7F8FB08BD00000002300000080140A5
:10A290002DE9F04107460D4616461C4601210846A9
:10A2A00000F078F83846FFF79DF90E4804800E4814
:10A2B0000560466010200C4988600846C460002094
:10A2C00008618020486100208861C86108624FF4FD
:10A2D00080504862002088623846FFF73FFABDE8A8
:10A2E000F081000018000020100100202DE9F0414D
:10A2F00007460D4616461C460121084600F04AF85E
:10A300003846FFF76FF90F4804800F480560466034
:10A3100010200D4988600846C4600020086148612B
:10A320004FF4807088618000C861002008624FF49B
:10A3300080504862002088623846FFF70FFABDE877
:10A34000F0810000180000201001002010B5044624
:10A3500000212046FFF73AF9044801880448FFF736
:10A360001BFA01212046FFF731F910BD180000202B
:10A370005800024000BFFEE770470000024A0A4052
:10A380000243024B1A60704780FFFF1F08ED00E098
:10A390007047000029B1064A52690243044B5A61D2
:10A3A00004E0034A52698243014B5A61704700003E
:10A3B0000010024029B1064AD2690243044BDA6117
:10A3C00004E0034AD2698243014BDA61704700001E
:10A3D0000010024029B1064A12690243044B1A6177
:10A3E00004E0034A12698243014B1A61704700007E
:10A3F0000010024029B1064A92690243044B9A6157
:10A4000004E0034A92698243014B9A61704700005D
:10A410000010024029B1064AD2680243044BDA60B8
:10A4200004E0034AD2688243014BDA6070470000BF
:10A430000010024010B504210548FFF71BFB4FF444
:10A4400080510348FFF716FBFF2000F09BF910BD79
:10A45000000C014070B5054601220021092000F0E2
:10A4600052FA044624B91021284600F055F9044652
:10A47000FFF7E0FF0CB1012070BD0020FCE770B5D4
:10A4800005464FF6FF7401E0601E84B2FF2000F025
:10A4900079F9A84201D0002CF6D10CB9FF2070BD8B
:10A4A0000020FCE77FB56846FFF7D4FF10B100201D
:10A4B00004B070BD9DF8000000F0C000402809D134
:10A4C0009DF809009DF8081000EB0120401C84B2A3
:10A4D000A50220E09DF8050000F00F009DF80A108D
:10A4E00000EBD1109DF8091001F0030100EB4100D1
:10A4F000861C9DF8080080119DF8071000EB810074
:10A500009DF8061001F0030100EB8120441CA6F128
:10A51000090004FA00F52846CAE70000F8B500F083
:10A5200017F900F073F9002504E0FF2000F02AF984
:10A53000681C85B20A2DF8DB142600BF9522002185
:10A54000084600F0E0F90446012C04D0301EA6F1C4
:10A5500001018EB2F2D1002051490870012C4AD17C
:10A5600087224FF4D571082000F0CDF9012847D19A
:10A57000002506E0FF2000F005F90DF80500681C35
:10A5800085B2042DF6DB9DF80200012879D19DF8F3
:10A590000300AA2875D14FF6FE7600BF01220021E4
:10A5A000372000F0B0F901229107292000F0ABF923
:10A5B000044624B1301EA6F101018EB2EED1002E68
:10A5C0005FD0012200213A2000F09DF9002858D1E7
:10A5D000002506E0FF2000F0D5F80DF80500681C06
:10A5E00085B2042DF6DB9DF8000000F0400018B1A4
:10A5F00006202B49087044E004202949087040E0F7
:10A6000001220021372000F07EF9012200212920BB
:10A6100000F079F90446012C17DC0220204908706B
:10A620004FF6FE7600BF01220021372000F06BF9C3
:10A6300001220021292000F066F90446BCB1301E39
:10A64000A6F101018EB2EED111E00120144908708B
:10A650004FF6FE7600BF01220021104600F053F9AC
:10A66000044624B1301EA6F101018EB2F3D12EB101
:10A6700001225102102000F046F910B100200849D3
:10A680000870FFF7D7FE00F085F80548007808B19C
:10A690000020F8BD0CB12046FBE7AA20F9E7000036
:10A6A000E80000202DE9F04106460F4615461948FE
:10A6B0000078062800D07F02012D0CD101223946F6
:10A6C000112000F020F90446FCB96902304600F080
:10A6D00023F8044619E001223946122000F013F94C
:10A6E000044600BF4FF40071304600F015F80446F0
:10A6F00006F50076681EC0B2051E01D0002CF1D010
:10A70000012200210C2000F0FEF8FFF793FE204606
:10A71000BDE8F081E800002070B504460D46FE203B
:10A72000FFF7ADFE08B1012070BD04E0FF2000F08E
:10A73000D5F92070641C281EA5F101018DB2F5D158
:10A74000FF2000F01FF8FF2000F01CF80020EBE7CE
:10A7500008B501210820FFF74DFE0420ADF80000E8
:10A7600010208DF8030003208DF80200694604488C
:10A77000FFF7AAF804210248FFF77CF908BD0000A2
:10A78000000C014010B50446204600F0A7F9C0B205
:10A7900010BD000000B585B01B4800F0D1F90121C3
:10A7A0008803FFF707FE01218803FFF713FE00214E
:10A7B0004FF48040FFF70EFE0020ADF800004FF48C
:10A7C0008270ADF802000020ADF804000220ADF860
:10A7D00006000120ADF808004002ADF80A00002094
:10A7E000ADF80C00ADF80E000720ADF8100069467A
:10A7F000054800F0DFF90121034800F08BF9FF2044
:10A8000000F06CF905B000BD0038004000B585B01F
:10A810001C4800F095F901218803FFF7CBFD0121C9
:10A820008803FFF7D7FD00214FF48040FFF7D2FDEA
:10A830000020ADF800004FF48270ADF80200002057
:10A84000ADF804000220ADF806000120ADF80800C4
:10A850004002ADF80A002820ADF80C000020ADF849
:10A860000E000720ADF810006946064800F0A2F976
:10A870000121044800F04EF9FF2000F02FF905B047
:10A8800000BD00000038004010B504210848FFF763
:10A89000EFF84FF480510648FFF7ECF800F06FF83E
:10A8A00008B9002010BDFFF7C5FD0120FAE7000040
:10A8B000000C014070B506460D4600F060F808B186
:10A8C000012070BD2846FFF75DFFFD2D19D0002443
:10A8D00004E0305D00F002F9601C84B2B4F5007F42
:10A8E000F7DBFF20FFF74EFFFF20FFF74BFFFF20B6
:10A8F000FFF748FF044604F01F00052801D002209E
:10A90000DFE70020DDE72DE9F04105460C4617465C
:10A910004FF00008FFF78EFDFFF7B6FF10B1FF20E4
:10A92000BDE8F08145F04000FFF72CFF200EFFF757
:10A9300029FFC4F30740FFF725FFC4F30720FFF703
:10A9400021FFE0B2FFF71EFF3846FFF71BFF0C2D7B
:10A9500002D1FF20FFF716FF4FF01F0800BFFF20B6
:10A96000FFF710FF064606F0800030B1B8F1000096
:10A97000A8F1010101F0FF08F1D13046D0E710B590
:10A98000002400BFFF20FFF7FDFEFF2801D10020BB
:10A9900010BD641C6FF07F408442F3D30120F7E7C1
:10A9A0002DE9F04106460F46154620480078062856
:10A9B00000D07F02012D0CD1012239461820FFF76B
:10A9C000A2FF04466CBBFE213046FFF773FF04462E
:10A9D00027E016480078012809D0012200213720FD
:10A9E000FFF791FF012229461720FFF78CFF012274
:10A9F00039461920FFF787FF044694B900BFFC21B0
:10AA00003046FFF757FF044606F50076681EC0B2D1
:10AA1000051E01D0002CF2D0FD210020FFF74AFFD7
:10AA20000446FFF707FD2046BDE8F081E80000205E
:10AA300000B587B001211820FFF7DCFC01210920B7
:10AA4000FFF7D8FC4FF46040ADF8180001208DF8F6
:10AA50001A0018208DF81B0006A91E48FEF734FFC7
:10AA60004FF460411B48FFF705F801218803FFF709
:10AA7000A1FC01218803FFF7ADFC00214FF48040C9
:10AA8000FFF7A8FC0020ADF804004FF48270ADF889
:10AA900006000020ADF808000220ADF80A000120F1
:10AAA000ADF80C004002ADF80E000020ADF810002B
:10AAB000ADF812000720ADF8140001A9064800F017
:10AAC00079F80121044800F025F8FF2000F006F88D
:10AAD00007B000BD000C01400038004010B504462E
:10AAE00000BF02210A4800F057F80028F9D021469B
:10AAF000074800F05DF800BF0121054800F04CF860
:10AB00000028F9D0024800F050F8C0B210BD000093
:10AB10000038004021B1028842F04002028004E087
:10AB200002884FF6BF731A40028070471AB18388BB
:10AB30000B43838002E083888B438380704700004F
:10AB400010B504461148844208D101218014FFF752
:10AB500061FC0021A014FFF75DFC16E00C48844264
:10AB600008D101210014FFF735FC00212014FFF764
:10AB700031FC0AE00748844207D10121C013FFF7E6
:10AB800029FC0021E013FFF725FC10BD0030014037
:10AB900000380040003C00400246002013890B4072
:10ABA0000BB1012000E00020704701468889704702
:10ABB0008181704710B50022028802F441520B884F
:10ABC0004C8823438C882343CC8823430C8923431C
:10ABD0004C8923438C892343CC8923431A43028025
:10ABE000838B4FF2FF74234083830B8A038210BD53
:10ABF000704710B500F002F810BD00000CB5002041
:10AC0000019000903348006840F48030314908607A
:10AC100000BF3048006800F4003000900198401CEC
:10AC20000190009820B94FF6FF7101988842F0D149
:10AC30002848006800F4003010B10120009001E0C5
:10AC4000002000900098012843D12348006840F07C
:10AC50001000214908600846006820F003000860E1
:10AC60000846006840F0020008601A484068194928
:10AC700048600846406848600846406840F4806084
:10AC800048600846406820F47C10486008464068E8
:10AC900040F4E81048600846006840F080700860A2
:10ACA00000BF0C48006800F000700028F9D0094887
:10ACB000406820F00300074948600846406840F0BB
:10ACC0000200486000BF0348406800F00C000828FC
:10ACD000F9D10CBD00100240002002400EB507481B
:10ACE00000214FF6FF726423CDE900210290F0228B
:10ACF0003C210A20FFF7ACF80EBD000082180108C5
:10AD000070B5ADF5996D0546002001F097F9A6A93B
:10AD1000002001F021FA012229461DA801F032FA93
:10AD200006466EB1002010214FF6FF720346CDE9B2
:10AD3000002102901BA25521A020FFF71FFA2EE050
:10AD4000002010214FF6FF720346CDE9002102904A
:10AD500017A25521A020FFF711FA00241BE01DAA1D
:10AD6000642104A801F0CDF904A8FEF78FF800B91A
:10AD700013E0002010214FF6FF72CDE90021029070
:10AD800004EB041000F16901002304AAA020FFF7DE
:10AD9000F5F9601CC4B2102CE1DB00BF00BF0DF55B
:10ADA000996D70BD46696C65204572726F720000C6
:10ADB000746573742E747874000000002DE9F047F8
:10ADC000ADF5526D07460D4616469A46DDF8408DA4
:10ADD0000024002001F032F98CA9002001F0BCF918
:10ADE0000122414603A801F0CDF98146B9F1000FD7
:10ADF0001AD117E0F20002AB0DF58C6103A801F047
:10AE000077FA029800B90EE00DF58C60009005EB22
:10AE1000840081B2042332463846FFF753F9601CA0
:10AE200084B200BFE6E700BF0DF5526DBDE8F087C4
:10AE3000042808D14FF0E021096941F004014FF0E6
:10AE4000E022116107E04FF0E021096921F00401DF
:10AE50004FF0E022116170477047000010B51348B1
:10AE6000006840F001001149086008464068104938
:10AE700008400E494860084600680E4908400B49E2
:10AE800008600846006820F4802008600846406892
:10AE900020F4FE0048604FF41F008860FFF7A9FE11
:10AEA0004FF000600449086010BD0000001002402F
:10AEB0000000FFF8FFFFF6FE08ED00E010B540F2DD
:10AEC00025511D4800F03EF810B31B4800F064F80F
:10AED000C4B21A48008800F40040C8B91748008876
:10AEE00000F4804060B10A2C03D000201349088090
:10AEF00020E01248008840F400401049088019E022
:10AF00000D2C06D10D48008840F480400B49088084
:10AF100010E00A480088C0F30D0009490C540748A6
:10AF20000088401C0549088008460088C72801DDC4
:10AF30000020088010BD00000038014024000020DF
:10AF40003C01002070B502460024002300250020AB
:10AF500040F66A16B14200D100BFC1F3421501F0BC
:10AF60001F03012606FA03F3012D02D1968933400F
:10AF700006E0022D02D1168A334001E0968A334062
:10AF80000C12012606FA04F41688344013B10CB1F1
:10AF9000012000E0002070BD01468888C0F3080051
:10AFA000704700BFFEE7490050EAC12018BF0420E7
:10AFB0004A0D18BF40F0010040F2FF72B2EB515F42
:10AFC00008BF40F00200012808BF052070470000BC
:10AFD0002DE9F74F144694B00021C4E902111599E8
:10AFE000079121F00045C9498D4206DC1599C4E955
:10AFF000000117B00020BDE8F08FC549DFF814A3A9
:10B00000A9423CDD0799C44E0029C44FC44A159992
:10B01000534619DDFEF7ECF9554506D0C14AC24B3F
:10B02000FEF7E6F9C4E900010AE04FF0D352BE4B47
:10B03000FEF7DEF932463B46FEF7DAF9C4E90001D5
:10B0400017B00120BDE8F08FFEF731F9554506D065
:10B05000B44AB54BFEF72BF9C4E900010AE04FF002
:10B06000D352B14BFEF723F932463B46FEF71FF9A8
:10B07000C4E9000117B04FF0FF30BDE8F08FAB49D5
:10B08000A942159978DB21F0004183468846A84AF9
:10B09000A84BFEF7B3F90022A74BFEF708F9FEF71D
:10B0A00054FA0990FEF733FA06460F469C4A534677
:10B0B000FEF7A4F943465A46FEF79DF980468A46B4
:10B0C000984A994B30463946FEF798F92A0D0125E2
:10B0D0000B9242465346FEF78EF9032DC4E9000158
:10B0E00039D00B98C1F30A51401A05EB45111139BB
:10B0F000814230DA9148C346784400EB0510CDF820
:10B100000CA00C90D0E9002330463946FEF776F9C2
:10B1100002460B460491069058460399FEF768F9DB
:10B1200080468A4602460B4658460399FEF760F968
:10B13000049B069AFEF75CF983460C980391394606
:10B14000D0E902233046FEF759F95A46039BFEF731
:10B150004FF96D1CBDE707980028A2BF099817B0EA
:10B16000BDE8F08F616881F000416160099817B017
:10B170004042BDE8F08FFFE784461598C1F3130104
:10B18000C0F30A50A0F2F5304FEA601800F01F0635
:10B19000C6F12000139000200690079041F4801E15
:10B1A00005206D4676B1664A08EB00017A4452F8F4
:10B1B000213002EB8101B3404A68139922FA01F170
:10B1C000194305E05F4908EB0002794451F8221069
:10B1D000A1FB0E27A1FB0C131A449A4234BF012392
:10B1E000002303EB070A05EB8003D3E901B70F4403
:10B1F0008F4234BF0121002193448B4411B1934508
:10B2000002D903E0934501D2012100E00021C3E906
:10B2100001B7514445F82010011EA0F10100C1DC26
:10B220000298059F00F10050800F12900298DDE90E
:10B2300003568000FEF76BF9834628460D91FEF712
:10B2400077F96FF01D02FEF74BF9CDE90E0130469C
:10B25000FEF76EF96FF03D02FEF742F980468A462E
:10B260003846FEF765F96FF05D02FEF739F90746DB
:10B27000424653461191FEF71AF8DDE90E23FEF718
:10B2800016F85A460D9BFEF712F800250E465A4650
:10B2900028460D9BFEF7ACF8DDE90E23FEF7A8F873
:10B2A00042465346FEF7A4F83A46119BFEF7A3F830
:10B2B000DFF898A0244A5346FEF7A0F807468846D0
:10B2C000234A244B31462846FEF798F83A4643462F
:10B2D000FDF7EDFF074688464FF0A842534631463A
:10B2E0002846FEF78BF83A464346FDF7E0FF159AED
:10B2F00012F0004F04D0129A81F000415242129293
:10B30000C4E90001129817B0BDE8F08FFB21E93FB6
:10B310007CD90240FB21F93F7370032E8A19A33BAD
:10B32000000040543163621A61B4D03DFB213941C1
:10B3300083C8C96D305FE43F0000E03FDC7300006C
:10B34000587300003A730000182D4454FB21F93D56
:10B350003326A611460B113C2DE9FF4D21F0004884
:10B3600007460C46B8F1795F08DAFEF7EEF80028D8
:10B3700001BF0020324904B0BDE8F08D3A462346B3
:10B3800010461946FEF73AF8054602462D480E4685
:10B390000B460621784400F05DF82A463346FEF756
:10B3A0002DF8DDE9022382468B4638462146FEF71A
:10B3B00025F804460F4652465B4628463146FEF7BE
:10B3C0001DF822463B46FEF713F807468A464FF023
:10B3D000FF3228463146FEF783F81B4A90450ADAC9
:10B3E0003A465346FEF704F804B00022BDE8F04D9B
:10B3F000134BFEF700B8154A4245A8BFA8F5001543
:10B400004FF00004B8BF124D22462B46FDF7F0FF67
:10B410000646884622462B4600200949FDF7E8FFEC
:10B4200004460D463A46534630464146FDF7E0FF96
:10B4300004B022462B46BDE8F04DFDF7DCBF00000E
:10B440000000F03F107100003333D33F0000E93FAC
:10B450000000D23F2DE9F0414F1E00EBC70104462A
:10B46000D1E9000115461E4637F006020DD02A46E6
:10B470003346FDF7C3FF7F1E04EBC703D3E9002368
:10B48000FDF715FF37F00602F1D1022F25D0042F6A
:10B4900013D0062F18BFBDE8F0812A463346FDF7CA
:10B4A000ADFFD4E90A23FDF702FF2A463346FDF734
:10B4B000A5FFD4E90823FDF7FAFE2A463346FDF737
:10B4C0009DFFD4E90623FDF7F2FE2A463346FDF739
:10B4D00095FFD4E90423FDF7EAFE2A463346FDF73B
:10B4E0008DFFD4E90223FDF7E2FE2A463346FDF73D
:10B4F00085FFD4E90023BDE8F041FDF7D8BE000088
:10B500002DE9FF4D054621F0004084B00C46B0F116
:10B51000795F0BDA2846FFF746FD042808BF00F0E4
:10B520006FF8284608B02146BDE8F08D2A460B4644
:10B530001046FDF763FF06460F462A462346FDF7F1
:10B540005DFF804626488A4632463B4605217844C0
:10B55000FFF780FF83461098029160B3214A224B87
:10B5600040465146FDF74AFFCDE900015A464046A4
:10B570005146029BFDF742FF82468846DDE90601FF
:10B580004FF0FF32FDF7ACFF52464346FDF730FF68
:10B5900032463B46FDF732FFDDE90623FDF728FF83
:10B5A000DDE90023FDF724FF08B02A462346BDE865
:10B5B000F04DFDF720BF0B465A4630463946FDF7A1
:10B5C0001DFF084A084BFDF772FE42465346FDF741
:10B5D00015FF08B02A462346BDE8F04DFDF767BECB
:10B5E0004E700000495555555555C5BF0122FDF710
:10B5F00077BF0022134610461146FDF7D8BC000065
:10B60000024A00201107FDF76BBF000001FDFFFF9C
:10B6100002E008C8121F08C1002AFAD1704770471B
:10B62000002001E001C1121F002AFBD17047000079
:10B6300001490860704700000C01002070B5044605
:10B640000D46607801232A4604F1300100F012FD16
:10B6500008B1032070BD94F82E1294F82F0241EA2D
:10B6600000204AF65521884201D00220F2E794F8E2
:10B670006900010694F8680041EA004194F8670007
:10B6800041EA002094F86610084320F07F400E49FC
:10B69000884201D10020DDE794F88500010694F886
:10B6A000840041EA004194F8830041EA002094F8C4
:10B6B0008210084320F07F400349884201D10020D6
:10B6C000C8E70120C6E7000046415400024600E0FA
:10B6D000521C107810B110788842F9D11078704758
:10B6E0002DE9F74F86B00698006800900098007822
:10B6F00030380590059809280AD8009840783A28EB
:10B7000006D10098801C009006990098086001E01E
:10B71000002005900598022803D30B2009B0BDE84E
:10B72000F08FC849059851F82040079804600CB97B
:10B730000C20F3E7207878B1607800F0BDFC8046FB
:10B7400008F0010040B9089820B108F0040008B1E1
:10B750000A20E3E70020E1E70020207005986070F0
:10B76000607800F06BFC804608F0010008B103200F
:10B77000D4E7089820B108F0040008B10A20CDE70A
:10B780004FF0000A51462046FFF758FF0546012DAD
:10B7900013D104F5F777387978B1F87A0106B87AD9
:10B7A00041EA0041787A41EA0020397A40EA010A08
:10B7B00051462046FFF742FF0546032D01D10120E7
:10B7C000ACE70DB10D20A9E73B20015D94F83C00EA
:10B7D00041EA0020B0F5007F01D00D209EE7462011
:10B7E000015D94F8470041EA0029B9F1000F0ED13C
:10B7F00094F85700010694F8560041EA004194F885
:10B80000550041EA002094F8541040EA0109C4F8B8
:10B810001C904020065DE670012E03D0022E01D060
:10B820000D207BE709FB06F93D20005D0646A07070
:10B8300016B1701E304008B10D206FE74120015D48
:10B8400094F8420041EA00202081207A00F00F00A5
:10B8500008B10D2062E74320015D94F8440041EAFD
:10B8600000200490049870B994F85300010694F8ED
:10B87000520041EA004194F8510041EA002094F856
:10B880005010084304903E20015D94F83F0041EAC7
:10B8900000200190019808B90D203FE70198484425
:10B8A000218900EB11100390DDE90301814201D2EF
:10B8B0000D2033E7DDE90310401AA178B0FBF1FB5E
:10B8C000BBF1000F01D10D2028E7012540F6F670ED
:10B8D000834500D302254FF6F670834500D3032538
:10B8E0000BF10200A06103985044A06201985044FB
:10B8F0002062032D16D1208908B10D200EE794F89F
:10B900005F00010694F85E0041EA004194F85D0092
:10B9100041EA002094F85C1008436062A06980004E
:10B92000029014E0208908B90D20F7E6206A484407
:10B930006062022D02D1A069400007E0207E00F085
:10B940000100A16901EB410100EB51000290E169A6
:10B95000029800F2FF10B1EB502F01D20D20DDE66E
:10B960004FF0FF3020610020E060032D5CD160715A
:10B9700094F8601094F8610041EA0020504460613E
:10B980006078012304F13001626900F073FBE8BBC9
:10B9900094F82E1294F82F0241EA00204AF655211D
:10B9A000884241D13320005D01063220005D41EA2A
:10B9B00000413120005D41EA002094F83010084336
:10B9C0002149884230D194F81702010694F81602F2
:10B9D00041EA004194F8150241EA002094F814125B
:10B9E00008431A4988421FD194F81F02010694F8AF
:10B9F0001E0241EA004194F81D0241EA002094F839
:10BA00001C120843E06094F81B0200E00CE0010601
:10BA100094F81A0241EA004194F8190241EA002020
:10BA200094F8181208432061257009480088401CCA
:10BA300080B207490880E0800020E062207100BFEA
:10BA40006CE60000000100205252614172724161B7
:10BA5000080100200246891E9069801E884201D894
:10BA6000002070479378906A01FB0300F9E700001B
:10BA700000B5244B21F0004287B09A42DCBF00227F
:10BA8000134629DD204B9A4208D140B94FF00100FE
:10BA9000FFF7CEFDFFF7ADFD07B000BD03DBFFF7FD
:10BAA000A5FD07B000BD02AAFFF792FA10F003014E
:10BAB00004BF0DF1080C9CE80F000DD001200129F6
:10BAC0000ED0022914D00DF1080C00909CE80F0054
:10BAD000FFF716FD07B000BDFFF73EFC07B000BD45
:10BAE0000DF1080C00909CE80F00FFF709FD05E040
:10BAF0000DF1080C9CE80F00FFF72EFC07B081F059
:10BB0000004100BDFB21E93F0000F07F2DE9F04737
:10BB100004468946B9F1000F06D1E76817B1A0695C
:10BB2000B84211D801270FE04946204600F016FD23
:10BB30000646022E02D20120BDE8F087A069B0427D
:10BB400001D93046F8E74F463D4600BF6D1CA0695D
:10BB5000A84204D80225BD4201D90020ECE72946BD
:10BB6000204600F0FBFC064606B909E0701C08B14F
:10BB7000012E01D13046DFE7BD42E7D10020DBE7EF
:10BB800000BF6FF070422946204600F067FF8046F4
:10BB9000B8F1000F08D1B9F1000F05D02A46494687
:10BBA000204600F05BFF8046B8F1000F09D1E56048
:10BBB0002069401C68B12069401E2061012060712D
:10BBC00007E0B8F1010F02D14FF0FF3000E0012093
:10BBD00005462846B0E700002DE9F35F0198D0F84C
:10BBE000009001E009F1010999F800002F28F9D02F
:10BBF00099F800005C28F5D0009886690B22202176
:10BC0000304600F0D3FE00252F46AB464FF0080A21
:10BC100000BF58460BF1010B19F80040202C03DD42
:10BC20002F2C01D05C2C00D153E02E2C01D0574595
:10BC30000DD3BAF1080F01D12E2C02D00620BDE899
:10BC4000FC9F08274FF00B0AA806050EE1E7802CA1
:10BC500001DB45F00305812C20DBFE2C1EDC584661
:10BC60000BF1010B19F80080B8F1400F02DBB8F1BD
:10BC70007E0F05DDB8F1800F06DBB8F1FE0F03DCA7
:10BC8000AAF10100B84201D80620D8E738467F1C47
:10BC9000345438467F1C06F8008019E0214620A065
:10BCA000FFF714FD08B10620C9E7412C04DB5A2C2C
:10BCB00002DC45F0020508E0612C06DB7A2C04DC8E
:10BCC00045F00105A4F12000C4B238467F1C34546D
:10BCD0009FE700BF09EB0B0101980160202C01DCFC
:10BCE000042000E0002004460FB90620A7E73078C2
:10BCF000E52801D105203070BAF1080F01D1A8065E
:10BD0000050E05F00300012801D144F0100405F0F0
:10BD10000C00042801D144F00804F47200208EE7DE
:10BD2000222A2B2C3A3B3C3D3E3F5B5D7C7F000052
:10BD300010B56FF00400FFF77BF80A4800680A4965
:10BD4000B0FBF1F0094908700846007800EB4001AB
:10BD5000C1EBC0104FF6FF7101EAC0000449088032
:10BD600010BD00000000002000127A001A00002020
:10BD70001C0000200146114A12884A434FF0E0237C
:10BD80005A6100229A611A46126942F001021A6150
:10BD900000BF4FF0E022106900F001021AB100F478
:10BDA0008032002AF5D04FF0E022126922F0010221
:10BDB0004FF0E0231A6100229A6170471C000020B6
:10BDC0002DE9F04104460021204600F0E9F805463F
:10BDD00015B12846BDE8F08100BF2169206800F058
:10BDE000EFFD054605B116E0666937780FB9042501
:10BDF00011E0F07A00F0080030B90B223046A1695A
:10BE000000F088FD00B906E00021204600F006F8A9
:10BE10000546002DE1D000BF2846DBE72DE9F041C3
:10BE200004468846E088401C86B20EB1206910B9ED
:10BE30000420BDE8F08106F00F0000286FD12069D2
:10BE4000401C2061E06828B920680089B04266DCA7
:10BE50000420EEE720688078401E00EA16100028D3
:10BE60005DD1E168206800F079FB0546012D01D81D
:10BE70000220DEE7681C08B90120DAE72068806943
:10BE8000A84246D8B8F1000F01D10420D1E7E168FB
:10BE90002068FFF73BFE05460DB90720C9E7012DD5
:10BEA00001D10220C5E7681C08B90120C1E70021C3
:10BEB000206800F085FD08B10120BAE7216801F192
:10BEC00030004FF40072002100F070FD2946206818
:10BED000FFF7C0FD2168C862002710E0012021683B
:10BEE00008710021206800F06BFD08B10120A0E777
:10BEF0002068C06A401C2168C862781CC7B22068EC
:10BF00008078B842EADC2068C06AC01B2168C86239
:10BF100000BFE56029462068FFF79CFD2061E680B0
:10BF20002068303006F00F0100EB41106061002006
:10BF30007FE72DE9F04104460021204600F030F86B
:10BF40000546ADB900BF2169206800F039FD0546FE
:10BF500005B10CE060690678E52E00D006B906E070
:10BF600001212046FFF75AFF0546002DEBD000BF08
:10BF70009DB92169206800F023FD05466DB9676908
:10BF800020220021384600F011FD0B223846A1691D
:10BF900000F0D3FC0120216808712846BDE8F0813B
:10BFA0002DE9F04104460E46E680A568012D03D038
:10BFB00020688069A84202D80220BDE8F0812DB92E
:10BFC00020680078032801D12068456A65B9E560DA
:10BFD00020680089B04201DC0220EEE72068406A58
:10BFE00000EB1610206120E020688078070112E045
:10BFF0002946206800F0B2FA0546681C08B90120FD
:10C00000DBE7022D03D320688069A84201D8022013
:10C01000D3E7F01B86B2BE42EADAE5602946206823
:10C02000FFF718FD00EB161020612068303006F095
:10C030000F0100EB411060610020BEE710B504461F
:10C0400014B1012C11D112E0FEF768FA30B1FEF7FD
:10C05000DDFBFF20FEF796FBFEF79CFBFEF75EFA8A
:10C0600008B9002010BD0120FCE70120FAE700BF5D
:10C070000120F7E72DE9F04105460E4617461C461C
:10C080004FF0000814B90420BDE8F08115B1012D6E
:10C0900007D100BF224639463046FEF703FB8046F3
:10C0A00002E04FF0010800BF00BFB8F1000F01D15E
:10C0B0000020E9E70120E7E70146002070472DE96D
:10C0C000F04105460E4617461C464FF0000814B9CD
:10C0D0000420BDE8F08115B1012D07D100BF224633
:10C0E00039463046FEF75CFC804602E04FF001081E
:10C0F00000BF00BFB8F1000F01D10020E9E7012027
:10C10000E7E72DE9FC4707468846914600253E466D
:10C1100015E06B46012201A9484600F0E9F80098B5
:10C12000012800D00FE09DF804400D2C00D106E05E
:10C1300006F8014B6D1C0A2C00D104E000BFA8F1E9
:10C140000100A842E5DC00BF0020307015B1384680
:10C15000BDE8FC870020FBE70246022A01DB0B203A
:10C160007047074850F822300BB10020187009B111
:10C1700000200870024840F822100020F0E700007C
:10C18000000100202DE9F7438AB00546164600203D
:10C19000286006F01F0626F0010203A90BA8FFF78E
:10C1A0009FFA0746CDF824D027B903A80B9900F0D1
:10C1B00086F90746089C0FB904B9062706F01C004B
:10C1C000002858D04FB1042F03D103A8FFF7B1FEC8
:10C1D000074646F00806089C09E0E07A00F01100E6
:10C1E00008B1072703E006F0040000B10827002F7C
:10C1F00040D106F0080000283CD000F021FA80462B
:10C2000084F80E804FEA1821E1734FEA1841217437
:10C210004FEA186161740020E07220770021617795
:10C22000A177E177A17EE07E41EA0021227D607D59
:10C2300042EA002041EA00490020A0760021E17690
:10C2400020756175012003990871B9F1000F11D0B3
:10C250000398D0F82C804946039800F09AFC0746D2
:10C2600047B9A9F101000399C8604146039800F05D
:10C27000A7FB07460EE06FB9E07A00F0100008B1A6
:10C28000042707E006F0020020B1E07A00F0010088
:10C2900000B1072747B906F0080008B146F02006AC
:10C2A0000398C06AE8612C62F7B9AE71A17EE07EA6
:10C2B00041EA0021227D607D42EA002041EA0040FF
:10C2C0002861E07F0106A07F41EA0041607F41EAEA
:10C2D0000020217F0843E8600020A860A86103983F
:10C2E00028600398C088A88038460DB0BDE8F08368
:10C2F0002DE9FF4F83B0044615469A46DDF810B08D
:10C300000020CAF80000A188206800F097FD029084
:10C31000029818B1029807B0BDE8F08FA07900F03C
:10C32000800008B10220F6E7A07900F0010008B90A
:10C330000720F0E7D4E90210401A009000988542E7
:10C3400000D9009DB6E02089C0F3080000287DD107
:10C3500020688078401EA16800EA512000F0FF09A3
:10C36000B9F1000F1DD1A06810B92069019004E057
:10C370006169206800F0F2F801900198022805D266
:10C38000A07940F08000A0710220C4E70198401C11
:10C3900028B9A07940F08000A0710120BBE7019886
:10C3A000606161692068FFF755FB06462EB9A079E8
:10C3B00040F08000A0710220ADE74E444FEA5528BE
:10C3C000B8F1000F2DD009EB080021688978884268
:10C3D00003D920688078A0EB090808F0FF032168E2
:10C3E000487832465946FFF745FE28B1A07940F01B
:10C3F0008000A07101208EE7A07900F0400068B1B4
:10C40000A069801B404509D2A169891B0BEB412023
:10C410004FF4007204F1240100F08FFA4FEA48272C
:10C420003EE0A069B04227D0A07900F04000A0B162
:10C4300021684878012304F12401A269FFF73FFE37
:10C4400038B1A07940F08000A07100E015E0012033
:10C4500061E7A07920F04000A071216848780123AD
:10C46000324604F12401FFF705FE28B1A07940F01F
:10C470008000A07101204EE7A6612089C0F308006A
:10C48000C0F50077AF4200D92F462089C0F30802DB
:10C4900004F1240011183A46584600F04EFA00BF45
:10C4A000BB44A0683844A060DAF800003844CAF8F9
:10C4B0000000ED1B002D7FF446AF00202BE72DE997
:10C4C000F3410446019800782F2803D001980078A2
:10C4D0005C2802D10198401C01900020A0600198C6
:10C4E0000078202807D200212046FFF759FD064694
:10C4F000002060612FE000BF01A92046FFF76CFB20
:10C50000064606B126E02046FFF75AFC0646A0691B
:10C51000C77A46B1042E00D01CE000BF07F004002B
:10C5200000B9052616E007F0040000B112E06569C5
:10C53000E87A00F0100008B905260BE0A97EE87E35
:10C5400041EA00212A7D687D42EA002041EA00405C
:10C55000A060D1E700BF3046BDE8FC812DE9F04185
:10C5600005460C46022C02D3A869A04202D801203D
:10C57000BDE8F0812878012804D002282CD00328B7
:10C580005AD13DE0274607EB5707286A00EB5721B1
:10C59000284600F015FA00B14EE0C7F3080105F196
:10C5A000300010F801807F1C286A00EB57212846D4
:10C5B00000F006FA00B13FE0C7F3080105F13000D2
:10C5C000405C48EA002804F0010010B14FEA18105E
:10C5D000CEE7C8F30B00CBE7286A00EB142128460E
:10C5E00000F0EEF900B127E040F2FF1000EA44014C
:10C5F00005F130000E183078717840EA0120B7E775
:10C60000286A00EBD411284600F0DAF900B113E0F3
:10C6100040F2FF1000EA840105F130000E18F078B6
:10C620000006B17840EA0140717840EA0120317893
:10C63000084320F070409BE700BF4FF0FF3097E7C2
:10C64000002070470EB500217748FDF797FEFFF7F1
:10C650006FFBFDF7FBFDFDF72BFB00F07BF90020E6
:10C66000F0234FF48C7201460090FDF78DFAFEF72F
:10C6700035FB4FF4FA70FFF77DFB4FF6FF70F023A8
:10C680004FF48C72002100900846FDF77DFA0A20D5
:10C69000FFF770FB002010214FF6FF720346CDE933
:10C6A0000021029061A2C8213820FDF767FDFDF747
:10C6B00035FF80B1002010214FF6FF720346CDE90F
:10C6C000002102905DA2C8213820FDF757FDC82047
:10C6D000FFF750FB2DE0002010214FF6FF720346BC
:10C6E000CDE90021029059A2C8213820FDF746FD6E
:10C6F000FDF7D8FE59490860002010214FF6FF725F
:10C700000346CDE90021029055A2C8210846FDF755
:10C7100035FD10204FF6FF7100220523CDE90021E1
:10C7200002904E480068C0F3CF22C821A020FDF738
:10C730007DFC4FF47A70FFF71DFB4AA0F0234FF405
:10C740008C72002100900846FEF738FB6420FFF74A
:10C7500011FB46A0F0234FF48C7200210090084694
:10C76000FEF72CFB6420FFF705FB43A0F0234FF4FA
:10C770008C72002100900846FEF720FB6420FFF732
:10C78000F9FA3FA0F0234FF48C7200210090084684
:10C79000FEF714FB6420FFF7EDFA4FF6FF70F0236D
:10C7A0004FF48C72002100900846FDF7EDF90A2045
:10C7B000FFF7E0FA4FF6FF70B4234FF48272552171
:10C7C00000909620FDF7E0F92FA0FEF799FA31A02E
:10C7D00080231A46642100901420FEF7EFFA3048B7
:10C7E00028231A46142100900A20FDF76BFC1AE05A
:10C7F00040F2FF703C23A022142100907820FDF726
:10C80000C3F94FF6FF7300220A213220FCF7C8FF5C
:10C810001F203C23A022142100907820FDF7B4F9BA
:10C820000A20FFF7A7FAE3E7008D000853442043EE
:10C830006865636B696E672E2E2E00005344204599
:10C8400072726F7220202020202020005344204F3D
:10C850004B20202020202020202000001400002039
:10C860004D4200005848522E62696E00484D4242C7
:10C870002E62696E000000005049432E62696E000E
:10C880004633352E62696E00746573742E74787445
:10C89000000000006769726C2E62696E0000000083
:10C8A00066CE00082DE9FE4F05460E46002423E023
:10C8B00004EB440206EB8202A9689068FCF745FB92
:10C8C000804604EB440206EB820269685068FCF77C
:10C8D0003CFB814604EB440256F822002968FCF731
:10C8E00034FB82464946FCF7D8FA07464146FCF736
:10C8F000D4FA4DF82400641C032CD9DB002004E09A
:10C900005DF8201045F82010401C0328F8DB28466D
:10C91000BDE8FE8FF0B503461C460D46002000BF63
:10C92000161EA2F1010207D014F8017B15F801CB05
:10C93000A7EB0C06301EF3D0F0BD70B503460C46D5
:10C9400003E014F8015B03F8015B151EA2F101027C
:10C95000F7D170BD00B509494FF4C072C868002115
:10C9600000F067F805494FF4C0528868002100F0D4
:10C9700060F801200149087400BD0000EC000020AF
:10C980000022002106E00848C06830F8110000B11C
:10C99000521C491CC029F6D364205043C023B0FB6D
:10C9A000F3F0C0B270470000EC00002030B5034641
:10C9B00001E003F8011B141EA2F10102F9D130BD00
:10C9C0002DE9F04104460D46E66AAE422FD02079AB
:10C9D00008B360780123324604F13001FFF76FFBA2
:10C9E00010B10120BDE8F08100202071D4E90710CA
:10C9F0000844B0420FD9E7780AE0E069064460785D
:10CA00000123324604F13001FFF759FB781EC7B20B
:10CA1000012FF2DC00BF55B1607801232A4604F1F2
:10CA20003001FFF727FB08B10120DBE7E5620020BA
:10CA3000D8E730B5034601E003F8011B141EA2F14C
:10CA40000102F9D130BD10B50246012000E050438B
:10CA50000B1EA1F10104E1B2F9D110BD2DE9F0479F
:10CA600005460E461746022E02D3A869B04202D8E8
:10CA70004FF002088AE02878012804D0022841D02B
:10CA800003287DD154E0B14609EB5909286A00EB2F
:10CA900059212846FFF794FF8046B8F1000F00D0D7
:10CAA00071E0C9F3080105F130000C1806F001002F
:10CAB00020B1F9B2207861F31F1000E038462070F1
:10CAC00009F1010901202871286A00EB5921284643
:10CAD000FFF776FF8046B8F1000F00D053E0C9F3AE
:10CAE000080105F130000C1806F0010010B1C7F381
:10CAF000071005E0207800F0F000C7F30321084399
:10CB0000207040E0286A00EB16212846FFF758FF06
:10CB10008046B8F1000F00D035E040F2FF1000EA87
:10CB2000460105F130000C182770380A60702AE0C1
:10CB3000286A00EBD6112846FFF742FF8046B8F17D
:10CB4000000F00D01FE040F2FF1000EA860105F15F
:10CB500030000C18E0780006A17840EA01406178C6
:10CB600040EA01202178084300F070400743277015
:10CB7000380A6070380CA070380EE07003E0FFE7F0
:10CB80004FF0020800BF00BF012028714046BDE8F9
:10CB9000F0872DE9F04104460E46022E02D3A0692B
:10CBA000B04201D8022725E000271FE03146204689
:10CBB000FFF7D4FC054605B91BE0012D01D1022782
:10CBC00017E0681C08B9012713E00022314620460F
:10CBD000FFF744FF074607B10BE02069401C20B176
:10CBE0002069401C2061012060712E46A069B0427E
:10CBF000DCD800BF3846BDE8F08100002DE9F04FD9
:10CC00009BB083460C4691469A462046FCF75BFA59
:10CC100007465F4A5F4BFCF7CAF90546FCF766FA20
:10CC200004464846FCF74FFA0746594A594BFCF769
:10CC3000BEF90546FCF75AFA81465046FCF743FA1E
:10CC40000546534A534BFCF7B2F90746FCF74EFA38
:10CC500082462422504912A8FCF706F95046FCF7F8
:10CC600032FA0746FEF704FF0546FCF73FFA12903A
:10CC70005046FCF728FA054600F090F881F0004194
:10CC80000746FCF733FA13905046FCF71CFA0746A8
:10CC900000F084F80546FCF729FA15905046FCF799
:10CCA00012FA0746FEF7E4FE0546FCF71FFA169057
:10CCB00024223949243109A8FCF7D6F84846FCF764
:10CCC00002FA0746FEF7D4FE0546FCF70FFA0D9070
:10CCD0004846FCF7F8F9054600F060F881F000419D
:10CCE0000746FCF703FA0E904846FCF7ECF90746B6
:10CCF00000F054F80546FCF7F9F910904846FCF7A7
:10CD0000E2F90746FEF7B4FE0546FCF7EFF911908D
:10CD10002422214948316846FCF7A6F82046FCF752
:10CD2000D2F90746FEF7A4FE0546FCF7DFF90090AE
:10CD30002046FCF7C8F9054600F030F80746FCF736
:10CD4000D5F902902046FCF7BEF9054600F026F81A
:10CD500081F000410746FCF7C9F906902046FCF730
:10CD6000B2F90746FEF784FE0546FCF7BFF90890C6
:10CD700012A95846FFF796FD064609A9FFF792FD4E
:10CD800005466946FFF78EFD1BB0BDE8F08F000039
:10CD90004AD8124DFB2109403C24010800B5254B1F
:10CDA00021F0004287B09A4203DC00221346009231
:10CDB0002BE0214B9A4208D140B94FF00100FEF719
:10CDC00037FCFEF716FC07B000BD03DBFEF70EFCD8
:10CDD00007B000BD02AAFEF7FBF810F003014FF008
:10CDE00001000DD0012914D002291AD00DF1080C30
:10CDF0009CE80F00FEF7B0FA07B081F0004100BDDB
:10CE00000DF1080C00909CE80F00FEF779FB07B0CD
:10CE100000BD0DF1080C9CE80F00FEF79DFA07B06D
:10CE200000BD0DF1080C00909CE80F00FEF768FBB8
:10CE3000E2E70000FB21E93F0000F07F70B5044607
:10CE40000D4624B1207810B1E088A84201D0092015
:10CE500070BD6078FFF730F900F0010008B10320E1
:10CE6000F6E70020F4E7FFFFFFFFFFFFFFFFFFFFF4
:10CE7000FFFFFFFFFFFFFFFFFFFFFFFFFFFFFFFFC2
:10CE8000FFFFFFFFF7BEFFFFFFDEC6388C926B8E01
:10CE90006B6E7C10AD96E73CFFFFFFFFFFFFFFFFCF
:10CEA000FFFFFFFFFFFFFFFFFFFFFFFFFFFFFFFF92
:10CEB000FFFFFFFFFFFFFFFFFFFFFFFFFFFFFFFF82
:10CEC000FFFFFFFFFFFFFFFFFFFFFFFFFFFFFFFF72
:10CED000FFFFFFFFEF5D9D15634F426C320A29880B
:10CEE00019461925214531E86B8EC638FFFFFFFF33
:10CEF000FFFFFFFFFFFFFFFFFFFFFFFFFFFFFFFF42
:10CF0000FFFFFFFFFFFFFFFFFFFFFFFFFFFFFFFF31
:10CF1000FFFFFFFFFFFFFFFFFFFFFFFFFFFFFFFF21
:10CF2000FFFFA53653104B1053514B0F3A6C31E9AC
:10CF30002167192510E408A30062088352CBD69A12
:10CF4000FFFFFFFFFFFFFFFFFFFFFFFFFFFFFFFFF1
:10CF5000FFFFFFFFFFFFFFFFFFFFFFFFFFFFFFFFE1
:10CF6000FFFFFFFFFFFFFFFFFFFFFFFFFFFFE73CAC
:10CF7000637063B37CB863F54311324D29EA2188AD
:10CF80001926190519051104110410E4008308A3DA
:10CF90008C72FFFFFFFFFFFFFFFFFFFFFFFFFFFFA1
:10CFA000FFFFFFFFFFFFFFFFFFFFFFFFFFFFFFFF91
:10CFB000FFFFFFFFFFFFFFFFFFFFFFFFDEDB3A4B3F
:10CFC00042F06C354B5432B12A2E21EB21A919675E
:10CFD000190511041104110411041104190510E4B8
:10CFE000004273AFFFFFFFFFFFFFFFFFFFFFFFFFE9
:10CFF000FFFFFFFFFFFFFFFFFFFFFFFFFFFFFFFF41
:10D00000FFFFFFFFFFFFFFFFFFFFEF5D3209324C25
:10D010004B10328F2A4F2A2E19CC19892189194792
:10D0200019051104110410C410C4110411041104D1
:10D0300010E400428431FFFFFFFFFFFFFFFFFFFF0F
:10D04000FFFFFFFFFFFFFFFFFFFFFFFFFFFFFFFFF0
:10D05000FFFFFFFFFFFFFFFFFFFF52EC1947324CBE
:10D060002A0B21EC21EC220C5B914AEE11061926C9
:10D07000190410E410E429A7216608A31905110476
:10D08000110410E40082BDF7FFFFFFFFFFFFFFFF69
:10D09000FFFFFFFFFFFFFFFFFFFFFFFFFFFFFFFFA0
:10D0A000FFFFFFFFFFFFFFFFA535088321882188D1
:10D0B000218921AA218A426B8C71FFFF8C7208831F
:10D0C000110408C44229DEFBEF5D5AEC0883110409
:10D0D00011041104088331E8FFDFFFFFFFFFFFFFAA
:10D0E000FFFFFFFFFFFFFFFFFFFFFFFFFFFFFFFF50
:10D0F000FFFFFFFFFFFFF7BE31C710C41925192638
:10D100001947194729A8528A4A28AD55FFFF31E827
:10D1100008A319056B4D6B4DFFFFEF7D214510C432
:10D120001104110411040062AD76FFFFFFFFFFFF41
:10D13000FFFFFFFFFFFFFFFFFFFFFFFFFFFFFFFFFF
:10D14000FFFFFFFFFFFFB5960062110419041105F0
:10D15000190508C44A8BB5B6EF5DBDF7FFFF6B8EAE
:10D16000006242295AAA4208FFFFFFFF52CC0883FF
:10D1700011041104110408A352ADFFFFFFFFFFFFCC
:10D18000FFFFFFFFFFFFFFFFFFFFFFFFE71CFFFFAA
:10D19000FFFFFFFFFFFF634E006211041104110443
:10D1A00010E40062638EFFFFFFFFFFFFFFFF73CFFE
:10D1B00000019CF3632CB596FFFFFFFF5B2D0083FE
:10D1C00011041104110410E42167EF3DFFFFFFFF7C
:10D1D000FFFFFFFFFFFFBDF8B5B7EF9E52CB94B343
:10D1E000FFFFFFFFFFDF31E808A311041104110462
:10D1F000110408A34249F7FFF7FFFFFFFFFF4A6A48
:10D2000000018472FFFFFFFFF7FFEFDF3A0908A379
:10D2100011041104110411041105BE18FFFFFFFFD2
:10D22000FFFFFFFFFFFF7BF0006231E831C70041E5
:10D23000A535FFFFEF5D214610C411041104110450
:10D24000110410E408A39D76F7FFFFFFADB708A314
:10D2500008A331C7E79EF7FFF7FFA57608A310E400
:10D2600011041104110411051105A535FFFFFFFF7D
:10D27000FFFFFFFFFFFFDEDB29A7008310C410C400
:10D2800010C4E71CEF9E110510E4110411041104F1
:10D290001104190408C410E56BD16BD108C50064F2
:10D2A00008A50043322B9D7784B3192510C41104BF
:10D2B000110411041104192509269D35FFFFFFFFF4
:10D2C000FFFFFFFFFFFFFFFF73AF006219041905A7
:10D2D00000825B0D9B8E106211051104110419046C
:10D2E00010E40085110539C45A817B409C22AC436F
:10D2F000A4039B837282498218C200A400C510E473
:10D30000190411041905194711675AECFFBEFFFFF4
:10D31000FFFFFFFFFFFFFFDFDEDB10C410E411049F
:10D32000110518A4C001888300E41905190408C573
:10D3300021448343D523FE42FEE4FF27FF07FEA4DA
:10D34000FE64FE03FDA3FCE2EC42B383622410E51D
:10D3500008C41904192619A821879000BCD3FFFF1F
:10D36000FFFFFFFFFFFFFFDFFFFF7C1000421905FB
:10D3700011052883D001F84448A300E408C55A44A5
:10D38000ED02FDE2FE02FE66FF74FFB8FF73F6E7F2
:10D39000F6A6F645F5A4FCC3FC62FCC2FCC2CBE3D6
:10D3A00049C411061988018790A4F8019AECFFFF7F
:10D3B000FFFFFFFFFFFFFFFFFFFFF7BE31E8008326
:10D3C00009054082C001F823F08548A300A45A440F
:10D3D000FD02CC23DCC2FE04FE28F648F646F62405
:10D3E000F5E4FD64FCE3FC62FCC2E402DC02FCE266
:10D3F0007AA40148016778C4F824F802B084E77D74
:10D40000FFFFFFFFFFFFFFFFFFFFFFFFDEDB192531
:10D4100000A338C4E002D822F844F8A678A4006338
:10D420002143728339839B82F521FD61FD22FCE259
:10D43000FCA2FC42FC42FC42AB22418392C3520458
:10D440000126192598A4F844F823F802D0A4EF9EE9
:10D45000FFFFFFFFFFFFFFFFFFFFFFFFFFFFD69A6A
:10D46000298700A5B843F822E023F865F8E8C90742
:10D470004883004200A3008429637AA2B362CBA24E
:10D48000D362BB028A82398300A400E500E508E587
:10D4900060C4D864F844F824F823F8028883C6DB13
:10D4A000FFFFFFFFFFFFFFFFFFFFFFFFFFFFFFFF8C
:10D4B000E73D5B503108E823F843F044F865F9098B
:10D4C000F9ABD189890648A31842000200420061E5
:10D4D000008200620062008320A350C488A5D88522
:10D4E000F865F844F844F823F823D003108229C7DC
:10D4F000EF5DFFFFFFFFFFFFFFFFFFFFFFFFFFFFEE
:10D50000FFFFFFFF326C38A5D802F823F865F866F4
:10D51000F8A7F94AFA0CFA4DEA4CD20BB9A9B1684E
:10D52000A947B127B907D107E8E7F8C7F8A7F86511
:10D53000F865F844F823F803D00228A3090508C4C5
:10D540005AECFFFFFFFFFFFFFFFFFFFFFFFFFFFFA3
:10D55000FFFFDEFB190500C441A7C0E6F803F8860B
:10D56000F8A7F887F886F8C7F929F98AF9ABF9AB73
:10D57000F98BF96AF929F908F8C7F8A6F886F86569
:10D58000F864F823F002B106292500E410E4192517
:10D5900019259D14FFFFFFFFFFFFFFFFFFFFFFFFA8
:10D5A000FFFFAD96006208829535CEBAA28BD044BB
:10D5B000F825F887F8A7F8C7F8A7F887F886F88657
:10D5C000F886F887F8A7F8A7F8A6F885F865F8644C
:10D5D000F024B864930DB6BB63CF0883110410E444
:10D5E00021663A49EF5DFFFFFFFFFFFFFFFFFFFFEF
:10D5F000FFFF94D3004210E4CEBBFFFFE7BEB57639
:10D60000AACCC107E045F845F846F866F886F886E2
:10D61000F886F886F865F845F865E865D044A843CB
:10D6200088019082D73CEFFF9555088311041104BF
:10D630001905194694B3FFFFFFFFFFFFFFFFFFFF30
:10D64000FFFF94B300412186DF5DFFFFFFFFFFFF77
:10D65000E7DFC67AB4D3B34EC22AD168E0E6E8A6C3
:10D66000E8A5E8A5D8E6C988A906A822A802A000CE
:10D67000C800D800E5F7E7FFADF810C410E41104C6
:10D6800010E411054A8BFFFFFFFFFFFFFFFFFFFFC5
:10D69000FFFFA555004129A7DF5DF7FFFFFFFFFF53
:10D6A000FFFFFFFFFFFFEFFFDF7DCEDBCE59CDF8A1
:10D6B000CDD7C5F7CE79BEFBA2ABF003F845D0427B
:10D6C000E843F000D472DFFFAE3910E410E4110437
:10D6D00010E411052987FFFFFFFFFFFFFFFFFFFF9A
:10D6E000FFFFCE5908832146D71CF7FFFFFFFFFF3E
:10D6F000FFFFFFFFFFFFFFFFFFFFFFFFFFFFFFFF3A
:10D70000FFFFFFFFFFFFEFFFBA8BF804F845E06271
:10D71000F044F800DB8EDFFFA5F810C410E410E43D
:10D72000110410E41925FFFFFFFFFFFFFFFFFFFFBC
:10D73000FFFFF7BE29870883B639F7FFF7DFFFFF42
:10D74000FFFFFFFFFFFFFFFFFFFFFFFFFFFFFFFFE9
:10D75000FFFFFFFFFFFFE7BEBA4AF803F845F86492
:10D76000F844F800E36ED7FF8CF40883110410E44A
:10D7700010E410E41905FFFFFFFFFFFFFFFFFFFFAD
:10D78000FFFFFFFF73EF00008472EFFFEFBEFFDFCC
:10D79000FFFFFFFFFFFFFFFFFFFFFFFFFFFFFFFF99
:10D7A000FFFFFFFFFFFFE7DFBA8BF803F845F845FF
:10D7B000F823F800D4D3D7FF5B4E00213A29A555B2
:10D7C000088310C41925FFFFFFFFFFFFFFFFFFFFC6
:10D7D000FFFFFFFFDEFB08A331E8DF9EE79EEFBF00
:10D7E000FFFFFFFFFFFFFFFFFFFFFFFFFFFFFFFF49
:10D7F000FFFFFFFFFFFFF7FFBC51E002F803F0035C
:10D80000E043C2ECCF7EBEFC2146002194D3FFFF53
:10D81000845100002987FFFFFFFFFFFFFFFFFFFF8D
:10D82000FFFFFFFFFFFF845100008CF4EFFFE79E36
:10D83000EFBFFFDFFFFFFFFFFFFFFFFFFFFFFFFF68
:10D84000FFFFFFFFFFFFFFFFDF3DBD55BC52BC7276
:10D85000B5B7C75DDFFF6BF000003A09F7BFFFFF08
:10D86000FFFF9D14A555FFFFFFFFFFFFFFFFFFFF19
:10D87000FFFFFFFFFFFFFFFF4AAC08A4BEBBE7DFCF
:10D88000E77EEFBEF7DFFFDFFFFFFFFFFFFFFFFFDA
:10D89000FFFFFFFFFFFFFFDFF7DFEFFFDFDFD7BF98
:10D8A000D79EDFDFA5D808831126D6DBFFFFFFFF59
:10D8B000FFFFFFFFFFFFFFFFFFFFFFFFFFFFFFFF78
:10D8C000FFFFFFFFFFFFEE79DC8B312121A9CF3D68
:10D8D000DFBFDF7EE79EEFBEEFBFF7DFF7DFF7DFEB
:10D8E000F7DFF7DFEFBFEFBEE79EDF7ED75ED75EE5
:10D8F000DFDFB69A19260842A3EDFFBFFFFFFFFF47
:10D90000FFFFFFFFFFFFFFFFFFFFFFFFFFFFFFFF27
:10D91000FFFFFFFFDD74DBC0FE00EE424202218903
:10D92000B67BDFDFD77EDF7EDF7EE79EE79EE79E6A
:10D93000E79EE79EDF7EDF7ED75DD75DDF9EE7FF58
:10D94000A5F8110718E3C502FD60D3E6EEDBFFFF83
:10D95000FFFFFFFFFFFFFFFFFFFFFFFFFFFFFFFFD7
:10D96000FFFFF79EBA84FCC1FE42FE82FEA28381C5
:10D9700021457474C75EDFDFD77ED75ED75DD75E83
:10D98000D75ED75DD75DD75EDF9EE7FFC73D63F10A
:10D9900008845242E626FF29FE86F3E0C36AFFFFB1
:10D9A000FFFFFFFFFFFFFFFFFFFFFFFFFFFFFFFF87
:10D9B000FFFFDE18D2C1FDA2FE22FE42FE42FE6241
:10D9C000D4E26A4142497453A63BC73ED7BFD7BF92
:10D9D000D7BFDFBFD7BFC73EA61A63F229A74182D0
:10D9E000B422FE62FE83FEAAFF0FFD67BA63EF3C1E
:10D9F000FFFFFFFFFFFFFFFFFFFFFFFFFFFFFFFF37
:10DA0000FFFFE69AD280FD21FDC2F5E2F5C2F58264
:10DA1000FD82FD62DC619B216A846AE9632C63AF4D
:10DA20007411636E632C5A8952047A81CBC2FCE272
:10DA3000FD62FD82FDC2FDC2FDE4FD24CA62E71C59
:10DA4000FFFFFFFFFFFFFFFFFFFFFFFFFFFFFFFFE6
:10DA5000FFFFFFFFCCB1D281F3C0FCC1FD02FD028C
:10DA6000FCE2FCC2FCC2FC81FB80C9C081A4AD35D4
:10DA7000CE599C718121DA00FBA1FC82FCA2FC82C0
:10DA8000FCA2FD02FD22FCE2FC00DA60CC90FFFF6C
:10DA9000FFFFFFFFFFFFFFFFFFFFFFFFFFFFFFFF96
:10DAA000FFFFFFFFFFFFDE59C40DCB06D2E4DB030F
:10DAB000DB03DAE3D2C3C2A4B309BCD2F79EFFFFF3
:10DAC000FFFFFFFFE6FBB40EBAA6D283E2E3EB0250
:10DAD000EB22E322DB03D2E4C36AD5B6FFFFFFFFEC
:10DAE000FFFFFFFFFFFF38A640A6388648A848A9D9
:10DAF00048A950EA50EB614C5A8E104441CB20C6E5
:10DB000020679A5AC37DDBFFE47FE4BFED5FA43F4B
:10DB1000A41FB47FBCDF388540C840A648C948C9A7
:10DB200050EA28A6322A18C320E320C3398631469A
:10DB30002924314639E98A96A239B29CBA7E9BDE05
:10DB4000A41FAC7FB49F388640A740A748C948C8E7
:10DB5000292318A218821020104010611082106131
:10DB60001041106118A220A441E9BABEB29F82FF01
:10DB7000AC5FA41FAC3F40A640A740A848E820C324
:10DB800010610841104110411040104110411041F6
:10DB9000106010611061188118C318A3B29F9B9F79
:10DBA000E65EA3DFA3BF388540A740A720A31022CD
:10DBB000084008410820186120615904616579A571
:10DBC00081C5590440E32021188220A218638A5C91
:10DBD0007A9C829F935F388648C739260020084187
:10DBE000182050E371456144AA47B246D349E3CABD
:10DBF000E40BD2E8D2C7C2A8A2AA388218C3BA9D41
:10DC0000A25A28697A7D388640A718A208410821BF
:10DC1000718560A2A227B226B226B226C287DB8A0D
:10DC2000DBAADB09D287DA86D308EBED0820AA9BB2
:10DC300099F739249A79388648A7084008415987C6
:10DC400079A699C6AA069206C2E9A9E5AA06D3282A
:10DC5000DB8ADB0899E57184DB28E32A91E89A974F
:10DC6000921679F38A3538A640A6084128C369C9B7
:10DC7000798599C5A38C410240423902A1E6D2E8D8
:10DC8000DB69B32A50624000E632DB69E3AF9A35C4
:10DC900049A789F381D240A640A6082159A969C99C
:10DCA000798589A5932A602000822841B226D3086D
:10DCB000E3AAC4B0304148A3E571E36AEBEF89B44D
:10DCC000516B81D2799038A640A6286359C969C999
:10DCD0007985AA0672C9716260008A89E349E38A7C
:10DCE000EC0CE40E69426101BB2AEBCBE3CE71710F
:10DCF000698F7170716F38A540A66124516861CA3F
:10DD00008186B1C6D2A7DB09EBCBE3EBDBABA9C6BF
:10DD1000E38BEDEFEDCEF58EED4EECADF44F69B04B
:10DD20002003696F698E30A538A67926696961EB91
:10DD30008986B1A6D287E36AE3CBE44CE44CD36B8B
:10DD4000E3ECF58EEDF0F5AFECEDF46DF40E698FCC
:10DD500058EB51291800308438A640C568E361CCDF
:10DD6000798699A6AA06BA67BA67B247BA87CB0975
:10DD7000DB89DB89DB4AE38AE38AE36ACAEC616F09
:10DD8000594B616C510B3065388538A54886406425
:10DD900069A779A489A5898479443861718499C572
:10DDA000BA67BA2791648964BA26CA8750C9592BC1
:10DDB000592B590B58EA3064306538A538A538A579
:10DDC0005947696479A491C5920689C569242000E0
:10DDD00020008124CAA8AA26A9A5794850C8B45B06
:10DDE000F65F514CDD7E2864308430A4388530A540
:10DDF00038C648E5694479A48184818481A591A5C8
:10DE0000A1E5B206B9E6A1A470E648A9F63FC51D92
:10DE1000CCFDCCFDC4D728632884308430852863AA
:10DE200038A530A4192739036944694371437964DB
:10DE30008964896461A7BC9BBC7EC49CC4BAC4D7F6
:10DE4000BCF6B4F4B4742863286328843084308426
:10DE50003084520E1145192519241081612279034D
:10DE6000088361A3322DBC5EAC56B494B4B4B4B490
:10DE7000B494B473B432206320632863286430847C
:10DE8000288449A84163292419241924008200C147
:10DE900031812A693A69AC14AC73AC74AC93AC733D
:10DEA000AC53B433B3F22063208328632883286300
:10DEB000298841831167116830805940192521A6AE
:10DEC000324A4AEC21A74ACCA452A4129BF1A3D116
:10DED000A3D1ABD0ABB12062206220622063286363
:10DEE0001165196819651949196611A72A083209B7
:10DEF00039E75A0651A63A4A9C12A4119BB09BB02E
:10DF0000A3AFA38F9B2E2062206220632062286330
:10DF10001185196819234988196521C721E72A291C
:10DF2000920338E032083A6A9BB1938F934E934E36
:10DF30009B4E92ED3882184220622062206220625D
:10DF40005100514021871925518261A329A729E752
:10DF500039E929E8498449E282EB7A4A828B7A4A94
:10DF6000510548A27165000000000000000000009B
:10DF70000000000004040404040000040000141461
:10DF80000A00000000000000000000000A0A1F0A4A
:10DF90000A1F0A0A000000040E1505060C14150ECF
:10DFA0000400000012150D152E2C2A12000000008E
:10DFB000040A0A36151529160000020201000000A5
:10DFC000000000000000100808040404040408080D
:10DFD00010000204040808080808040402000000F5
:10DFE0000004150E0E150400000000000008083E95
:10DFF000080800000000000000000000000002020D
:10E00000010000000000003F0000000000000000D0
:10E0100000000000000000020000002010100808AE
:10E0200004040202010000000E1111111111110E61
:10E0300000000000040604040404040E00000000B4
:10E040000E1111080402011F000000000E11100C37
:10E050001010110E00000000080C0C0A091F081C0B
:10E06000000000001F01010F1110110E0000000040
:10E070000C12010D1311110E000000001E100808F3
:10E0800004040404000000000E11110E1111110E01
:10E09000000000000E111119161009060000000002
:10E0A0000000040000000004000000000000000464
:10E0B000000000040400000010080402020408101C
:10E0C0000000000000003F003F00000000000000D2
:10E0D0000204081010080402000000000E111108CC
:10E0E00004040004000000001C22292D2D1D221C08
:10E0F0000000000004040C0A0A1E12330000000095
:10E100000F12120E1212120F000000001E11010158
:10E110000101110E000000000F1212121212120F54
:10E12000000000001F120A0E0A02121F0000000069
:10E130001F120A0E0A020207000000001C12010151
:10E140003911120C000000003312121E1212123389
:10E15000000000001F0404040404041F0000000069
:10E160003E080808080808080907000037120A06D0
:10E170000A12123700000000070202020202223FC8
:10E18000000000003B1B1B1B15151535000000008F
:10E190003B1216161A1A1217000000000E11111168
:10E1A0001111110E000000000F12120E02020207E0
:10E1B000000000000E1111111117190E18000000B7
:10E1C0000F12120E0A121237000000001E11010673
:10E1D0000810110F000000001F1504040404040EB1
:10E1E00000000000331212121212120C0000000084
:10E1F0003312120A0A0C040400000000151515154C
:10E200000E0A0A0A000000001B0A0A04040A0A1B7C
:10E21000000000001B0A0A0A0404040E00000000AB
:10E220001F0908040402121F00001C040404040453
:10E23000040404041C00000202040404080808107A
:10E2400010000E0808080808080808080E00040A4C
:10E2500000000000000000000000000000000000BE
:10E2600000000000003F0204000000000000000069
:10E27000000000000000000C121C123C0000000313
:10E280000202020E1212120E000000000000001C1A
:10E290001202120C000000181010101C1212123C76
:10E2A000000000000000000C121E021C00000018FC
:10E2B0002404041E0404041E000000000000003CAE
:10E2C000120C021C221C00030202020E1212123750
:10E2D00000000004040000060404040E000000080E
:10E2E0000800000C08080808080700030202021AC8
:10E2F0000A060A1300000007040404040404041FAF
:10E30000000000000000000F1515151500000000AA
:10E310000000000F12121237000000000000000C75
:10E320001212120C000000000000000F1212120E58
:10E33000020700000000001C1212121C103800001E
:10E340000000001B06020207000000000000001E83
:10E35000020C101E000000000004041E0404041C33
:10E36000000000000000001B1212123C0000000020
:10E370000000001B0A0A0404000000000000001551
:10E38000150E0A0A000000000000001B0A040A1B08
:10E39000000000000000003312120C08040300000B
:10E3A0000000001E0804041E000018080808080CDD
:10E3B00008080808180008080808080808080808D5
:10E3C00008080604040404080404040406001609EA
:10E3D000000000000000000000000000000000003D
:10E3E0000000000000000000000000000008080815
:10E3F0000808080800001818000000486C241200E3
:10E4000000000000000000000000000000242424A0
:10E410007F1212127F12121200000000081C2A2A1A
:10E420000A0C1828282A2A1C080800000022251592
:10E4300015152A585454542200000000000C1212E2
:10E44000120A76252911916E0000000606040300C9
:10E450000000000000000000000000402010100834
:10E4600008080808081010204000000204080810DE
:10E470001010101010080804020000000000080826
:10E480006B1C1C6B0808000000000000000008085E
:10E4900008087F08080808000000000000000000CD
:10E4A0000000000000000606040300000000000059
:10E4B0000000FE000000000000000000000000005E
:10E4C0000000000000000606000000008040402020
:10E4D0002010100808040402020000000018244262
:10E4E00042424242424224180000000000080E0846
:10E4F000080808080808083E00000000003C4242E6
:10E50000422020100804427E00000000003C4242ED
:10E51000201820404042221C00000000002030282B
:10E52000242422227E20207800000000007E0202A7
:10E53000021A26404042221C00000000003824023B
:10E54000021A26424242241800000000007E2222C5
:10E55000101008080808080800000000003C4242AB
:10E56000422418244242423C000000000018244289
:10E57000424264584040241C00000000000000009B
:10E58000181800000000181800000000000000002B
:10E5900000080000000000080804000000402010EF
:10E5A00008040204081020400000000000000000E1
:10E5B0007F0000007F00000000000000000204084F
:10E5C000102040201008040200000000003C4242DD
:10E5D000464020101000181800000000001C225AAD
:10E5E000555555552D42221C000000000008081802
:10E5F0001414243C224242E700000000001F2222A3
:10E60000221E22424242221F00000000007C4242A1
:10E61000010101010142221C00000000001F2242F2
:10E62000424242424242221F00000000003F42128A
:10E63000121E12120242423F00000000003F42122E
:10E64000121E12120202020700000000003C2222E9
:10E65000010101712122221C0000000000E742425A
:10E6600042427E42424242E700000000003E08086B
:10E67000080808080808083E00000000007C101088
:10E680001010101010101010110F0000007722123F
:10E690000A0E0A121222227700000000000702026E
:10E6A000020202020202427F0000000000773636BA
:10E6B00036362A2A2A2A2A6B0000000000E3464642
:10E6C0004A4A52525262624700000000001C224136
:10E6D000414141414141221C00000000003F4242B3
:10E6E00042423E020202020700000000001C2241DA
:10E6F000414141414D53321C60000000003F424205
:10E70000423E1212222242C700000000007C424218
:10E71000020418204042423E00000000007F4908E9
:10E72000080808080808081C0000000000E742422A
:10E73000424242424242423C0000000000E7424264
:10E74000222424141418080800000000006B494912
:10E7500049495555362222220000000000E7422494
:10E7600024181818242442E7000000000077222211
:10E77000141408080808081C00000000007E21206E
:10E78000101008040442423F0000007808080808FE
:10E7900008080808080808087800000002020404B5
:10E7A00008080810102020204040001E10101010F3
:10E7B00010101010101010101E000038440000003F
:10E7C0000000000000000000000000000000000049
:10E7D000000000000000000000FF0006080000002C
:10E7E0000000000000000000000000000000000029
:10E7F000003C4278444242FC000000000003020258
:10E80000021A26424242261A0000000000000000C0
:10E81000003844020202443800000000006040401A
:10E8200040784442424264D80000000000000000EA
:10E83000003C427E0202423C0000000000F08808DA
:10E84000087E08080808083E0000000000000000DC
:10E85000007C22221C023C42423C000000030202D7
:10E86000023A4642424242E700000000000C0C001F
:10E87000000E08080808083E0000000000303000C4
:10E880000038202020202020221E00000003020249
:10E890000272120A1612227700000000000E080809
:10E8A000080808080808083E0000000000000000F2
:10E8B000007F9292929292B7000000000000000048
:10E8C000003B4642424242E70000000000000000D8
:10E8D000003C42424242423C000000000000000076
:10E8E000001B26424242221E0207000000000000D8
:10E8F000007844424242447840E0000000000000BA
:10E9000000774C040404041F000000000000000015
:10E91000007C42023C40423E000000000000000833
:10E92000083E080808080830000000000000000049
:10E9300000634242424262DC00000000000000002E
:10E9400000E7422424140808000000000000000032
:10E9500000EB49495555222200000000000000004C
:10E96000007624181818246E000000000000000033
:10E9700000E74224241418080807000000000000E3
:10E98000007E22100808447E000000C020202020C5
:10E990002010202020202020C00010101010101067
:10E9A00010101010101010101010000608080808A1
:10E9B000081008080808080806000C32C200000009
:10E9C0000000000000000000000000000000000047
:10E9D0000000000000000000000000000000000037
:10E9E0000000000000000000000000000000000027
:10E9F0000000000000000000000000000000000017
:10EA00000000600060006000600060006000600066
:10EA100040002000200020000000000000006000F6
:10EA200060006000000000000000000000006006C0
:10EA300060063003980188004400000000000000D8
:10EA400000000000000000000000000000000000C6
:10EA500000000000000000000000000000000000B6
:10EA600000001002100210021002FE07FE0708024A
:10EA70000801080108010801FE07FE07040104015E
:10EA8000040104010000000000000000000000007C
:10EA900040004000F00158034C03CC034C005800E8
:10EAA0007000E000C001C00140034C035C034C0354
:10EAB0004801F0004000400000000000000000009D
:10EAC00000000E010A0191009100910051005100D7
:10EAD0003A00AE03A002500450044804480448041D
:10EAE0008402840300000000000000000000000019
:10EAF000000038006C006C006C006C006C002C0096
:10EB000098071C011A01330133016301E300C308B4
:10EB1000C6093C07000000000000000000000C00D7
:10EB20001C0010001000080004000000000000009D
:10EB300000000000000000000000000000000000D5
:10EB400000000000000000000000000000000004C1
:10EB500000020001800080004000400020002000F2
:10EB60002000200020002000200040004000800005
:10EB7000800000010002000400000000000002000C
:10EB80000400080010001000200020004000400099
:10EB900040004000400040004000200020001000E5
:10EBA0001000080004000200000000000000000047
:10EBB0000000000000004000C0004000460C4E0F66
:10EBC000D001F0015E0F460C400040004000000004
:10EBD0000000000000000000000000000000000035
:10EBE0000000000000000000400040004000400025
:10EBF0004000FE0F40004000400040004000000088
:10EC00000000000000000000000000000000000004
:10EC100000000000000000000000000000000000F4
:10EC200000000000000000000000000000000C00D8
:10EC30001C0010001000080004000000000000008C
:10EC400000000000000000000000000000000000C4
:10EC50000000FE07000000000000000000000000AF
:10EC600000000000000000000000000000000000A4
:10EC70000000000000000000000000000000000094
:10EC800000000000000000000000000000001C0068
:10EC90001C001C0000000000000000000000000438
:10ECA0000006000200030001000180008000400017
:10ECB0004000600020002000100010000800080044
:10ECC0000C0004000600020000000000000000002C
:10ECD00000000000F00098010C030C030606060675
:10ECE0000606060606060606060606060C030C03BE
:10ECF0009801F0000000000000000000000000008B
:10ED00000000000040007C006000600060006000C7
:10ED100060006000600060006000600060006000F3
:10ED20006000FC0300000000000000000000000084
:10ED300000000000F800840102030603060300033C
:10ED400000018001C00060002000100008020402E1
:10ED50000602FE03000000000000000000000000AA
:10ED6000000000007800C600860186018001800155
:10ED7000C0007000800100010003000306030603C9
:10ED80008601F80000000000000000000000000004
:10ED90000000000080018001C001A001A0019001DD
:10EDA0008801880184018201FE0F800180018001B9
:10EDB0008001E007000000000000000000000000EB
:10EDC00000000000FC030400040004000400040030
:10EDD000F4008C0104030003000306030603820110
:10EDE0008401F800000000000000000000000000A6
:10EDF00000000000E00118030C030C0004000600F2
:10EE0000E60116030E0606060606060604060C02B2
:10EE10001803F000000000000000000000000000E7
:10EE200000000000F8070C060402040100010001C4
:10EE300080008000400040004000600060006000F2
:10EE40006000600000000000000000000000000002
:10EE500000000000F8010C030606060606060C0278
:10EE60001C03F000C8010C0306060606060606068B
:10EE70000C03F00100000000000000000000000092
:10EE800000000000F0000C010C0306020606060656
:10EE9000060606078C0678060006000300030C0130
:10EEA0008C0178000000000000000000000000005D
:10EEB0000000000000000000000000000000E00072
:10EEC000E000E00000000000000000000000E000A2
:10EED000E000E00000000000000000000000000072
:10EEE00000000000000000000000000000006000C2
:10EEF00060000000000000000000000000000000B2
:10EF000060006000400020002000000000000000C1
:10EF100000000004000200018000400020001000FA
:10EF200008000400080010002000400080000001DC
:10EF300000020004000000000000000000000000CB
:10EF40000000000000000000000000000000FE07BC
:10EF5000000000000000FE070000000000000000AC
:10EF600000000000000000000000000000000000A1
:10EF70000000040008001000200040008000000194
:10EF80000002000400020001800040002000100088
:10EF90000800040000000000000000000000000065
:10EFA00000000000E0031806040C040C0C0C0C0C10
:10EFB0000007800140004000400000000000E00029
:10EFC000E000E00000000000000000000000000081
:10EFD0000000E00018030C02CC0564056605A605D8
:10EFE000B604B604B604B604B602E4010C040C027E
:10EFF0001803F00000000000000000000000000006
:10F0000000000000600060005000D0009000900000
:10F01000880088010801F8010403040304020202C5
:10F0200002060F0F000000000000000000000000BA
:10F0300000000000FE008C030C030C030C030C0307
:10F040008C01FC000C030C020C060C060C060C06D2
:10F050000C03FE01000000000000000000000000A2
:10F0600000000000E00318030C060C040404060072
:10F070000600060006000600060006040C040C024A
:10F080001803F00000000000000000000000000075
:10F09000000000007F008C010C030C030C060C0622
:10F0A0000C060C060C060C060C060C060C030C03D6
:10F0B0008C017F0000000000000000000000000044
:10F0C00000000000FF030603060406040600860095
:10F0D0008600FE0086008600860006000604060400
:10F0E0000602FF0300000000000000000000000016
:10F0F00000000000FF030603060406040600860065
:10F100008600FE00860086008600060006000600D7
:10F1100006001F00000000000000000000000000CA
:10F1200000000000F00018010C020C0204020600AE
:10F13000060006000600C60F060306030C030C03B8
:10F140001803F000000000000000000000000000B4
:10F15000000000000F0F0606060606060606060655
:10F160000606FE0706060606060606060606060646
:10F1700006060F0F00000000000000000000000065
:10F1800000000000FC0360006000600060006000A0
:10F19000600060006000600060006000600060006F
:10F1A0006000FC0300000000000000000000000000
:10F1B00000000000F807C000C000C000C000C00090
:10F1C000C000C000C000C000C000C000C000C0003F
:10F1D000C000C000C60066003C0000000000000047
:10F1E00000000000CF038601C6004600260016007E
:10F1F00036002E006E004600C6008600860106011D
:10F2000006038F070000000000000000000000005F
:10F21000000000001F0006000600060006000600B1
:10F2200006000600060006000600060006040604A6
:10F230000602FF03000000000000000000000000C4
:10F24000000000000707860386038E038E034E032B
:10F250004E034A035A035A033A033203320332037A
:10F2600012038707000000000000000000000000FB
:10F27000000000008E0F0C021C021C02340234023B
:10F28000640264024402C40284028403840304030B
:10F2900004031F0200000000000000000000000046
:10F2A00000000000F00098010C030C0206060606A0
:10F2B0000606060606060606060606060C020C03E9
:10F2C0009801F000000000000000000000000000B5
:10F2D00000000000FF0006030606060606060606F6
:10F2E00006068603FE00060006000600060006006D
:10F2F00006001F00000000000000000000000000E9
:10F3000000000000F00098010C030C02060606063F
:10F310000606060606060606060676064C02CC0318
:10F320009801F000800700030000000000000000CA
:10F3300000000000FF010603060606060606060694
:10F340000603FE004600C60086008601060306038B
:10F3500006060F0E00000000000000000000000084
:10F3600000000000F8020C030602060206000E0070
:10F370003C00F800E00380030007020602060606D0
:10F380000C03F0010000000000000000000000007D
:10F3900000000000FE076204610861086000600070
:10F3A000600060006000600060006000600060005D
:10F3B0006000F801000000000000000000000000F4
:10F3C000000000001E070C020C020C020C020C02D2
:10F3D0000C020C020C020C020C020C020C020C02BD
:10F3E0001801F00000000000000000000000000014
:10F3F000000000000F070602040104010C010C01CB
:10F40000880088009800980050005000700030007C
:10F4100020002000000000000000000000000000AC
:10F4200000000000F70E6204420446044604640231
:10F430006402E402E4029C029C01980198018801A4
:10F4400088008800000000000000000000000000AC
:10F45000000000009E070C01080118019000B00098
:10F460006000200060006000D0009000880108016A
:10F4700004038E07000000000000000000000000F0
:10F48000000000000F0F060404020C02080118011E
:10F49000B800B000700060006000600060006000B4
:10F4A0006000F80100000000000000000000000003
:10F4B00000000000FC070C0206030201800180002E
:10F4C00040004000200020001000180008040C0438
:10F4D0000402FE0300000000000000000000E00342
:10F4E000200020002000200020002000200020001C
:10F4F000200020002000200020002000200020000C
:10F50000200020002000E0030000000000000000B8
:10F5100000000400040008000800100010001000A3
:10F520002000200040004000C0008000800000015A
:10F5300000010002000200020004000000007C0044
:10F5400040004000400040004000400040004000BB
:10F5500040004000400040004000400040004000AB
:10F560004000400040007C0000000000600090006F
:10F570000801000000000000000000000000000082
:10F58000000000000000000000000000000000007B
:10F59000000000000000000000000000000000006B
:10F5A000000000000000000000000000000000005B
:10F5B000000000000000000000000000000000004B
:10F5C0000000000000000000FF0F00000000180015
:10F5D00060000000000000000000000000000000CB
:10F5E000000000000000000000000000000000001B
:10F5F000000000000000000000000000000000000B
:10F600000000000000000000000000000000F00109
:10F610000C030C030003E0031C030E0306030603A4
:10F620008E0B7C0E000000000000000000000000B7
:10F63000000008000E000C000C000C000C00CC01B7
:10F640003C031C060C060C060C060C060C060C02F1
:10F650001C03E401000000000000000000000000A6
:10F660000000000000000000000000000000F000AA
:10F670008C018C01860106000600060006020C02C1
:10F680000C01F0000000000000000000000000007D
:10F6900000000002C003000300030003000378031E
:10F6A0008C030C0306030603060306030603040388
:10F6B0008C0778010000000000000000000000003E
:10F6C0000000000000000000000000000000E00159
:10F6D000180308020C060C06FC070C000C001804AA
:10F6E0001802E0010000000000000000000000001F
:10F6F00000000000C0036006300630003000FE014C
:10F700003000300030003000300030003000300079
:10F710003000FC01000000000000000000000000BC
:10F720000000000000000000000000000000F007E2
:10F73000D8068C018C018C019801F8000C00FC00AB
:10F74000CC03060306038E03F8000000000000004F
:10F75000000008000E000C000C000C000C00EC0176
:10F760001C030C030C030C030C030C030C030C0311
:10F770000C039E07000000000000000000000000D5
:10F7800000000000600060000000000040007C00FD
:10F790006000600060006000600060006000600069
:10F7A0006000FC03000000000000000000000000FA
:10F7B00000000000C001C001000000000001F001D5
:10F7C0008001800180018001800180018001800131
:10F7D000800180018001CC007C000000000000005E
:10F7E000000008000E000C000C000C000C008C0344
:10F7F0008C008C004C006C005C008C008C010C01B7
:10F800000C039E0700000000000000000000000044
:10F81000000040007C00600060006000600060004C
:10F8200060006000600060006000600060006000D8
:10F830006000FC0300000000000000000000000069
:10F84000000000000000000000000000000037077A
:10F85000EE066606660666066606660666066606C0
:10F860006606FF0F0000000000000000000000001E
:10F870000000000000000000000000000000EE0199
:10F880001C030C030C030C030C030C030C030C03F0
:10F890000C039E07000000000000000000000000B4
:10F8A0000000000000000000000000000000F00068
:10F8B00098010C03060606060606060606060C0355
:10F8C0000C03F00000000000000000000000000039
:10F8D0000000000000000000000000000000EE0139
:10F8E0001C030C060C060C060C060C060C060C037E
:10F8F0001C03EC010C000C003E00000000000000A6
:10F90000000000000000000000000000000078027D
:10F910008C030C0306030603060306030603040315
:10F920008C03780300030003C00700000000000000
:10F9300000000000000000000000000000009F0325
:10F94000580638061800180018001800180018008B
:10F950001800FF0000000000000000000000000090
:10F960000000000000000000000000000000F003A4
:10F970001C030C020C023800F000C0030403040353
:10F980008C03FC01000000000000000000000000EB
:10F990000000000000002000200030003000FE01C8
:10F9A00030003000300030003000300030003002D5
:10F9B0003002E00100000000000000000000000034
:10F9C00000000000000000000000000008028E039C
:10F9D0000C030C030C030C030C030C030C030C03AF
:10F9E0009C077801000000000000000000000000FB
:10F9F00000000000000000000000000000001E07E2
:10FA00000C020801080118019000B000B00060006D
:10FA10006000200000000000000000000000000066
:10FA20000000000000000000000000000000F70ED1
:10FA30006204460464026402EC029C01980198018D
:10FA40009801080000000000000000000000000015
:10FA50000000000000000000000000000000BC07E3
:10FA600018011001B00060006000E0009000080183
:10FA700008039E07000000000000000000000000D6
:10FA800000000000000000000000000000009E07D1
:10FA900008010801080190009000B00060006000BB
:10FAA00060002000200024001C0000000000000076
:10FAB0000000000000000000000000000000FC0149
:10FAC0008401C400440060002000300018020802D5
:10FAD0000C03FC0100000000000000000000000317
:10FAE0008000800080008000800080008000800016
:10FAF00040002000400080008000800080008000E6
:10FB000080008000800000030000400040004000B2
:10FB100040004000400040004000400040004000E5
:10FB200040004000400040004000400040004000D5
:10FB300040004000400040004000000000000C0079
:10FB40001000100010001000100010001000100035
:10FB500020004000200010001000100010001000D5
:10FB60001000100010000C00000000001C00220417
:10FB7000C20480030000000000000000000000003C
:10FB80000000000000000000000000000000000075
:10FB90000000000000000000000000000000000065
:10FBA0000000000000000000000000000000000055
:10FBB0000000000000000000000000000000000045
:10FBC0000000000000000000000000000000000035
:10FBD0000000000000000000000000000000000025
:10FBE00000000000C001C001C001C001C001C0018F
:10FBF000C0018000800080008000800080008000C4
:10FC000000000000000000008001C003C00380016C
:10FC100000000000000000000000000000000000E4
:10FC2000E01CE01CF01E700E380718030801840069
:10FC300000000000000000000000000000000000C4
:10FC400000000000000000000000000000000000B4
:10FC500000000000000000000000000000000000A4
:10FC600000000000000020102010201020102010A4
:10FC7000FE7FFE7F100810081008100810081008FA
:10FC80001008FE7FFE7F0804080408040804080426
:10FC90000000000000000000000000000000000064
:10FCA000000000010001C007601910311831183937
:10FCB000183938017001E001C0038007000F001DF2
:10FCC000003900311C311C310C310C11180DE007CA
:10FCD0000001000100010000000000000000000021
:10FCE0000000000000001C1036186308630C630459
:10FCF0006304630263026301361D9C3780228063C4
:10FD00004063406320632063306310221836081C70
:10FD100000000000000000000000000000000000E3
:10FD2000000000000000F00098018C018C018C01A3
:10FD30008C018C00CC007800183E1C083608320874
:10FD400063046304C304C303834306438E26781C01
:10FD500000000000000000000000000000000000A3
:10FD60001C003C003C003000300010000C0006007D
:10FD70000000000000000000000000000000000083
:10FD80000000000000000000000000000000000073
:10FD90000000000000000000000000000000000063
:10FDA0000040002000100008000C000400060003C2
:10FDB0000003000380018001800180018001800137
:10FDC0008001800100030003000300060006000C10
:10FDD00000080010002000400000000000000000AB
:10FDE0000200040008001000300020006000C00085
:10FDF000C000C0008001800180018001800180017D
:10FE000080018001C000C000C000600060003000C0
:10FE100010000800040002000000000000000000C4
:10FE200000000000000000000000000180038003CB
:10FE300000011C713C79783DC0070001C007783D86
:10FE40003C791C71000180038003800100000000E8
:10FE500000000000000000000000000000000000A2
:10FE60000000000000000000000000000001000190
:10FE700000010001000100010001FC7F0001000100
:10FE8000000100010001000100010000000000006D
:10FE90000000000000000000000000000000000062
:10FEA0000000000000000000000000000000000052
:10FEB0000000000000000000000000000000000042
:10FEC000000000000000000000001C003C003C009E
:10FED0003000300010000C000600000000000000A0
:10FEE0000000000000000000000000000000000012
:10FEF00000000000000000000000FE7F0000000085
:10FF000000000000000000000000000000000000F1
:10FF100000000000000000000000000000000000E1
:10FF200000000000000000000000000000000000D1
:10FF300000000000000000000000000000000000C1
:10FF4000000000000000000018003C003C00180009
:10FF500000000000000000000000000000000000A1
:10FF60000040006000200030001000180008000C65
:10FF70000004000600020003000180018000C000B0
:10FF800040006000200030001000180008000C0045
:10FF90000400060002000000000000000000000055
:10FFA000000000000000C007600C30181830183046
:10FFB00018200C600C600C600C600C600C600C6015
:10FFC0000C600C601820183018303018600CC00716
:10FFD0000000000000000000000000000000000021
:10FFE00000000000000000018001F8018001800194
:10FFF00080018001800180018001800180018001F9
:020000040801F1
:10000000800180018001800180018001C003F81F10
:1000100000000000000000000000000000000000E0
:10002000000000000000E007101C08180430043035
:100030000C300C30003000180008000400020001F1
:10004000800040002020102008200430FC1FFC1FEE
:1000500000000000000000000000000000000000A0
:10006000000000000000E003180E0C0C0C180C1827
:100070000C180018000C0006C003000E0018001039
:10008000003000300C300C300C100C18180CE00351
:100090000000000000000000000000000000000060
:1000A000000000000000000C000E000E000F800E8B
:1000B000800E400E600E200E100E100E080E040E64
:1000C000040EFE7F000E000E000E000E000E000E4D
:1000D000C07F0000000000000000000000000000E1
:1000E000000000000000F03FF03F10001000100082
:1000F00008000800C807280C181808100030003045
:10010000003000300C300C3004180418080CF003D8
:1001100000000000000000000000000000000000DF
:10012000000000000000800FC010203010301800C8
:10013000180008000C008C0F6C183C301C600C6020
:100140000C600C600C601860182030306018C0071C
:10015000000000000000000000000000000000009F
:10016000000000000000F83FF83F1C100C080408D5
:1001700004040004000200020001000100018000EC
:1001800080008000C000C000C000C000C000C000EF
:10019000000000000000000000000000000000005F
:1001A000000000000000E007300C18180C300C3084
:1001B0000C301C3038187008E007B007180E0C1C03
:1001C000063806300630063006300C18180CE003EE
:1001D000000000000000000000000000000000001F
:1001E000000000000000E00318040C080C180610C2
:1001F000063006300630063006380C3C1836F03132
:1002000000300018001800180C0C0C060C03F0014C
:1002100000000000000000000000000000000000DE
:1002200000000000000000000000000000000000CE
:10023000000000008001C003C00380010000000036
:1002400000000000000000008001C003C003800126
:10025000000000000000000000000000000000009E
:10026000000000000000000000000000000000008E
:1002700000000000C000C0000000000000000000FE
:10028000000000000000000000000000C000C000EE
:1002900080008000400040000000000000000000DE
:1002A0000000000000200010000800040006000309
:1002B0008001C0006000300018000C001800300001
:1002C0006000C00080010003000600040008001068
:1002D00000200000000000000000000000000000FE
:1002E000000000000000000000000000000000000E
:1002F00000000000FE7F0000000000000000000081
:10030000FE7F000000000000000000000000000070
:1003100000000000000000000000000000000000DD
:100320000000000004000800100020006000C00071
:10033000800100030006000C001800300018000CBB
:10034000000600038001C0006000200010000800CB
:100350000400000000000000000000000000000099
:1003600000000000C0073018083008600C601C60F6
:100370001C601C600030001C000600018000800032
:1003800080008000000000008001C003C0038001E5
:10039000000000000000000000000000000000005D
:1003A000000000000000C0076018103018200C2F5B
:1003B0008C4D864CC64CC64C664C664466446626DC
:1003C00066266615CC1C0C40082018303018C00773
:1003D000000000000000000000000000000000001D
:1003E000000000000001C001C001C0014001600325
:1003F0002003200320033006100610061006F80F15
:10040000080C080C080C0C0C0418041806181F7CA7
:1004100000000000000000000000000000000000DC
:10042000000000000000FE07181C183818301830B3
:10043000183018301818180CF80718181830182029
:100440001860186018601860186018301818FE0FCF
:10045000000000000000000000000000000000009C
:10046000000000000000C0276038103018200C4049
:100470000C40040006000600060006000600060008
:10048000060006000C400C400C2018303018C00745
:10049000000000000000000000000000000000005C
:1004A000000000000000FE03180E18181830183065
:1004B00018301860186018601860186018601860AC
:1004C000186018601830183018101818180EFE032D
:1004D000000000000000000000000000000000001C
:1004E000000000000000FE3F18301820186018407F
:1004F000180018081808180CF80F180C1808180815
:100500001800180018001840184018201830FE3F36
:1005100000000000000000000000000000000000DB
:10052000000000000000FE7F1870184018C01880FE
:100530001800181018101818F81F1818181018108C
:1005400018001800180018001800180018007E0085
:10055000000000000000000000000000000000009B
:10056000000000000000C013701C101018100C20B8
:100570000C2004000600060006000600060006FC2B
:10058000063006300C300C30183018303008C007F8
:10059000000000000000000000000000000000005B
:1005A0000000000000003F7E0C180C180C180C18FE
:1005B0000C180C180C180C180C18FC1F0C180C1824
:1005C0000C180C180C180C180C180C180C183F7E72
:1005D000000000000000000000000000000000001B
:1005E000000000000000F81F8001800180018001F0
:1005F00080018001800180018001800180018001F3
:100600008001800180018001800180018001F81F4C
:1006100000000000000000000000000000000000DA
:10062000000000000000E07F000600060006000653
:10063000000600060006000600060006000600068A
:10064000000600060006000600060006000600067A
:1006500000060E060E038E01FC00000000000000E4
:100660000000000000007E7C181818081804180606
:100670001802180198019801D801B8033803180727
:100680001806180E180C181C1818183018307EFC94
:10069000000000000000000000000000000000005A
:1006A0000000000000007E0018001800180018006C
:1006B000180018001800180018001800180018007A
:1006C0001800180018001840184018201830FE3F75
:1006D000000000000000000000000000000000001A
:1006E0000000000000001FF81C381C381C381C3C9F
:1006F00034343434343434367432643264326432F0
:100700006431C431C431C431C430C43084309FFC3E
:1007100000000000000000000000000000000000D9
:100720000000000000001F7C1C103C10341034102E
:1007300074106410E410C410C411841184130413E1
:1007400004170416041E041C041C041C04181F189F
:100750000000000000000000000000000000000099
:10076000000000000000C003300C181808100C3006
:100770000C30066006600660066006600660066073
:10078000066006600C200C3008101818300CC003EE
:100790000000000000000000000000000000000059
:1007A000000000000000FE0F1818183018601860D4
:1007B00018601860186018301818F80F1800180022
:1007C00018001800180018001800180018007E0003
:1007D0000000000000000000000000000000000019
:1007E000000000000000C003300C18180C100C3082
:1007F0000C20066006600660066006600660066003
:1008000006600660E4612C331C321816300EC007F7
:10081000004C007C003800000000000000000000D8
:10082000000000000000FE07181C183818301830AF
:10083000183018301818180CF80798031803180700
:1008400018061806180E180C180C181C18187E78A4
:100850000000000000000000000000000000000098
:10086000000000000000E027303818300C200C2079
:100870000C000C0018007800E003800F001E003808
:100880000070006004600460086018303818C80FF9
:100890000000000000000000000000000000000058
:1008A000000000000000FC3F8C21846182418241F5
:1008B0008001800180018001800180018001800130
:1008C0008001800180018001800180018001E007BA
:1008D0000000000000000000000000000000000018
:1008E0000000000000003F7C0C100C100C100C10DD
:1008F0000C100C100C100C100C100C100C100C1018
:100900000C100C100C100C100C1008083804E0032C
:1009100000000000000000000000000000000000D7
:100920000000000000003EF81820182018203010A9
:10093000301030103010600860086008E00CC0040F
:10094000C004C00480038003800380030001000111
:100950000000000000000000000000000000000097
:10096000000000000000DFF38661862186218C21D3
:100970000C218C238C138C138C134C135812581687
:10098000580E380E380E380E300C100410041004B7
:100990000000000000000000000000000000000057
:1009A0000000000000007E3E1808380830043004C3
:1009B00070026002E001C001C001800180034003B9
:1009C000400720062006100C100C081808183E7C62
:1009D0000000000000000000000000000000000017
:1009E0000000000000007E7C1C1018101808300861
:1009F000300C700460046002C002C002C0018001BB
:100A00008001800180018001800180018001E00778
:100A100000000000000000000000000000000000D6
:100A2000000000000000F83F18180818040C040E1D
:100A300000060007000380038001C001C000E00041
:100A4000600070003000382018201C100C18FE1FA9
:100A50000000000000000000000000000000000096
:100A6000C03F4000400040004000400040004000C7
:100A70004000400040004000400040004000400076
:100A80004000400040004000400040004000400066
:100A900040004000C03F00000000000000000000D7
:100AA00000000000080018001800100030002000AE
:100AB000600060004000C0008000800180010001F3
:100AC00000030002000600060004000C00080018E5
:100AD000001800100030002000000000000000009E
:100AE000FC030002000200020002000200020002F9
:100AF00000020002000200020002000200020002E6
:100B000000020002000200020002000200020002D5
:100B100000020002FC0300000000000000000000D2
:100B20008007C00620081010000000000000000030
:100B300000000000000000000000000000000000B5
:100B400000000000000000000000000000000000A5
:100B50000000000000000000000000000000000095
:100B60000000000000000000000000000000000085
:100B70000000000000000000000000000000000075
:100B80000000000000000000000000000000000065
:100B90000000000000000000FFFF00000000000057
:100BA0007800C0000001000000000000000000000C
:100BB0000000000000000000000000000000000035
:100BC0000000000000000000000000000000000025
:100BD0000000000000000000000000000000000015
:100BE0000000000000000000000000000000000005
:100BF00000000000F00318060C0C0C0C000C800F19
:100C0000700C1C0C0C0C060C060C064C0C4FF83827
:100C100000000000000000000000000000000000D4
:100C20000000000010001E00180018001800180036
:100C300018001800180FD81838303860186018607D
:100C40001860186018601860182038307818C807C5
:100C50000000000000000000000000000000000094
:100C60000000000000000000000000000000000084
:100C700000000000C007700C181818180C180C00A1
:100C80000C000C000C000C20182018103008C007B5
:100C90000000000000000000000000000000000054
:100CA000000000000010001E0018001800180018B6
:100CB00000180018E01B301C181818180C180C1815
:100CC0000C180C180C180C180818181C307AE009AD
:100CD0000000000000000000000000000000000014
:100CE0000000000000000000000000000000000004
:100CF00000000000C007300C181808100C300C3031
:100D0000FC3F0C000C000C00182018107018C007D5
:100D100000000000000000000000000000000000D3
:100D2000000000000000003E80C380C0C0C0C000C2
:100D3000C000C000FC1FC000C000C000C000C00058
:100D4000C000C000C000C000C000C000C000F80F5C
:100D50000000000000000000000000000000000093
:100D60000000000000000000000000000000000083
:100D700000000000C077306C1018181818181818E8
:100D80001018300CF00718001800F00FF03F087032
:100D90000C600C600C603838E00F000000000000B0
:100DA0000000000010001E001800180018001800B5
:100DB00018001800980FD81838301830183018302C
:100DC00018301830183018301830183018307EFCB1
:100DD0000000000000000000000000000000000013
:100DE000000000000000800380038003000000007A
:100DF00000000001F8018001800180018001800174
:100E00008001800180018001800180018001F81F44
:100E100000000000000000000000000000000000D2
:100E2000000000000000003800380038000000001A
:100E300000000010801F001800180018001800188B
:100E400000180018001800180018001800180018E2
:100E500000180018180C1806F0030000000000002D
:100E60000000000010001E001800180018001800F4
:100E700018001800183E180C1806180318019801DD
:100E8000D801380318071806180C181C18187E7C8F
:100E90000000000000000000000000000000000052
:100EA000000000000001F801800180018001800144
:100EB000800180018001800180018001800180012A
:100EC0008001800180018001800180018001F81F84
:100ED0000000000000000000000000000000000012
:100EE0000000000000000000000000000000000002
:100EF00000000800EE1C9C338C318C318C318C311D
:100F00008C318C318C318C318C318C318C31DE7B5D
:100F100000000000000000000000000000000000D1
:100F200000000000000000000000000000000000C1
:100F3000000010001E0FD818383018301830183044
:100F400018301830183018301830183018307EFC2F
:100F50000000000000000000000000000000000091
:100F60000000000000000000000000000000000081
:100F700000000000C007701C103018300C600C60BE
:100F80000C600C600C600C60183018303018C00712
:100F90000000000000000000000000000000000051
:100FA0000000000000000000000000000000000041
:100FB000000010009E0F5818383018201860186074
:100FC0001860186018601860183038307818980762
:100FD00018001800180018007E0000000000000033
:100FE0000000000000000000000000000000000001
:100FF00000000000C023303C183818300C300C3092
:101000000C300C300C300C3008301838303CE033E9
:10101000003000300030003000FC00000000000014
:1010200000000000000000000000000000000000C0
:10103000000060007E3C60666061E000E0006000EF
:101040006000600060006000600060006000FE07FB
:101050000000000000000000000000000000000090
:101060000000000000000000000000000000000080
:1010700000000000E02730381830182018007000F9
:10108000E003800F001C043004300C301C18EC0FFF
:101090000000000000000000000000000000000050
:1010A00000000000000000000000800080008000C0
:1010B000C000E000FC1FC000C000C000C000C000B5
:1010C000C000C000C000C000C020C0208011000FC0
:1010D0000000000000000000000000000000000010
:1010E0000000000000000000000000000000000000
:1010F000000010201E3C18301830183018301830FE
:1011000018301830183018301830183830F4E01310
:1011100000000000000000000000000000000000CF
:1011200000000000000000000000000000000000BF
:10113000000000007E3C18181808380830043004FD
:10114000700260026002E001C001C001C0008000C6
:10115000000000000000000000000000000000008F
:10116000000000000000000000000000000000007F
:1011700000000000DFF78E630C238C238C23981370
:10118000981358165816700E700E700E2004200416
:10119000000000000000000000000000000000004F
:1011A000000000000000000000000000000000003F
:1011B00000000000FC3E70087004E004C002C001A2
:1011C0008003800340076006200C100C18183E7E38
:1011D000000000000000000000000000000000000F
:1011E00000000000000000000000000000000000FF
:1011F000000000007E7C1818180830083008300401
:1012000060046004C002C002C0028001800180014D
:101210008000800080004C003C00000000000000C6
:1012200000000000000000000000000000000000BE
:1012300000000000FC1F0C0C040E040600038003D9
:101240008001C000E0007020302038301C18FC1FE6
:10125000000000000000000000000000000000008E
:10126000003000080004000400040004000400042E
:1012700000040004000400040002800100020004D5
:10128000000400040004000400040004000400043E
:10129000000400040008003000000001000100010B
:1012A0000001000100010001000100010001000136
:1012B0000001000100010001000100010001000126
:1012C0000001000100010001000100010001000116
:1012D0000001000100010001000100000000000009
:1012E0000C00100020002000200020002000200022
:1012F000200020002000200040008001400020004D
:1013000020002000200020002000200020002000DD
:101310002000200010000C00000000003800C40075
:10132000864002610022001C000000000000000056
:1013300000000000000000000000000000000000AD
:10134000000000000000000000000000000000009D
:1013500000000000000000000000D6D020002000A7
:101360002000FE03220222022202FE0322022000AB
:1013700020002000BEB0FC010401FC010401FC01BE
:101380002000FF070401FC01200024013202D4B038
:10139000FE070204FA0402040204FE055204520489
:1013A0004A0586050204FE07B5E710001000FF019C
:1013B00011011101FF0111011101FF0111041004BC
:1013C000E007D7D30000FC0180004000200020008F
:1013D000FF0720002000200020003800D6D0800029
:1013E000800080008000FC1F841084108410841012
:1013F0008410FC1F84108000800080008000BEB03C
:10140000F80F0808F80F0808F80F8000FF7F0000A9
:10141000F80F08080808F80F80008410A220400088
:10142000D4B00000FE3F0220F22702200220FA2F53
:10143000222122212221122912290A2E0220FE3FD6
:101440000220B5E7800080008000FC1F841084101B
:101450008410FC1F841084108410FC1F8450804072
:101460008040007FD7D30000FE1F00080004000268
:1014700080018000FF7F800080008000800080006D
:101480008000A0004000D6D000000000000000183E
:1014900000000800000800000800080818F8FF1FF6
:1014A000180818180818180818180818180818180C
:1014B0000818F8FF1F0808080008000008000008C6
:1014C00000000800001800001800001800000000CC
:1014D000BEB0000000000000400006C0FF07400052
:1014E00006C0FF07400006C0FF07400802003000AA
:1014F000FEFF3F000000C0FF07C00002C00002C0A6
:101500000002C0FF0380100080110160100E301037
:10151000180C1E30001C00000000D4B000000000B9
:101520000000080030F8FF1F08001008C010083F36
:1015300010080010080010080013C8FF100822103F
:1015400008221008221008221008211208211488ED
:10155000601648C013280010080010F8FF1F08008C
:1015600010000000B5E700000000000000180000B7
:101570000800000800000800F0FF0F100804100821
:1015800004100804100804F0FF07100804100804F1
:10159000100804100804F0FF0710080000081000ED
:1015A000081000082000183000F01F000000D7D3FA
:1015B000000000000000000004F0FF0F0000060023
:1015C000000100C0000028000018000018000018EA
:1015D00030FEFF7F001800001800001800001800FF
:1015E0000018000018000018000018000018000083
:1015F0001F00000C00000000D6D00000000000001A
:1016000000000080000000800100008001000080D8
:10161000010000800100008001001080010CF0FF3B
:10162000FF0F3080010430800104308001043080DD
:1016300001043080010430800104308001043080D6
:101640000104F0FFFF0730800104308001040080B6
:101650000100008001000080010000800100008086
:101660000100008001000080010000800100008076
:1016700001000080000000000000BEB0000000007B
:1016800000000000000000000001800100FFFF01D9
:10169000000380010003800100FFFF0100038001BF
:1016A0000003800100FFFF010081810000000300B2
:1016B0000000031CFCFFFF3F000040000003C001CE
:1016C00000FFFF010003C0000003C0000003C000D2
:1016D00000FFFF000001410000040100000E710046
:1016E00000078101800101076000010E1898011CAC
:1016F00004E0011800C0000000000000D4B00000A9
:1017000000000000000000000008F0FFFF1F300094
:10171000000C3000000C3000100C30FE3F0C300488
:10172000000C3000000C3000000C3000000C3000C9
:10173000C00CF0FFFF0D3030060E3030060C3010BC
:10174000060C3010060C3010060C3018860C3018C1
:10175000860C3008060D300C860D3006EE0F300278
:10176000FC0D3001000CF000000C3000000CF0FF0C
:10177000FF0F3000000C1000000400000000B5E76F
:10178000000000000000000000C0000000C00100D8
:1017900000C0000000C0000000C0000000C0000049
:1017A000E0FFFF0360C0000360C0000360C00003EF
:1017B00060C0000360C0000360C00003E0FFFF03DF
:1017C00060C0000360C0000360C0000360C000038D
:1017D00060C00003E0FFFF0360C0000160C00000C4
:1017E00000C0000800C0001000C0001000C00018B9
:1017F00000C001380080FF1F000000000000000052
:10180000D7D300000000000000000000000000002E
:101810000003C0FFFF07000080070000C0000000B9
:1018200060000000180000000C0000800300008031
:10183000030000800100008001080080011CFCFF03
:10184000FF3F008001000080010000800100008057
:101850000100008001000080010000800100008084
:101860000100008001000080010000800100008074
:10187000010000FC010000E000000040000000004A
:101880000000000000000000000000000000000058
:101890000000000000000000000000000000000048
:1018A0000000000000000000000000000000000038
:1018B0000000000000000000000000000000000028
:1018C0000000000000000000000000000000000018
:1018D0000000000000000000000000000000000008
:1018E00000000000000000000000000000000000F8
:1018F00000000000000000000000000000000000E8
:1019000000000000000000000000000000000000D7
:1019100000000000000000000000000000000000C7
:101920000000000000000000038000000000000034
:1019300000000000000000000000000000000000A7
:1019400000000000007FFF00000000000000000019
:101950000000000000000000000000000000000087
:10196000000FFFFFFF00000000000000000000006B
:101970000000000000000000000000000001FFFF68
:10198000FFFFFE000000000000000000000000005B
:10199000000000000000000000003FFFFFFFFFFF0D
:1019A000FE00000000000000000000000000000039
:1019B00000000000000007FFFFFFFFFFFFFFFC002B
:1019C0000000000000000000000000000000000017
:1019D0000000007FFFFFFFFFFFFFFFFFFC00000094
:1019E00000000000000000000000000000000000F7
:1019F0007FFFFFFFFFFFFFFFFFFFF8000000000079
:101A00000000000000000000000000000003FFFFD5
:101A1000FFFFFFFFFFFFFFFFF800000000000000D6
:101A200000000000000000000000000FFFFFFFFFAB
:101A3000FFFFFFFFFFFFF0000000000000000000BC
:101A40000000000000000000003FFFFFFFFFFFFF5D
:101A5000FFFFFFFFF000000000000000000000009A
:101A600000000000000000FFFFFFFFFFFFFFFFFF7F
:101A7000FFFFE00000000000000000000000000088
:101A80000000000001FFFFFFFFFFFFFFFFFFFFFF60
:101A9000E000000000000000000000000000000066
:101AA000000003FFFFFFFFFFFFFFFFFFFFFFC0007E
:101AB0000000000000000000000000000000000026
:101AC0000FFFFFFFFFFFFFFFFFFFFFFFC000000052
:101AD00000000000000000000000000000001FFFE8
:101AE000FFFFFFFFFFFFFFFFFFFF80000000000080
:101AF0000000000000000000000000001FFFFFFFCA
:101B0000FFFFFFFFFFFFFFFF80000000000000005D
:101B1000000000000000000000003FFFFFFFFFFF8B
:101B2000FFFFFFFFFFFF00000000000000000000BB
:101B300000000000000000007FFFFFFFFFFFFFFF2D
:101B4000FFC7FFFF000000000000000000000000D1
:101B5000000000000000FFFFFFFFFFFFFFFF800706
:101B6000FFFE000000000000000000000000000078
:101B700000000001FFFFFFFFFFFFFF00000FFFFE5F
:101B80000000000000000000000000000000000055
:101B90000001FFFFFFFFFFFE0000001FFFFC000031
:101BA0000000000000000000000000000000000332
:101BB000FFFFFFFFFC000000001FFFFC0000000013
:101BC0000000000000000000000000000003FFFF14
:101BD000FFFC00000000003FFFF8000000000000D4
:101BE000000000000000000000000007FFFFFFE011
:101BF00000000000007FFFF0000000000000000077
:101C000000000000000000000007FFFFFF000000D0
:101C1000000000FFFFF000000000000000000000D6
:101C2000000000000000000FFFFFFC0000000000AB
:101C300001FFFFE0000000000000000000000000C5
:101C400000000000000FFFFFF0000000000003FF95
:101C5000FFE00000000000000000000000000000A5
:101C60000000000FFFFFE0000000000007FFFFC0C2
:101C70000000000000000000000000000000000064
:101C8000001FFFFF8000000000001FFFFF8000001A
:101C90000000000000000000000000000000001F25
:101CA000FFFF0000000000007FFFFF800000000039
:101CB000000000000000000000000000001FFFFE08
:101CC000000000000003FFFFFF0000000000000014
:101CD00000000000000000000000001FFFFC0000EA
:101CE000000001FFFFFFFE000000000000000000F8
:101CF0000000000000000000003FFFF800000001AD
:101D0000FFFFFFFFFC0000000000000000000000DB
:101D1000000000000000003FFFF00000007FFFFF18
:101D2000FFFFFC00000000000000000000000000B9
:101D300000000000003FFFF0000007FFFFFFFFFF73
:101D4000F80000000000000000000000000000009B
:101D50000000007FFFE000003FFFFFFFFFFFF000FB
:101D60000000000000000000000000000000000073
:101D7000007FFFC00000FFFFFFFFFFFFC00000006B
:101D80000000000000000000000000000000007FD4
:101D9000FF800003FFFFFFFFFFFF80000000000047
:101DA00000000000000000000000000000FFFF80B5
:101DB000000FFFFFFFFFFFFF00000000000000001A
:101DC0000000000000000000000000FFFF00001FF6
:101DD000FFFFFFFFFFFC000000000000000000000C
:101DE000000000000000000000FFFE00007FFFFF79
:101DF000FFFFFFF8000000000000000000000000EE
:101E000000000000000001FFFE0000FFFFFFFFFFD9
:101E1000FFC0000000000000000000000000000003
:101E20000000000001FFFC0001FFFFFFFFFFFE00BC
:101E300000000000000000000000000000000000A2
:101E4000000001FFF80003FFFFFFFFFF800000001C
:101E50000000000000000000000000000000000082
:101E600003FFF80007FFF80000000000000000007A
:101E7000000000000000000000000000000003FF60
:101E8000F00007FF0000000000000000000000005C
:101E900000000000000000000000000003FFE00060
:101EA0000FF800000000000000000000000000002B
:101EB0000000000000000000000007FFE0001FE03D
:101EC0000000000000000000000000000000000012
:101ED000000000000000000007FFC0001F8000009D
:101EE00000000000000000000000000000000000F2
:101EF00000000000000007FFC0003E00000000409E
:101F000000000000000000000000000000000000D1
:101F1000000000000FFF80007800000000E00000DB
:101F200000000000000000000000000000000000B1
:101F300000000FFF00007000000001E00000000042
:101F40000000000000000000000000000000000091
:101F50000FFF0000E000000001E0000000000000B2
:101F600000000000000000000000000000001FFE54
:101F70000000C000000007C00000000000000000DA
:101F80000000000000000000000000001FFC000135
:101F9000800000000FC000000000000000000000F2
:101FA000000000000000000000001FFC0001000015
:101FB00000001FC000000000000000000000000042
:101FC00000000000000000003FF8000000000000DA
:101FD0003FC0000000000000000000000000000002
:101FE0000000000000003FF0000000000000FF8043
:101FF00000000000000000000000000000000000E1
:10200000000000003FF0000000000001FF80000021
:1020100000000000000000000000000000000000C0
:1020200000007FE0000000000007FF00000000004B
:1020300000000000000000000000000000000000A0
:102040007FC000000000001FFF0000000000000033
:1020500000000000000000000000000000007FC041
:102060000000000000FFFE00000000000000000073
:10207000000000000000000000000000FF800000E1
:1020800000000FFFFC000000000000000000000046
:1020900000000000000000000000FF0000007807C2
:1020A000FFFFF8000000000000000000000000003A
:1020B0000000000000000000FF0000003FFFFFFFE5
:1020C000F000000000000000000000000000000020
:1020D000000000000001FE0000001FFFFFFFE00005
:1020E00000000000000000000000000000000000F0
:1020F00000000001FC0000000FFFFFFFC000FFFC1C
:10210000001F003FFF00FFFC03FF9F80F80FFE0051
:102110000001FC00000003FFFFFF0000FFFE003F86
:10212000003FFF83FFFC0FFF1FC0F03FFE000003D6
:10213000F800000000FFFFFC0000FFFF007F807F31
:10214000FFC7FFFC3FFF1FC1F07FFE000003F00050
:102150000000001FFFC00001FFFF007F807FFFCF56
:10216000FFF87FFF3FC1F0FFFC000003F00000001C
:10217000000020000001F03F00FF807807CF8000C2
:10218000FC003FC1E1F000000003E000000010008F
:1021900000000001E01F01EF80F80FDF0000F800F1
:1021A0003FC3E3E000000007E00000003000000053
:1021B0000003E01F03EF80F00F9F0001F0007DC3DC
:1021C000E3E000000007C0000000F0000000000392
:1021D000E01F03CF80F00F9FFE01F0007DC3C7C05A
:1021E0000000000780000001F00000000003C03F75
:1021F000078F81FFFF1FFFC3E00079E7C7C0000022
:10220000000F80000007F00000000007C03E0F8FA5
:1022100081FFFE1FFFE3E000F9E7CF800000000F21
:102220000000001FE00000000007C03E1F0F81FFFC
:10223000FC0FFFE7E000F1E78F800000000E0000D8
:1022400000FFE0000000000F807C1FFF83FFF8000C
:1022500007E7C000F0EF8F800000001E007C7FFFCA
:10226000C0000000000F807C3FFF83C0000003E738
:10227000C001F0EF9F800000001C007FFFFF800086
:102280000000000F80F87FFF87C0000007E7C00153
:10229000E0FF1F8000000018003FFFFF000000006B
:1022A000001F01F8FFFF87C0000007C7E001E0FF43
:1022B0001F8000000038001FFFFE00000000001F0C
:1022C000FFF0F80F878000FFFF87FFF3E0FE0FFFAE
:1022D000C0000030000FFFFC00000000001FFFE105
:1022E000F00F8F8000FFFF87FFE3C0FE0FFFC000ED
:1022F00000300003FFF000000000003FFF83E00F0C
:102300008F8000FFFE03FFE3C07E07FF80000060B8
:1023100000007F8000000000003FFE07C00F8F001C
:1023200001FFF800FFE7C07C03FF800000400000D1
:10233000000000000000000000000000000000009D
:10234000000000000000000000000040000000004D
:10235000000000000000000000000000000000007D
:1023600000000000000000000080000000000000ED
:10237000000000000000000000000000000000005D
:10238000000000000000000000000000000000004D
:10239000000000000000000000000000000000003D
:1023A000000000000000000000000000000000002D
:1023B000000000000000000000000000000000001D
:1023C000000000000000000000000000000000000D
:1023D00000000000000000000000000000000000FD
:1023E00000000000000000000000000000000000ED
:1023F00000000000000000000000000000000000DD
:1024000000000000000000000000000000000000CC
:1024100000000000000000000000000000000000BC
:1024200000000000000000000000000000000000AC
:10243000000000000000000000000000000000009C
:10244000000000000000000000000000000000008C
:102450000000000000000000000000000000803FBD
:102460000000803F000000000000000000000000AD
:10247000000000000000000000000000000000005C
:10248000000000000000000000000000000000004C
:10249000000000000000803F00000000000000007D
:1024A00000000000000000004C5555555555A53F53
:1024B0007751C1166CC156BF9015CB19A001FA3ED9
:1024C000AD529C804F7E92BEC4B1B4BD9EEE213E03
:1024D000D43888BEE9FAA8BD00004054FB21F93F7A
:1024E0003163621A61B4D03D0000601A61B4D03D1E
:1024F0007370032E8A19A33B0000002E8A19A33B98
:10250000C14920259A837B390000000000000000AB
:102510006E83F9A22915444ED15727FCC0DD34F54E
:10252000999562DB4190433CAB6351FE61C5BBDED4
:102530003A6E24B7E0D24D42EA2E49061C92D109E8
:102540001CEB1DFE3EA729B1F53582E88444BB2E65
:1025500026709CE9417E5FB439D69139F4395383B2
:102560008B5F849C3B28F9BDFF97F81F0F9805DE11
:102570008B112FEF1F6D0A5ACF7E366DB709CB270F
:10258000663F464F2DEA5F9EC7BA27757BF1E5EBA4
:10259000F739073DEA92528AB15FFB6B085D8D1FE8
:1025A000A6F810111111813FD561C119A0012ABFF0
:1025B0007DFEB157E31DC73EEB9C2B8AE6E55ABE74
:1025C0007CD5CF5A3AD9E53DE82501080000002026
:1025D0001001000010B60008F826010810010020C4
:1025E000781E000020B6000800A24A040000000087
:1025F00000000000010203040607080900000000B3
:1026000000000000000000000000000000000000CA
:10261000000070C1000070C1000070C1000070C1F6
:1026200000007041000070C1000070410000704166
:10263000000070C100007041000070C1000070C156
:10264000000070C1000070C100007041000070C146
:1026500000007041000070410000704100007041B6
:102660000000704100007041000070C10000704126
:102670000100000002000000020000000300000052
:10268000030000000400000004000000010000003E
:102690000500000006000000060000000700000022
:1026A000070000000800000008000000050000000E
:1026B0000800000004000000070000000300000004
:1026C00006000000020000000500000001000000FC
:1026D0000000000055C9000881C90008040200205C
:1026E000041A0020000000000000000000000000AC
:0826F0000000000000000000E2
:0400000508008E3130
:00000001FF
